{
  "_format": "hh-sol-artifact-1",
  "contractName": "OrganizationNFT",
  "sourceName": "contracts/contract.sol",
  "abi": [
    {
      "inputs": [],
      "stateMutability": "nonpayable",
      "type": "constructor"
    },
    {
      "anonymous": false,
      "inputs": [
        {
          "indexed": true,
          "internalType": "address",
          "name": "owner",
          "type": "address"
        },
        {
          "indexed": true,
          "internalType": "address",
          "name": "approved",
          "type": "address"
        },
        {
          "indexed": true,
          "internalType": "uint256",
          "name": "tokenId",
          "type": "uint256"
        }
      ],
      "name": "Approval",
      "type": "event"
    },
    {
      "anonymous": false,
      "inputs": [
        {
          "indexed": true,
          "internalType": "address",
          "name": "owner",
          "type": "address"
        },
        {
          "indexed": true,
          "internalType": "address",
          "name": "operator",
          "type": "address"
        },
        {
          "indexed": false,
          "internalType": "bool",
          "name": "approved",
          "type": "bool"
        }
      ],
      "name": "ApprovalForAll",
      "type": "event"
    },
    {
      "anonymous": false,
      "inputs": [
        {
          "indexed": false,
          "internalType": "uint256",
          "name": "organizationId",
          "type": "uint256"
        },
        {
          "indexed": false,
          "internalType": "uint256",
          "name": "amount",
          "type": "uint256"
        }
      ],
      "name": "FundsSent",
      "type": "event"
    },
    {
      "anonymous": false,
      "inputs": [
        {
          "indexed": true,
          "internalType": "address",
          "name": "organization",
          "type": "address"
        },
        {
          "indexed": true,
          "internalType": "address",
          "name": "recipient",
          "type": "address"
        },
        {
          "indexed": false,
          "internalType": "uint256",
          "name": "amount",
          "type": "uint256"
        }
      ],
      "name": "FundsSentToAccount",
      "type": "event"
    },
    {
      "anonymous": false,
      "inputs": [
        {
          "indexed": false,
          "internalType": "uint256",
          "name": "organizationId",
          "type": "uint256"
        },
        {
          "indexed": false,
          "internalType": "string",
          "name": "name",
          "type": "string"
        },
        {
          "indexed": false,
          "internalType": "string",
          "name": "description",
          "type": "string"
        },
        {
          "indexed": false,
          "internalType": "address",
          "name": "addressOfOrg",
          "type": "address"
        }
      ],
      "name": "OrganizationRegistered",
      "type": "event"
    },
    {
      "anonymous": false,
      "inputs": [
        {
          "indexed": true,
          "internalType": "address",
          "name": "previousOwner",
          "type": "address"
        },
        {
          "indexed": true,
          "internalType": "address",
          "name": "newOwner",
          "type": "address"
        }
      ],
      "name": "OwnershipTransferred",
      "type": "event"
    },
    {
      "anonymous": false,
      "inputs": [
        {
          "indexed": true,
          "internalType": "address",
          "name": "from",
          "type": "address"
        },
        {
          "indexed": true,
          "internalType": "address",
          "name": "to",
          "type": "address"
        },
        {
          "indexed": true,
          "internalType": "uint256",
          "name": "tokenId",
          "type": "uint256"
        }
      ],
      "name": "Transfer",
      "type": "event"
    },
    {
      "inputs": [
        {
          "internalType": "address",
          "name": "to",
          "type": "address"
        },
        {
          "internalType": "uint256",
          "name": "tokenId",
          "type": "uint256"
        }
      ],
      "name": "approve",
      "outputs": [],
      "stateMutability": "nonpayable",
      "type": "function"
    },
    {
      "inputs": [
        {
          "internalType": "address",
          "name": "owner",
          "type": "address"
        }
      ],
      "name": "balanceOf",
      "outputs": [
        {
          "internalType": "uint256",
          "name": "",
          "type": "uint256"
        }
      ],
      "stateMutability": "view",
      "type": "function"
    },
    {
      "inputs": [],
      "name": "getAllOrganizations",
      "outputs": [
        {
          "components": [
            {
              "internalType": "string",
              "name": "name",
              "type": "string"
            },
            {
              "internalType": "string",
              "name": "description",
              "type": "string"
            },
            {
              "internalType": "address",
              "name": "addressOfOrg",
              "type": "address"
            },
            {
              "internalType": "uint256",
              "name": "funds",
              "type": "uint256"
            }
          ],
          "internalType": "struct OrganizationNFT.Organization[]",
          "name": "",
          "type": "tuple[]"
        }
      ],
      "stateMutability": "view",
      "type": "function"
    },
    {
      "inputs": [
        {
          "internalType": "uint256",
          "name": "tokenId",
          "type": "uint256"
        }
      ],
      "name": "getApproved",
      "outputs": [
        {
          "internalType": "address",
          "name": "",
          "type": "address"
        }
      ],
      "stateMutability": "view",
      "type": "function"
    },
    {
      "inputs": [
        {
          "internalType": "uint256",
          "name": "_organizationId",
          "type": "uint256"
        }
      ],
      "name": "getOrganizationDetails",
      "outputs": [
        {
          "internalType": "string",
          "name": "name",
          "type": "string"
        },
        {
          "internalType": "string",
          "name": "description",
          "type": "string"
        },
        {
          "internalType": "address",
          "name": "addressOfOrg",
          "type": "address"
        },
        {
          "internalType": "uint256",
          "name": "funds",
          "type": "uint256"
        }
      ],
      "stateMutability": "view",
      "type": "function"
    },
    {
      "inputs": [
        {
          "internalType": "address",
          "name": "_walletAddress",
          "type": "address"
        }
      ],
      "name": "getOrganizationsByAddress",
      "outputs": [
        {
          "components": [
            {
              "internalType": "string",
              "name": "name",
              "type": "string"
            },
            {
              "internalType": "string",
              "name": "description",
              "type": "string"
            },
            {
              "internalType": "address",
              "name": "addressOfOrg",
              "type": "address"
            },
            {
              "internalType": "uint256",
              "name": "funds",
              "type": "uint256"
            }
          ],
          "internalType": "struct OrganizationNFT.Organization[]",
          "name": "",
          "type": "tuple[]"
        }
      ],
      "stateMutability": "view",
      "type": "function"
    },
    {
      "inputs": [
        {
          "internalType": "address",
          "name": "owner",
          "type": "address"
        },
        {
          "internalType": "address",
          "name": "operator",
          "type": "address"
        }
      ],
      "name": "isApprovedForAll",
      "outputs": [
        {
          "internalType": "bool",
          "name": "",
          "type": "bool"
        }
      ],
      "stateMutability": "view",
      "type": "function"
    },
    {
      "inputs": [],
      "name": "name",
      "outputs": [
        {
          "internalType": "string",
          "name": "",
          "type": "string"
        }
      ],
      "stateMutability": "view",
      "type": "function"
    },
    {
      "inputs": [],
      "name": "owner",
      "outputs": [
        {
          "internalType": "address",
          "name": "",
          "type": "address"
        }
      ],
      "stateMutability": "view",
      "type": "function"
    },
    {
      "inputs": [
        {
          "internalType": "uint256",
          "name": "tokenId",
          "type": "uint256"
        }
      ],
      "name": "ownerOf",
      "outputs": [
        {
          "internalType": "address",
          "name": "",
          "type": "address"
        }
      ],
      "stateMutability": "view",
      "type": "function"
    },
    {
      "inputs": [
        {
          "internalType": "string",
          "name": "_name",
          "type": "string"
        },
        {
          "internalType": "string",
          "name": "_description",
          "type": "string"
        },
        {
          "internalType": "address",
          "name": "_addressOfOrg",
          "type": "address"
        }
      ],
      "name": "registerOrganization",
      "outputs": [],
      "stateMutability": "nonpayable",
      "type": "function"
    },
    {
      "inputs": [],
      "name": "renounceOwnership",
      "outputs": [],
      "stateMutability": "nonpayable",
      "type": "function"
    },
    {
      "inputs": [
        {
          "internalType": "address",
          "name": "from",
          "type": "address"
        },
        {
          "internalType": "address",
          "name": "to",
          "type": "address"
        },
        {
          "internalType": "uint256",
          "name": "tokenId",
          "type": "uint256"
        }
      ],
      "name": "safeTransferFrom",
      "outputs": [],
      "stateMutability": "nonpayable",
      "type": "function"
    },
    {
      "inputs": [
        {
          "internalType": "address",
          "name": "from",
          "type": "address"
        },
        {
          "internalType": "address",
          "name": "to",
          "type": "address"
        },
        {
          "internalType": "uint256",
          "name": "tokenId",
          "type": "uint256"
        },
        {
          "internalType": "bytes",
          "name": "data",
          "type": "bytes"
        }
      ],
      "name": "safeTransferFrom",
      "outputs": [],
      "stateMutability": "nonpayable",
      "type": "function"
    },
    {
      "inputs": [
        {
          "internalType": "uint256",
          "name": "_organizationId",
          "type": "uint256"
        }
      ],
      "name": "sendFunds",
      "outputs": [],
      "stateMutability": "payable",
      "type": "function"
    },
    {
      "inputs": [
        {
          "internalType": "address",
          "name": "_recipient",
          "type": "address"
        },
        {
          "internalType": "uint256",
          "name": "_amount",
          "type": "uint256"
        }
      ],
      "name": "sendFundsToAccount",
      "outputs": [],
      "stateMutability": "nonpayable",
      "type": "function"
    },
    {
      "inputs": [
        {
          "internalType": "address",
          "name": "operator",
          "type": "address"
        },
        {
          "internalType": "bool",
          "name": "approved",
          "type": "bool"
        }
      ],
      "name": "setApprovalForAll",
      "outputs": [],
      "stateMutability": "nonpayable",
      "type": "function"
    },
    {
      "inputs": [
        {
          "internalType": "bytes4",
          "name": "interfaceId",
          "type": "bytes4"
        }
      ],
      "name": "supportsInterface",
      "outputs": [
        {
          "internalType": "bool",
          "name": "",
          "type": "bool"
        }
      ],
      "stateMutability": "view",
      "type": "function"
    },
    {
      "inputs": [],
      "name": "symbol",
      "outputs": [
        {
          "internalType": "string",
          "name": "",
          "type": "string"
        }
      ],
      "stateMutability": "view",
      "type": "function"
    },
    {
      "inputs": [
        {
          "internalType": "uint256",
          "name": "tokenId",
          "type": "uint256"
        }
      ],
      "name": "tokenURI",
      "outputs": [
        {
          "internalType": "string",
          "name": "",
          "type": "string"
        }
      ],
      "stateMutability": "view",
      "type": "function"
    },
    {
      "inputs": [
        {
          "internalType": "address",
          "name": "from",
          "type": "address"
        },
        {
          "internalType": "address",
          "name": "to",
          "type": "address"
        },
        {
          "internalType": "uint256",
          "name": "tokenId",
          "type": "uint256"
        }
      ],
      "name": "transferFrom",
      "outputs": [],
      "stateMutability": "nonpayable",
      "type": "function"
    },
    {
      "inputs": [
        {
          "internalType": "address",
          "name": "newOwner",
          "type": "address"
        }
      ],
      "name": "transferOwnership",
      "outputs": [],
      "stateMutability": "nonpayable",
      "type": "function"
    }
  ],
  "bytecode": "0x60806040523480156200001157600080fd5b506040518060400160405280600f81526020017f4f7267616e697a6174696f6e4e465400000000000000000000000000000000008152506040518060400160405280600381526020017f4f5247000000000000000000000000000000000000000000000000000000000081525081600090816200008f919062000412565b508060019081620000a1919062000412565b505050620000c4620000b8620000ca60201b60201c565b620000d260201b60201c565b620004f9565b600033905090565b6000600660009054906101000a900473ffffffffffffffffffffffffffffffffffffffff16905081600660006101000a81548173ffffffffffffffffffffffffffffffffffffffff021916908373ffffffffffffffffffffffffffffffffffffffff1602179055508173ffffffffffffffffffffffffffffffffffffffff168173ffffffffffffffffffffffffffffffffffffffff167f8be0079c531659141344cd1fd0a4f28419497f9722a3daafe3b4186f6b6457e060405160405180910390a35050565b600081519050919050565b7f4e487b7100000000000000000000000000000000000000000000000000000000600052604160045260246000fd5b7f4e487b7100000000000000000000000000000000000000000000000000000000600052602260045260246000fd5b600060028204905060018216806200021a57607f821691505b60208210810362000230576200022f620001d2565b5b50919050565b60008190508160005260206000209050919050565b60006020601f8301049050919050565b600082821b905092915050565b6000600883026200029a7fffffffffffffffffffffffffffffffffffffffffffffffffffffffffffffffff826200025b565b620002a686836200025b565b95508019841693508086168417925050509392505050565b6000819050919050565b6000819050919050565b6000620002f3620002ed620002e784620002be565b620002c8565b620002be565b9050919050565b6000819050919050565b6200030f83620002d2565b620003276200031e82620002fa565b84845462000268565b825550505050565b600090565b6200033e6200032f565b6200034b81848462000304565b505050565b5b8181101562000373576200036760008262000334565b60018101905062000351565b5050565b601f821115620003c2576200038c8162000236565b62000397846200024b565b81016020851015620003a7578190505b620003bf620003b6856200024b565b83018262000350565b50505b505050565b600082821c905092915050565b6000620003e760001984600802620003c7565b1980831691505092915050565b6000620004028383620003d4565b9150826002028217905092915050565b6200041d8262000198565b67ffffffffffffffff811115620004395762000438620001a3565b5b62000445825462000201565b6200045282828562000377565b600060209050601f8311600181146200048a576000841562000475578287015190505b620004818582620003f4565b865550620004f1565b601f1984166200049a8662000236565b60005b82811015620004c4578489015182556001820191506020850194506020810190506200049d565b86831015620004e45784890151620004e0601f891682620003d4565b8355505b6001600288020188555050505b505050505050565b61413b80620005096000396000f3fe6080604052600436106101355760003560e01c8063715018a6116100ab578063a22cb4651161006f578063a22cb4651461042e578063b88d4fde14610457578063c87b56dd14610480578063cef3db87146104bd578063e985e9c5146104e6578063f2fde38b1461052357610135565b8063715018a61461036557806379bb57b41461037c5780638b281018146103bc5780638da5cb5b146103d857806395d89b411461040357610135565b806316b0b83a116100fd57806316b0b83a1461023357806323b872dd1461025c57806342842e0e146102855780635adc8443146102ae5780636352211e146102eb57806370a082311461032857610135565b806301ffc9a71461013a57806306fdde0314610177578063081812fc146101a2578063086ed938146101df578063095ea7b31461020a575b600080fd5b34801561014657600080fd5b50610161600480360381019061015c919061284a565b61054c565b60405161016e9190612892565b60405180910390f35b34801561018357600080fd5b5061018c61062e565b604051610199919061293d565b60405180910390f35b3480156101ae57600080fd5b506101c960048036038101906101c49190612995565b6106c0565b6040516101d69190612a03565b60405180910390f35b3480156101eb57600080fd5b506101f4610706565b6040516102019190612bb2565b60405180910390f35b34801561021657600080fd5b50610231600480360381019061022c9190612c00565b61095e565b005b34801561023f57600080fd5b5061025a60048036038101906102559190612d75565b610a75565b005b34801561026857600080fd5b50610283600480360381019061027e9190612e00565b610c2d565b005b34801561029157600080fd5b506102ac60048036038101906102a79190612e00565b610c8d565b005b3480156102ba57600080fd5b506102d560048036038101906102d09190612e53565b610cad565b6040516102e29190612bb2565b60405180910390f35b3480156102f757600080fd5b50610312600480360381019061030d9190612995565b610f12565b60405161031f9190612a03565b60405180910390f35b34801561033457600080fd5b5061034f600480360381019061034a9190612e53565b610f98565b60405161035c9190612e8f565b60405180910390f35b34801561037157600080fd5b5061037a61104f565b005b34801561038857600080fd5b506103a3600480360381019061039e9190612995565b611063565b6040516103b39493929190612eaa565b60405180910390f35b6103d660048036038101906103d19190612995565b6111da565b005b3480156103e457600080fd5b506103ed61131f565b6040516103fa9190612a03565b60405180910390f35b34801561040f57600080fd5b50610418611349565b604051610425919061293d565b60405180910390f35b34801561043a57600080fd5b5061045560048036038101906104509190612f29565b6113db565b005b34801561046357600080fd5b5061047e6004803603810190610479919061300a565b6113f1565b005b34801561048c57600080fd5b506104a760048036038101906104a29190612995565b611453565b6040516104b4919061293d565b60405180910390f35b3480156104c957600080fd5b506104e460048036038101906104df9190612c00565b6114bb565b005b3480156104f257600080fd5b5061050d6004803603810190610508919061308d565b61166d565b60405161051a9190612892565b60405180910390f35b34801561052f57600080fd5b5061054a60048036038101906105459190612e53565b611701565b005b60007f80ac58cd000000000000000000000000000000000000000000000000000000007bffffffffffffffffffffffffffffffffffffffffffffffffffffffff1916827bffffffffffffffffffffffffffffffffffffffffffffffffffffffff1916148061061757507f5b5e139f000000000000000000000000000000000000000000000000000000007bffffffffffffffffffffffffffffffffffffffffffffffffffffffff1916827bffffffffffffffffffffffffffffffffffffffffffffffffffffffff1916145b80610627575061062682611784565b5b9050919050565b60606000805461063d906130fc565b80601f0160208091040260200160405190810160405280929190818152602001828054610669906130fc565b80156106b65780601f1061068b576101008083540402835291602001916106b6565b820191906000526020600020905b81548152906001019060200180831161069957829003601f168201915b5050505050905090565b60006106cb826117ee565b6004600083815260200190815260200160002060009054906101000a900473ffffffffffffffffffffffffffffffffffffffff169050919050565b606060006107146007611839565b67ffffffffffffffff81111561072d5761072c612c4a565b5b60405190808252806020026020018201604052801561076657816020015b6107536127a0565b81526020019060019003908161074b5790505b50905060005b6107766007611839565b811015610956576000600860008381526020019081526020016000209050806040518060800160405290816000820180546107b0906130fc565b80601f01602080910402602001604051908101604052809291908181526020018280546107dc906130fc565b80156108295780601f106107fe57610100808354040283529160200191610829565b820191906000526020600020905b81548152906001019060200180831161080c57829003601f168201915b50505050508152602001600182018054610842906130fc565b80601f016020809104026020016040519081016040528092919081815260200182805461086e906130fc565b80156108bb5780601f10610890576101008083540402835291602001916108bb565b820191906000526020600020905b81548152906001019060200180831161089e57829003601f168201915b505050505081526020016002820160009054906101000a900473ffffffffffffffffffffffffffffffffffffffff1673ffffffffffffffffffffffffffffffffffffffff1673ffffffffffffffffffffffffffffffffffffffff1681526020016003820154815250508383815181106109375761093661312d565b5b602002602001018190525050808061094e9061318b565b91505061076c565b508091505090565b600061096982610f12565b90508073ffffffffffffffffffffffffffffffffffffffff168373ffffffffffffffffffffffffffffffffffffffff16036109d9576040517f08c379a00000000000000000000000000000000000000000000000000000000081526004016109d090613245565b60405180910390fd5b8073ffffffffffffffffffffffffffffffffffffffff166109f8611847565b73ffffffffffffffffffffffffffffffffffffffff161480610a275750610a2681610a21611847565b61166d565b5b610a66576040517f08c379a0000000000000000000000000000000000000000000000000000000008152600401610a5d906132d7565b60405180910390fd5b610a70838361184f565b505050565b6000835111610ab9576040517f08c379a0000000000000000000000000000000000000000000000000000000008152600401610ab090613369565b60405180910390fd5b6000825111610afd576040517f08c379a0000000000000000000000000000000000000000000000000000000008152600401610af4906133fb565b60405180910390fd5b6000610b096007611839565b9050610b153382611908565b60405180608001604052808581526020018481526020018373ffffffffffffffffffffffffffffffffffffffff1681526020016000815250600860008381526020019081526020016000206000820151816000019081610b7591906135c7565b506020820151816001019081610b8b91906135c7565b5060408201518160020160006101000a81548173ffffffffffffffffffffffffffffffffffffffff021916908373ffffffffffffffffffffffffffffffffffffffff16021790555060608201518160030155905050610bea6007611926565b7f1b59cb07aaad770db0305f5e4d27126089195f397c006e05f80d1deaa7ba5ce881858585604051610c1f9493929190613699565b60405180910390a150505050565b610c3e610c38611847565b8261193c565b610c7d576040517f08c379a0000000000000000000000000000000000000000000000000000000008152600401610c749061375e565b60405180910390fd5b610c888383836119d1565b505050565b610ca8838383604051806020016040528060008152506113f1565b505050565b6060806000805b610cbe6007611839565b811015610f045760006008600083815260200190815260200160002090508573ffffffffffffffffffffffffffffffffffffffff168160020160009054906101000a900473ffffffffffffffffffffffffffffffffffffffff1673ffffffffffffffffffffffffffffffffffffffff1603610ef05780604051806080016040529081600082018054610d4f906130fc565b80601f0160208091040260200160405190810160405280929190818152602001828054610d7b906130fc565b8015610dc85780601f10610d9d57610100808354040283529160200191610dc8565b820191906000526020600020905b815481529060010190602001808311610dab57829003601f168201915b50505050508152602001600182018054610de1906130fc565b80601f0160208091040260200160405190810160405280929190818152602001828054610e0d906130fc565b8015610e5a5780601f10610e2f57610100808354040283529160200191610e5a565b820191906000526020600020905b815481529060010190602001808311610e3d57829003601f168201915b505050505081526020016002820160009054906101000a900473ffffffffffffffffffffffffffffffffffffffff1673ffffffffffffffffffffffffffffffffffffffff1673ffffffffffffffffffffffffffffffffffffffff168152602001600382015481525050848481518110610ed657610ed561312d565b5b60200260200101819052508280610eec9061318b565b9350505b508080610efc9061318b565b915050610cb4565b508082528192505050919050565b600080610f1e83611cca565b9050600073ffffffffffffffffffffffffffffffffffffffff168173ffffffffffffffffffffffffffffffffffffffff1603610f8f576040517f08c379a0000000000000000000000000000000000000000000000000000000008152600401610f86906137ca565b60405180910390fd5b80915050919050565b60008073ffffffffffffffffffffffffffffffffffffffff168273ffffffffffffffffffffffffffffffffffffffff1603611008576040517f08c379a0000000000000000000000000000000000000000000000000000000008152600401610fff9061385c565b60405180910390fd5b600360008373ffffffffffffffffffffffffffffffffffffffff1673ffffffffffffffffffffffffffffffffffffffff168152602001908152602001600020549050919050565b611057611d07565b6110616000611d85565b565b606080600080600060086000878152602001908152602001600020905080600001816001018260020160009054906101000a900473ffffffffffffffffffffffffffffffffffffffff1683600301548380546110be906130fc565b80601f01602080910402602001604051908101604052809291908181526020018280546110ea906130fc565b80156111375780601f1061110c57610100808354040283529160200191611137565b820191906000526020600020905b81548152906001019060200180831161111a57829003601f168201915b5050505050935082805461114a906130fc565b80601f0160208091040260200160405190810160405280929190818152602001828054611176906130fc565b80156111c35780601f10611198576101008083540402835291602001916111c3565b820191906000526020600020905b8154815290600101906020018083116111a657829003601f168201915b505050505092509450945094509450509193509193565b6000600860008381526020019081526020016000209050600073ffffffffffffffffffffffffffffffffffffffff168160020160009054906101000a900473ffffffffffffffffffffffffffffffffffffffff1673ffffffffffffffffffffffffffffffffffffffff1603611284576040517f08c379a000000000000000000000000000000000000000000000000000000000815260040161127b906138c8565b60405180910390fd5b600034116112c7576040517f08c379a00000000000000000000000000000000000000000000000000000000081526004016112be9061395a565b60405180910390fd5b348160030160008282546112db919061397a565b925050819055507f57bf3cddfdc9bdb5bb9d4311450aa25144bfed6df10d16986be7ee48558f283f82346040516113139291906139ae565b60405180910390a15050565b6000600660009054906101000a900473ffffffffffffffffffffffffffffffffffffffff16905090565b606060018054611358906130fc565b80601f0160208091040260200160405190810160405280929190818152602001828054611384906130fc565b80156113d15780601f106113a6576101008083540402835291602001916113d1565b820191906000526020600020905b8154815290600101906020018083116113b457829003601f168201915b5050505050905090565b6113ed6113e6611847565b8383611e4b565b5050565b6114026113fc611847565b8361193c565b611441576040517f08c379a00000000000000000000000000000000000000000000000000000000081526004016114389061375e565b60405180910390fd5b61144d84848484611fb7565b50505050565b606061145e826117ee565b6000611468612013565b9050600081511161148857604051806020016040528060008152506114b3565b806114928461202a565b6040516020016114a3929190613a13565b6040516020818303038152906040525b915050919050565b6114c4336120f8565b3373ffffffffffffffffffffffffffffffffffffffff166114e482610f12565b73ffffffffffffffffffffffffffffffffffffffff161461153a576040517f08c379a000000000000000000000000000000000000000000000000000000000815260040161153190613aa9565b60405180910390fd5b600060086000611549336120f8565b8152602001908152602001600020905082816003015410156115a0576040517f08c379a000000000000000000000000000000000000000000000000000000000815260040161159790613b15565b60405180910390fd5b8373ffffffffffffffffffffffffffffffffffffffff166108fc849081150290604051600060405180830381858888f193505050501580156115e6573d6000803e3d6000fd5b50828160030160008282546115fb9190613b35565b925050819055508373ffffffffffffffffffffffffffffffffffffffff163373ffffffffffffffffffffffffffffffffffffffff167fa8d7ac3496d95eb01aaa74f93561801a369f5067e6b6e0a8a0a97416e4f055a68560405161165f9190612e8f565b60405180910390a350505050565b6000600560008473ffffffffffffffffffffffffffffffffffffffff1673ffffffffffffffffffffffffffffffffffffffff16815260200190815260200160002060008373ffffffffffffffffffffffffffffffffffffffff1673ffffffffffffffffffffffffffffffffffffffff16815260200190815260200160002060009054906101000a900460ff16905092915050565b611709611d07565b600073ffffffffffffffffffffffffffffffffffffffff168173ffffffffffffffffffffffffffffffffffffffff1603611778576040517f08c379a000000000000000000000000000000000000000000000000000000000815260040161176f90613bdb565b60405180910390fd5b61178181611d85565b50565b60007f01ffc9a7000000000000000000000000000000000000000000000000000000007bffffffffffffffffffffffffffffffffffffffffffffffffffffffff1916827bffffffffffffffffffffffffffffffffffffffffffffffffffffffff1916149050919050565b6117f7816121de565b611836576040517f08c379a000000000000000000000000000000000000000000000000000000000815260040161182d906137ca565b60405180910390fd5b50565b600081600001549050919050565b600033905090565b816004600083815260200190815260200160002060006101000a81548173ffffffffffffffffffffffffffffffffffffffff021916908373ffffffffffffffffffffffffffffffffffffffff160217905550808273ffffffffffffffffffffffffffffffffffffffff166118c283610f12565b73ffffffffffffffffffffffffffffffffffffffff167f8c5be1e5ebec7d5bd14f71427d1e84f3dd0314c0f7b2291e5b200ac8c7c3b92560405160405180910390a45050565b61192282826040518060200160405280600081525061221f565b5050565b6001816000016000828254019250508190555050565b60008061194883610f12565b90508073ffffffffffffffffffffffffffffffffffffffff168473ffffffffffffffffffffffffffffffffffffffff16148061198a5750611989818561166d565b5b806119c857508373ffffffffffffffffffffffffffffffffffffffff166119b0846106c0565b73ffffffffffffffffffffffffffffffffffffffff16145b91505092915050565b8273ffffffffffffffffffffffffffffffffffffffff166119f182610f12565b73ffffffffffffffffffffffffffffffffffffffff1614611a47576040517f08c379a0000000000000000000000000000000000000000000000000000000008152600401611a3e90613c6d565b60405180910390fd5b600073ffffffffffffffffffffffffffffffffffffffff168273ffffffffffffffffffffffffffffffffffffffff1603611ab6576040517f08c379a0000000000000000000000000000000000000000000000000000000008152600401611aad90613cff565b60405180910390fd5b611ac3838383600161227a565b8273ffffffffffffffffffffffffffffffffffffffff16611ae382610f12565b73ffffffffffffffffffffffffffffffffffffffff1614611b39576040517f08c379a0000000000000000000000000000000000000000000000000000000008152600401611b3090613c6d565b60405180910390fd5b6004600082815260200190815260200160002060006101000a81549073ffffffffffffffffffffffffffffffffffffffff02191690556001600360008573ffffffffffffffffffffffffffffffffffffffff1673ffffffffffffffffffffffffffffffffffffffff168152602001908152602001600020600082825403925050819055506001600360008473ffffffffffffffffffffffffffffffffffffffff1673ffffffffffffffffffffffffffffffffffffffff16815260200190815260200160002060008282540192505081905550816002600083815260200190815260200160002060006101000a81548173ffffffffffffffffffffffffffffffffffffffff021916908373ffffffffffffffffffffffffffffffffffffffff160217905550808273ffffffffffffffffffffffffffffffffffffffff168473ffffffffffffffffffffffffffffffffffffffff167fddf252ad1be2c89b69c2b068fc378daa952ba7f163c4a11628f55a4df523b3ef60405160405180910390a4611cc58383836001612280565b505050565b60006002600083815260200190815260200160002060009054906101000a900473ffffffffffffffffffffffffffffffffffffffff169050919050565b611d0f611847565b73ffffffffffffffffffffffffffffffffffffffff16611d2d61131f565b73ffffffffffffffffffffffffffffffffffffffff1614611d83576040517f08c379a0000000000000000000000000000000000000000000000000000000008152600401611d7a90613d6b565b60405180910390fd5b565b6000600660009054906101000a900473ffffffffffffffffffffffffffffffffffffffff16905081600660006101000a81548173ffffffffffffffffffffffffffffffffffffffff021916908373ffffffffffffffffffffffffffffffffffffffff1602179055508173ffffffffffffffffffffffffffffffffffffffff168173ffffffffffffffffffffffffffffffffffffffff167f8be0079c531659141344cd1fd0a4f28419497f9722a3daafe3b4186f6b6457e060405160405180910390a35050565b8173ffffffffffffffffffffffffffffffffffffffff168373ffffffffffffffffffffffffffffffffffffffff1603611eb9576040517f08c379a0000000000000000000000000000000000000000000000000000000008152600401611eb090613dd7565b60405180910390fd5b80600560008573ffffffffffffffffffffffffffffffffffffffff1673ffffffffffffffffffffffffffffffffffffffff16815260200190815260200160002060008473ffffffffffffffffffffffffffffffffffffffff1673ffffffffffffffffffffffffffffffffffffffff16815260200190815260200160002060006101000a81548160ff0219169083151502179055508173ffffffffffffffffffffffffffffffffffffffff168373ffffffffffffffffffffffffffffffffffffffff167f17307eab39ab6107e8899845ad3d59bd9653f200f220920489ca2b5937696c3183604051611faa9190612892565b60405180910390a3505050565b611fc28484846119d1565b611fce84848484612286565b61200d576040517f08c379a000000000000000000000000000000000000000000000000000000000815260040161200490613e69565b60405180910390fd5b50505050565b606060405180602001604052806000815250905090565b6060600060016120398461240d565b01905060008167ffffffffffffffff81111561205857612057612c4a565b5b6040519080825280601f01601f19166020018201604052801561208a5781602001600182028036833780820191505090505b509050600082602001820190505b6001156120ed578080600190039150507f3031323334353637383961626364656600000000000000000000000000000000600a86061a8153600a85816120e1576120e0613e89565b5b04945060008503612098575b819350505050919050565b600080600090505b61210a6007611839565b81101561219d5760006008600083815260200190815260200160002090508373ffffffffffffffffffffffffffffffffffffffff168160020160009054906101000a900473ffffffffffffffffffffffffffffffffffffffff1673ffffffffffffffffffffffffffffffffffffffff16036121895781925050506121d9565b5080806121959061318b565b915050612100565b506040517f08c379a00000000000000000000000000000000000000000000000000000000081526004016121d090613f2a565b60405180910390fd5b919050565b60008073ffffffffffffffffffffffffffffffffffffffff1661220083611cca565b73ffffffffffffffffffffffffffffffffffffffff1614159050919050565b6122298383612560565b6122366000848484612286565b612275576040517f08c379a000000000000000000000000000000000000000000000000000000000815260040161226c90613e69565b60405180910390fd5b505050565b50505050565b50505050565b60006122a78473ffffffffffffffffffffffffffffffffffffffff1661277d565b15612400578373ffffffffffffffffffffffffffffffffffffffff1663150b7a026122d0611847565b8786866040518563ffffffff1660e01b81526004016122f29493929190613f9f565b6020604051808303816000875af192505050801561232e57506040513d601f19601f8201168201806040525081019061232b9190614000565b60015b6123b0573d806000811461235e576040519150601f19603f3d011682016040523d82523d6000602084013e612363565b606091505b5060008151036123a8576040517f08c379a000000000000000000000000000000000000000000000000000000000815260040161239f90613e69565b60405180910390fd5b805181602001fd5b63150b7a0260e01b7bffffffffffffffffffffffffffffffffffffffffffffffffffffffff1916817bffffffffffffffffffffffffffffffffffffffffffffffffffffffff191614915050612405565b600190505b949350505050565b600080600090507a184f03e93ff9f4daa797ed6e38ed64bf6a1f010000000000000000831061246b577a184f03e93ff9f4daa797ed6e38ed64bf6a1f010000000000000000838161246157612460613e89565b5b0492506040810190505b6d04ee2d6d415b85acef810000000083106124a8576d04ee2d6d415b85acef8100000000838161249e5761249d613e89565b5b0492506020810190505b662386f26fc1000083106124d757662386f26fc1000083816124cd576124cc613e89565b5b0492506010810190505b6305f5e1008310612500576305f5e10083816124f6576124f5613e89565b5b0492506008810190505b612710831061252557612710838161251b5761251a613e89565b5b0492506004810190505b60648310612548576064838161253e5761253d613e89565b5b0492506002810190505b600a8310612557576001810190505b80915050919050565b600073ffffffffffffffffffffffffffffffffffffffff168273ffffffffffffffffffffffffffffffffffffffff16036125cf576040517f08c379a00000000000000000000000000000000000000000000000000000000081526004016125c690614079565b60405180910390fd5b6125d8816121de565b15612618576040517f08c379a000000000000000000000000000000000000000000000000000000000815260040161260f906140e5565b60405180910390fd5b61262660008383600161227a565b61262f816121de565b1561266f576040517f08c379a0000000000000000000000000000000000000000000000000000000008152600401612666906140e5565b60405180910390fd5b6001600360008473ffffffffffffffffffffffffffffffffffffffff1673ffffffffffffffffffffffffffffffffffffffff16815260200190815260200160002060008282540192505081905550816002600083815260200190815260200160002060006101000a81548173ffffffffffffffffffffffffffffffffffffffff021916908373ffffffffffffffffffffffffffffffffffffffff160217905550808273ffffffffffffffffffffffffffffffffffffffff16600073ffffffffffffffffffffffffffffffffffffffff167fddf252ad1be2c89b69c2b068fc378daa952ba7f163c4a11628f55a4df523b3ef60405160405180910390a4612779600083836001612280565b5050565b6000808273ffffffffffffffffffffffffffffffffffffffff163b119050919050565b60405180608001604052806060815260200160608152602001600073ffffffffffffffffffffffffffffffffffffffff168152602001600081525090565b6000604051905090565b600080fd5b600080fd5b60007fffffffff0000000000000000000000000000000000000000000000000000000082169050919050565b612827816127f2565b811461283257600080fd5b50565b6000813590506128448161281e565b92915050565b6000602082840312156128605761285f6127e8565b5b600061286e84828501612835565b91505092915050565b60008115159050919050565b61288c81612877565b82525050565b60006020820190506128a76000830184612883565b92915050565b600081519050919050565b600082825260208201905092915050565b60005b838110156128e75780820151818401526020810190506128cc565b60008484015250505050565b6000601f19601f8301169050919050565b600061290f826128ad565b61291981856128b8565b93506129298185602086016128c9565b612932816128f3565b840191505092915050565b600060208201905081810360008301526129578184612904565b905092915050565b6000819050919050565b6129728161295f565b811461297d57600080fd5b50565b60008135905061298f81612969565b92915050565b6000602082840312156129ab576129aa6127e8565b5b60006129b984828501612980565b91505092915050565b600073ffffffffffffffffffffffffffffffffffffffff82169050919050565b60006129ed826129c2565b9050919050565b6129fd816129e2565b82525050565b6000602082019050612a1860008301846129f4565b92915050565b600081519050919050565b600082825260208201905092915050565b6000819050602082019050919050565b600082825260208201905092915050565b6000612a66826128ad565b612a708185612a4a565b9350612a808185602086016128c9565b612a89816128f3565b840191505092915050565b612a9d816129e2565b82525050565b612aac8161295f565b82525050565b60006080830160008301518482036000860152612acf8282612a5b565b91505060208301518482036020860152612ae98282612a5b565b9150506040830151612afe6040860182612a94565b506060830151612b116060860182612aa3565b508091505092915050565b6000612b288383612ab2565b905092915050565b6000602082019050919050565b6000612b4882612a1e565b612b528185612a29565b935083602082028501612b6485612a3a565b8060005b85811015612ba05784840389528151612b818582612b1c565b9450612b8c83612b30565b925060208a01995050600181019050612b68565b50829750879550505050505092915050565b60006020820190508181036000830152612bcc8184612b3d565b905092915050565b612bdd816129e2565b8114612be857600080fd5b50565b600081359050612bfa81612bd4565b92915050565b60008060408385031215612c1757612c166127e8565b5b6000612c2585828601612beb565b9250506020612c3685828601612980565b9150509250929050565b600080fd5b600080fd5b7f4e487b7100000000000000000000000000000000000000000000000000000000600052604160045260246000fd5b612c82826128f3565b810181811067ffffffffffffffff82111715612ca157612ca0612c4a565b5b80604052505050565b6000612cb46127de565b9050612cc08282612c79565b919050565b600067ffffffffffffffff821115612ce057612cdf612c4a565b5b612ce9826128f3565b9050602081019050919050565b82818337600083830152505050565b6000612d18612d1384612cc5565b612caa565b905082815260208101848484011115612d3457612d33612c45565b5b612d3f848285612cf6565b509392505050565b600082601f830112612d5c57612d5b612c40565b5b8135612d6c848260208601612d05565b91505092915050565b600080600060608486031215612d8e57612d8d6127e8565b5b600084013567ffffffffffffffff811115612dac57612dab6127ed565b5b612db886828701612d47565b935050602084013567ffffffffffffffff811115612dd957612dd86127ed565b5b612de586828701612d47565b9250506040612df686828701612beb565b9150509250925092565b600080600060608486031215612e1957612e186127e8565b5b6000612e2786828701612beb565b9350506020612e3886828701612beb565b9250506040612e4986828701612980565b9150509250925092565b600060208284031215612e6957612e686127e8565b5b6000612e7784828501612beb565b91505092915050565b612e898161295f565b82525050565b6000602082019050612ea46000830184612e80565b92915050565b60006080820190508181036000830152612ec48187612904565b90508181036020830152612ed88186612904565b9050612ee760408301856129f4565b612ef46060830184612e80565b95945050505050565b612f0681612877565b8114612f1157600080fd5b50565b600081359050612f2381612efd565b92915050565b60008060408385031215612f4057612f3f6127e8565b5b6000612f4e85828601612beb565b9250506020612f5f85828601612f14565b9150509250929050565b600067ffffffffffffffff821115612f8457612f83612c4a565b5b612f8d826128f3565b9050602081019050919050565b6000612fad612fa884612f69565b612caa565b905082815260208101848484011115612fc957612fc8612c45565b5b612fd4848285612cf6565b509392505050565b600082601f830112612ff157612ff0612c40565b5b8135613001848260208601612f9a565b91505092915050565b60008060008060808587031215613024576130236127e8565b5b600061303287828801612beb565b945050602061304387828801612beb565b935050604061305487828801612980565b925050606085013567ffffffffffffffff811115613075576130746127ed565b5b61308187828801612fdc565b91505092959194509250565b600080604083850312156130a4576130a36127e8565b5b60006130b285828601612beb565b92505060206130c385828601612beb565b9150509250929050565b7f4e487b7100000000000000000000000000000000000000000000000000000000600052602260045260246000fd5b6000600282049050600182168061311457607f821691505b602082108103613127576131266130cd565b5b50919050565b7f4e487b7100000000000000000000000000000000000000000000000000000000600052603260045260246000fd5b7f4e487b7100000000000000000000000000000000000000000000000000000000600052601160045260246000fd5b60006131968261295f565b91507fffffffffffffffffffffffffffffffffffffffffffffffffffffffffffffffff82036131c8576131c761315c565b5b600182019050919050565b7f4552433732313a20617070726f76616c20746f2063757272656e74206f776e6560008201527f7200000000000000000000000000000000000000000000000000000000000000602082015250565b600061322f6021836128b8565b915061323a826131d3565b604082019050919050565b6000602082019050818103600083015261325e81613222565b9050919050565b7f4552433732313a20617070726f76652063616c6c6572206973206e6f7420746f60008201527f6b656e206f776e6572206f7220617070726f76656420666f7220616c6c000000602082015250565b60006132c1603d836128b8565b91506132cc82613265565b604082019050919050565b600060208201905081810360008301526132f0816132b4565b9050919050565b7f4f7267616e697a6174696f6e206e616d652063616e6e6f7420626520656d707460008201527f7900000000000000000000000000000000000000000000000000000000000000602082015250565b60006133536021836128b8565b915061335e826132f7565b604082019050919050565b6000602082019050818103600083015261338281613346565b9050919050565b7f4f7267616e697a6174696f6e206465736372697074696f6e2063616e6e6f742060008201527f626520656d707479000000000000000000000000000000000000000000000000602082015250565b60006133e56028836128b8565b91506133f082613389565b604082019050919050565b60006020820190508181036000830152613414816133d8565b9050919050565b60008190508160005260206000209050919050565b60006020601f8301049050919050565b600082821b905092915050565b60006008830261347d7fffffffffffffffffffffffffffffffffffffffffffffffffffffffffffffffff82613440565b6134878683613440565b95508019841693508086168417925050509392505050565b6000819050919050565b60006134c46134bf6134ba8461295f565b61349f565b61295f565b9050919050565b6000819050919050565b6134de836134a9565b6134f26134ea826134cb565b84845461344d565b825550505050565b600090565b6135076134fa565b6135128184846134d5565b505050565b5b818110156135365761352b6000826134ff565b600181019050613518565b5050565b601f82111561357b5761354c8161341b565b61355584613430565b81016020851015613564578190505b61357861357085613430565b830182613517565b50505b505050565b600082821c905092915050565b600061359e60001984600802613580565b1980831691505092915050565b60006135b7838361358d565b9150826002028217905092915050565b6135d0826128ad565b67ffffffffffffffff8111156135e9576135e8612c4a565b5b6135f382546130fc565b6135fe82828561353a565b600060209050601f831160018114613631576000841561361f578287015190505b61362985826135ab565b865550613691565b601f19841661363f8661341b565b60005b8281101561366757848901518255600182019150602085019450602081019050613642565b868310156136845784890151613680601f89168261358d565b8355505b6001600288020188555050505b505050505050565b60006080820190506136ae6000830187612e80565b81810360208301526136c08186612904565b905081810360408301526136d48185612904565b90506136e360608301846129f4565b95945050505050565b7f4552433732313a2063616c6c6572206973206e6f7420746f6b656e206f776e6560008201527f72206f7220617070726f76656400000000000000000000000000000000000000602082015250565b6000613748602d836128b8565b9150613753826136ec565b604082019050919050565b600060208201905081810360008301526137778161373b565b9050919050565b7f4552433732313a20696e76616c696420746f6b656e2049440000000000000000600082015250565b60006137b46018836128b8565b91506137bf8261377e565b602082019050919050565b600060208201905081810360008301526137e3816137a7565b9050919050565b7f4552433732313a2061646472657373207a65726f206973206e6f74206120766160008201527f6c6964206f776e65720000000000000000000000000000000000000000000000602082015250565b60006138466029836128b8565b9150613851826137ea565b604082019050919050565b6000602082019050818103600083015261387581613839565b9050919050565b7f4f7267616e697a6174696f6e20646f6573206e6f742065786973740000000000600082015250565b60006138b2601b836128b8565b91506138bd8261387c565b602082019050919050565b600060208201905081810360008301526138e1816138a5565b9050919050565b7f53656e742066756e6473206d7573742062652067726561746572207468616e2060008201527f3000000000000000000000000000000000000000000000000000000000000000602082015250565b60006139446021836128b8565b915061394f826138e8565b604082019050919050565b6000602082019050818103600083015261397381613937565b9050919050565b60006139858261295f565b91506139908361295f565b92508282019050808211156139a8576139a761315c565b5b92915050565b60006040820190506139c36000830185612e80565b6139d06020830184612e80565b9392505050565b600081905092915050565b60006139ed826128ad565b6139f781856139d7565b9350613a078185602086016128c9565b80840191505092915050565b6000613a1f82856139e2565b9150613a2b82846139e2565b91508190509392505050565b7f4e6f7420746865206f776e6572206f6620746865206f7267616e697a6174696f60008201527f6e00000000000000000000000000000000000000000000000000000000000000602082015250565b6000613a936021836128b8565b9150613a9e82613a37565b604082019050919050565b60006020820190508181036000830152613ac281613a86565b9050919050565b7f496e73756666696369656e742066756e64730000000000000000000000000000600082015250565b6000613aff6012836128b8565b9150613b0a82613ac9565b602082019050919050565b60006020820190508181036000830152613b2e81613af2565b9050919050565b6000613b408261295f565b9150613b4b8361295f565b9250828203905081811115613b6357613b6261315c565b5b92915050565b7f4f776e61626c653a206e6577206f776e657220697320746865207a65726f206160008201527f6464726573730000000000000000000000000000000000000000000000000000602082015250565b6000613bc56026836128b8565b9150613bd082613b69565b604082019050919050565b60006020820190508181036000830152613bf481613bb8565b9050919050565b7f4552433732313a207472616e736665722066726f6d20696e636f72726563742060008201527f6f776e6572000000000000000000000000000000000000000000000000000000602082015250565b6000613c576025836128b8565b9150613c6282613bfb565b604082019050919050565b60006020820190508181036000830152613c8681613c4a565b9050919050565b7f4552433732313a207472616e7366657220746f20746865207a65726f2061646460008201527f7265737300000000000000000000000000000000000000000000000000000000602082015250565b6000613ce96024836128b8565b9150613cf482613c8d565b604082019050919050565b60006020820190508181036000830152613d1881613cdc565b9050919050565b7f4f776e61626c653a2063616c6c6572206973206e6f7420746865206f776e6572600082015250565b6000613d556020836128b8565b9150613d6082613d1f565b602082019050919050565b60006020820190508181036000830152613d8481613d48565b9050919050565b7f4552433732313a20617070726f766520746f2063616c6c657200000000000000600082015250565b6000613dc16019836128b8565b9150613dcc82613d8b565b602082019050919050565b60006020820190508181036000830152613df081613db4565b9050919050565b7f4552433732313a207472616e7366657220746f206e6f6e20455243373231526560008201527f63656976657220696d706c656d656e7465720000000000000000000000000000602082015250565b6000613e536032836128b8565b9150613e5e82613df7565b604082019050919050565b60006020820190508181036000830152613e8281613e46565b9050919050565b7f4e487b7100000000000000000000000000000000000000000000000000000000600052601260045260246000fd5b7f4f7267616e697a6174696f6e206e6f7420666f756e6420666f7220746865206760008201527f6976656e20616464726573730000000000000000000000000000000000000000602082015250565b6000613f14602c836128b8565b9150613f1f82613eb8565b604082019050919050565b60006020820190508181036000830152613f4381613f07565b9050919050565b600081519050919050565b600082825260208201905092915050565b6000613f7182613f4a565b613f7b8185613f55565b9350613f8b8185602086016128c9565b613f94816128f3565b840191505092915050565b6000608082019050613fb460008301876129f4565b613fc160208301866129f4565b613fce6040830185612e80565b8181036060830152613fe08184613f66565b905095945050505050565b600081519050613ffa8161281e565b92915050565b600060208284031215614016576140156127e8565b5b600061402484828501613feb565b91505092915050565b7f4552433732313a206d696e7420746f20746865207a65726f2061646472657373600082015250565b60006140636020836128b8565b915061406e8261402d565b602082019050919050565b6000602082019050818103600083015261409281614056565b9050919050565b7f4552433732313a20746f6b656e20616c7265616479206d696e74656400000000600082015250565b60006140cf601c836128b8565b91506140da82614099565b602082019050919050565b600060208201905081810360008301526140fe816140c2565b905091905056fea2646970667358221220bb52b527b259d5c8100575c548e017d7cebb22d9149ed0138672621b0beb1fc264736f6c63430008110033",
  "linkReferences": {},
  "deployedLinkReferences": {}
}