{
  "_format": "hh-sol-artifact-1",
  "contractName": "OrganizationNFT",
  "sourceName": "contracts/contract.sol",
  "abi": [
    {
      "inputs": [],
      "stateMutability": "nonpayable",
      "type": "constructor"
    },
    {
      "anonymous": false,
      "inputs": [
        {
          "indexed": true,
          "internalType": "address",
          "name": "owner",
          "type": "address"
        },
        {
          "indexed": true,
          "internalType": "address",
          "name": "approved",
          "type": "address"
        },
        {
          "indexed": true,
          "internalType": "uint256",
          "name": "tokenId",
          "type": "uint256"
        }
      ],
      "name": "Approval",
      "type": "event"
    },
    {
      "anonymous": false,
      "inputs": [
        {
          "indexed": true,
          "internalType": "address",
          "name": "owner",
          "type": "address"
        },
        {
          "indexed": true,
          "internalType": "address",
          "name": "operator",
          "type": "address"
        },
        {
          "indexed": false,
          "internalType": "bool",
          "name": "approved",
          "type": "bool"
        }
      ],
      "name": "ApprovalForAll",
      "type": "event"
    },
    {
      "anonymous": false,
      "inputs": [
        {
          "indexed": false,
          "internalType": "uint256",
          "name": "organizationId",
          "type": "uint256"
        },
        {
          "indexed": false,
          "internalType": "uint256",
          "name": "amount",
          "type": "uint256"
        }
      ],
      "name": "FundsSent",
      "type": "event"
    },
    {
      "anonymous": false,
      "inputs": [
        {
          "indexed": false,
          "internalType": "uint256",
          "name": "organizationId",
          "type": "uint256"
        },
        {
          "indexed": false,
          "internalType": "string",
          "name": "name",
          "type": "string"
        },
        {
          "indexed": false,
          "internalType": "string",
          "name": "description",
          "type": "string"
        },
        {
          "indexed": false,
          "internalType": "address",
          "name": "addressOfOrg",
          "type": "address"
        }
      ],
      "name": "OrganizationRegistered",
      "type": "event"
    },
    {
      "anonymous": false,
      "inputs": [
        {
          "indexed": true,
          "internalType": "address",
          "name": "from",
          "type": "address"
        },
        {
          "indexed": true,
          "internalType": "address",
          "name": "to",
          "type": "address"
        },
        {
          "indexed": true,
          "internalType": "uint256",
          "name": "tokenId",
          "type": "uint256"
        }
      ],
      "name": "Transfer",
      "type": "event"
    },
    {
      "inputs": [
        {
          "internalType": "address",
          "name": "to",
          "type": "address"
        },
        {
          "internalType": "uint256",
          "name": "tokenId",
          "type": "uint256"
        }
      ],
      "name": "approve",
      "outputs": [],
      "stateMutability": "nonpayable",
      "type": "function"
    },
    {
      "inputs": [
        {
          "internalType": "address",
          "name": "owner",
          "type": "address"
        }
      ],
      "name": "balanceOf",
      "outputs": [
        {
          "internalType": "uint256",
          "name": "",
          "type": "uint256"
        }
      ],
      "stateMutability": "view",
      "type": "function"
    },
    {
      "inputs": [],
      "name": "getAllOrganizations",
      "outputs": [
        {
          "components": [
            {
              "internalType": "string",
              "name": "name",
              "type": "string"
            },
            {
              "internalType": "string",
              "name": "description",
              "type": "string"
            },
            {
              "internalType": "address",
              "name": "addressOfOrg",
              "type": "address"
            },
            {
              "internalType": "uint256",
              "name": "funds",
              "type": "uint256"
            }
          ],
          "internalType": "struct OrganizationNFT.Organization[]",
          "name": "",
          "type": "tuple[]"
        }
      ],
      "stateMutability": "view",
      "type": "function"
    },
    {
      "inputs": [
        {
          "internalType": "uint256",
          "name": "tokenId",
          "type": "uint256"
        }
      ],
      "name": "getApproved",
      "outputs": [
        {
          "internalType": "address",
          "name": "",
          "type": "address"
        }
      ],
      "stateMutability": "view",
      "type": "function"
    },
    {
      "inputs": [
        {
          "internalType": "uint256",
          "name": "_organizationId",
          "type": "uint256"
        }
      ],
      "name": "getOrganizationDetails",
      "outputs": [
        {
          "internalType": "string",
          "name": "name",
          "type": "string"
        },
        {
          "internalType": "string",
          "name": "description",
          "type": "string"
        },
        {
          "internalType": "address",
          "name": "addressOfOrg",
          "type": "address"
        },
        {
          "internalType": "uint256",
          "name": "funds",
          "type": "uint256"
        }
      ],
      "stateMutability": "view",
      "type": "function"
    },
    {
      "inputs": [
        {
          "internalType": "address",
          "name": "_walletAddress",
          "type": "address"
        }
      ],
      "name": "getOrganizationDetailsByAddress",
      "outputs": [
        {
          "internalType": "uint256",
          "name": "organizationId",
          "type": "uint256"
        },
        {
          "internalType": "string",
          "name": "name",
          "type": "string"
        },
        {
          "internalType": "string",
          "name": "description",
          "type": "string"
        },
        {
          "internalType": "uint256",
          "name": "funds",
          "type": "uint256"
        }
      ],
      "stateMutability": "view",
      "type": "function"
    },
    {
      "inputs": [
        {
          "internalType": "address",
          "name": "owner",
          "type": "address"
        },
        {
          "internalType": "address",
          "name": "operator",
          "type": "address"
        }
      ],
      "name": "isApprovedForAll",
      "outputs": [
        {
          "internalType": "bool",
          "name": "",
          "type": "bool"
        }
      ],
      "stateMutability": "view",
      "type": "function"
    },
    {
      "inputs": [],
      "name": "name",
      "outputs": [
        {
          "internalType": "string",
          "name": "",
          "type": "string"
        }
      ],
      "stateMutability": "view",
      "type": "function"
    },
    {
      "inputs": [
        {
          "internalType": "uint256",
          "name": "tokenId",
          "type": "uint256"
        }
      ],
      "name": "ownerOf",
      "outputs": [
        {
          "internalType": "address",
          "name": "",
          "type": "address"
        }
      ],
      "stateMutability": "view",
      "type": "function"
    },
    {
      "inputs": [
        {
          "internalType": "string",
          "name": "_name",
          "type": "string"
        },
        {
          "internalType": "string",
          "name": "_description",
          "type": "string"
        },
        {
          "internalType": "address",
          "name": "_addressOfOrg",
          "type": "address"
        }
      ],
      "name": "registerOrganization",
      "outputs": [],
      "stateMutability": "nonpayable",
      "type": "function"
    },
    {
      "inputs": [
        {
          "internalType": "address",
          "name": "from",
          "type": "address"
        },
        {
          "internalType": "address",
          "name": "to",
          "type": "address"
        },
        {
          "internalType": "uint256",
          "name": "tokenId",
          "type": "uint256"
        }
      ],
      "name": "safeTransferFrom",
      "outputs": [],
      "stateMutability": "nonpayable",
      "type": "function"
    },
    {
      "inputs": [
        {
          "internalType": "address",
          "name": "from",
          "type": "address"
        },
        {
          "internalType": "address",
          "name": "to",
          "type": "address"
        },
        {
          "internalType": "uint256",
          "name": "tokenId",
          "type": "uint256"
        },
        {
          "internalType": "bytes",
          "name": "data",
          "type": "bytes"
        }
      ],
      "name": "safeTransferFrom",
      "outputs": [],
      "stateMutability": "nonpayable",
      "type": "function"
    },
    {
      "inputs": [
        {
          "internalType": "uint256",
          "name": "_organizationId",
          "type": "uint256"
        }
      ],
      "name": "sendFunds",
      "outputs": [],
      "stateMutability": "payable",
      "type": "function"
    },
    {
      "inputs": [
        {
          "internalType": "address",
          "name": "operator",
          "type": "address"
        },
        {
          "internalType": "bool",
          "name": "approved",
          "type": "bool"
        }
      ],
      "name": "setApprovalForAll",
      "outputs": [],
      "stateMutability": "nonpayable",
      "type": "function"
    },
    {
      "inputs": [
        {
          "internalType": "bytes4",
          "name": "interfaceId",
          "type": "bytes4"
        }
      ],
      "name": "supportsInterface",
      "outputs": [
        {
          "internalType": "bool",
          "name": "",
          "type": "bool"
        }
      ],
      "stateMutability": "view",
      "type": "function"
    },
    {
      "inputs": [],
      "name": "symbol",
      "outputs": [
        {
          "internalType": "string",
          "name": "",
          "type": "string"
        }
      ],
      "stateMutability": "view",
      "type": "function"
    },
    {
      "inputs": [
        {
          "internalType": "uint256",
          "name": "tokenId",
          "type": "uint256"
        }
      ],
      "name": "tokenURI",
      "outputs": [
        {
          "internalType": "string",
          "name": "",
          "type": "string"
        }
      ],
      "stateMutability": "view",
      "type": "function"
    },
    {
      "inputs": [
        {
          "internalType": "address",
          "name": "from",
          "type": "address"
        },
        {
          "internalType": "address",
          "name": "to",
          "type": "address"
        },
        {
          "internalType": "uint256",
          "name": "tokenId",
          "type": "uint256"
        }
      ],
      "name": "transferFrom",
      "outputs": [],
      "stateMutability": "nonpayable",
      "type": "function"
    }
  ],
  "bytecode": "0x60806040523480156200001157600080fd5b506040518060400160405280600f81526020017f4f7267616e697a6174696f6e4e465400000000000000000000000000000000008152506040518060400160405280600381526020017f4f5247000000000000000000000000000000000000000000000000000000000081525081600090816200008f919062000324565b508060019081620000a1919062000324565b5050506200040b565b600081519050919050565b7f4e487b7100000000000000000000000000000000000000000000000000000000600052604160045260246000fd5b7f4e487b7100000000000000000000000000000000000000000000000000000000600052602260045260246000fd5b600060028204905060018216806200012c57607f821691505b602082108103620001425762000141620000e4565b5b50919050565b60008190508160005260206000209050919050565b60006020601f8301049050919050565b600082821b905092915050565b600060088302620001ac7fffffffffffffffffffffffffffffffffffffffffffffffffffffffffffffffff826200016d565b620001b886836200016d565b95508019841693508086168417925050509392505050565b6000819050919050565b6000819050919050565b600062000205620001ff620001f984620001d0565b620001da565b620001d0565b9050919050565b6000819050919050565b6200022183620001e4565b6200023962000230826200020c565b8484546200017a565b825550505050565b600090565b6200025062000241565b6200025d81848462000216565b505050565b5b8181101562000285576200027960008262000246565b60018101905062000263565b5050565b601f821115620002d4576200029e8162000148565b620002a9846200015d565b81016020851015620002b9578190505b620002d1620002c8856200015d565b83018262000262565b50505b505050565b600082821c905092915050565b6000620002f960001984600802620002d9565b1980831691505092915050565b6000620003148383620002e6565b9150826002028217905092915050565b6200032f82620000aa565b67ffffffffffffffff8111156200034b576200034a620000b5565b5b62000357825462000113565b6200036482828562000289565b600060209050601f8311600181146200039c576000841562000387578287015190505b62000393858262000306565b86555062000403565b601f198416620003ac8662000148565b60005b82811015620003d657848901518255600182019150602085019450602081019050620003af565b86831015620003f65784890151620003f2601f891682620002e6565b8355505b6001600288020188555050505b505050505050565b6139b7806200041b6000396000f3fe6080604052600436106101095760003560e01c806370a0823111610095578063a22cb46511610064578063a22cb46514610383578063b88d4fde146103ac578063c87b56dd146103d5578063e985e9c514610412578063fdaf8f171461044f57610109565b806370a08231146102bf57806379bb57b4146102fc5780638b2810181461033c57806395d89b411461035857610109565b8063095ea7b3116100dc578063095ea7b3146101de57806316b0b83a1461020757806323b872dd1461023057806342842e0e146102595780636352211e1461028257610109565b806301ffc9a71461010e57806306fdde031461014b578063081812fc14610176578063086ed938146101b3575b600080fd5b34801561011a57600080fd5b50610135600480360381019061013091906122a3565b61048f565b60405161014291906122eb565b60405180910390f35b34801561015757600080fd5b50610160610571565b60405161016d9190612396565b60405180910390f35b34801561018257600080fd5b5061019d600480360381019061019891906123ee565b610603565b6040516101aa919061245c565b60405180910390f35b3480156101bf57600080fd5b506101c8610649565b6040516101d5919061260b565b60405180910390f35b3480156101ea57600080fd5b5061020560048036038101906102009190612659565b6108a1565b005b34801561021357600080fd5b5061022e600480360381019061022991906127ce565b6109b8565b005b34801561023c57600080fd5b5061025760048036038101906102529190612859565b610b70565b005b34801561026557600080fd5b50610280600480360381019061027b9190612859565b610bd0565b005b34801561028e57600080fd5b506102a960048036038101906102a491906123ee565b610bf0565b6040516102b6919061245c565b60405180910390f35b3480156102cb57600080fd5b506102e660048036038101906102e191906128ac565b610c76565b6040516102f391906128e8565b60405180910390f35b34801561030857600080fd5b50610323600480360381019061031e91906123ee565b610d2d565b6040516103339493929190612903565b60405180910390f35b610356600480360381019061035191906123ee565b610ea4565b005b34801561036457600080fd5b5061036d610fe9565b60405161037a9190612396565b60405180910390f35b34801561038f57600080fd5b506103aa60048036038101906103a59190612982565b61107b565b005b3480156103b857600080fd5b506103d360048036038101906103ce9190612a63565b611091565b005b3480156103e157600080fd5b506103fc60048036038101906103f791906123ee565b6110f3565b6040516104099190612396565b60405180910390f35b34801561041e57600080fd5b5061043960048036038101906104349190612ae6565b61115b565b60405161044691906122eb565b60405180910390f35b34801561045b57600080fd5b50610476600480360381019061047191906128ac565b6111ef565b6040516104869493929190612b26565b60405180910390f35b60007f80ac58cd000000000000000000000000000000000000000000000000000000007bffffffffffffffffffffffffffffffffffffffffffffffffffffffff1916827bffffffffffffffffffffffffffffffffffffffffffffffffffffffff1916148061055a57507f5b5e139f000000000000000000000000000000000000000000000000000000007bffffffffffffffffffffffffffffffffffffffffffffffffffffffff1916827bffffffffffffffffffffffffffffffffffffffffffffffffffffffff1916145b8061056a575061056982611407565b5b9050919050565b60606000805461058090612ba8565b80601f01602080910402602001604051908101604052809291908181526020018280546105ac90612ba8565b80156105f95780601f106105ce576101008083540402835291602001916105f9565b820191906000526020600020905b8154815290600101906020018083116105dc57829003601f168201915b5050505050905090565b600061060e82611471565b6004600083815260200190815260200160002060009054906101000a900473ffffffffffffffffffffffffffffffffffffffff169050919050565b6060600061065760066114bc565b67ffffffffffffffff8111156106705761066f6126a3565b5b6040519080825280602002602001820160405280156106a957816020015b6106966121f9565b81526020019060019003908161068e5790505b50905060005b6106b960066114bc565b811015610899576000600760008381526020019081526020016000209050806040518060800160405290816000820180546106f390612ba8565b80601f016020809104026020016040519081016040528092919081815260200182805461071f90612ba8565b801561076c5780601f106107415761010080835404028352916020019161076c565b820191906000526020600020905b81548152906001019060200180831161074f57829003601f168201915b5050505050815260200160018201805461078590612ba8565b80601f01602080910402602001604051908101604052809291908181526020018280546107b190612ba8565b80156107fe5780601f106107d3576101008083540402835291602001916107fe565b820191906000526020600020905b8154815290600101906020018083116107e157829003601f168201915b505050505081526020016002820160009054906101000a900473ffffffffffffffffffffffffffffffffffffffff1673ffffffffffffffffffffffffffffffffffffffff1673ffffffffffffffffffffffffffffffffffffffff16815260200160038201548152505083838151811061087a57610879612bd9565b5b602002602001018190525050808061089190612c37565b9150506106af565b508091505090565b60006108ac82610bf0565b90508073ffffffffffffffffffffffffffffffffffffffff168373ffffffffffffffffffffffffffffffffffffffff160361091c576040517f08c379a000000000000000000000000000000000000000000000000000000000815260040161091390612cf1565b60405180910390fd5b8073ffffffffffffffffffffffffffffffffffffffff1661093b6114ca565b73ffffffffffffffffffffffffffffffffffffffff16148061096a5750610969816109646114ca565b61115b565b5b6109a9576040517f08c379a00000000000000000000000000000000000000000000000000000000081526004016109a090612d83565b60405180910390fd5b6109b383836114d2565b505050565b60008351116109fc576040517f08c379a00000000000000000000000000000000000000000000000000000000081526004016109f390612e15565b60405180910390fd5b6000825111610a40576040517f08c379a0000000000000000000000000000000000000000000000000000000008152600401610a3790612ea7565b60405180910390fd5b6000610a4c60066114bc565b9050610a58338261158b565b60405180608001604052808581526020018481526020018373ffffffffffffffffffffffffffffffffffffffff1681526020016000815250600760008381526020019081526020016000206000820151816000019081610ab89190613073565b506020820151816001019081610ace9190613073565b5060408201518160020160006101000a81548173ffffffffffffffffffffffffffffffffffffffff021916908373ffffffffffffffffffffffffffffffffffffffff16021790555060608201518160030155905050610b2d60066115a9565b7f1b59cb07aaad770db0305f5e4d27126089195f397c006e05f80d1deaa7ba5ce881858585604051610b629493929190613145565b60405180910390a150505050565b610b81610b7b6114ca565b826115bf565b610bc0576040517f08c379a0000000000000000000000000000000000000000000000000000000008152600401610bb79061320a565b60405180910390fd5b610bcb838383611654565b505050565b610beb83838360405180602001604052806000815250611091565b505050565b600080610bfc8361194d565b9050600073ffffffffffffffffffffffffffffffffffffffff168173ffffffffffffffffffffffffffffffffffffffff1603610c6d576040517f08c379a0000000000000000000000000000000000000000000000000000000008152600401610c6490613276565b60405180910390fd5b80915050919050565b60008073ffffffffffffffffffffffffffffffffffffffff168273ffffffffffffffffffffffffffffffffffffffff1603610ce6576040517f08c379a0000000000000000000000000000000000000000000000000000000008152600401610cdd90613308565b60405180910390fd5b600360008373ffffffffffffffffffffffffffffffffffffffff1673ffffffffffffffffffffffffffffffffffffffff168152602001908152602001600020549050919050565b606080600080600060076000878152602001908152602001600020905080600001816001018260020160009054906101000a900473ffffffffffffffffffffffffffffffffffffffff168360030154838054610d8890612ba8565b80601f0160208091040260200160405190810160405280929190818152602001828054610db490612ba8565b8015610e015780601f10610dd657610100808354040283529160200191610e01565b820191906000526020600020905b815481529060010190602001808311610de457829003601f168201915b50505050509350828054610e1490612ba8565b80601f0160208091040260200160405190810160405280929190818152602001828054610e4090612ba8565b8015610e8d5780601f10610e6257610100808354040283529160200191610e8d565b820191906000526020600020905b815481529060010190602001808311610e7057829003601f168201915b505050505092509450945094509450509193509193565b6000600760008381526020019081526020016000209050600073ffffffffffffffffffffffffffffffffffffffff168160020160009054906101000a900473ffffffffffffffffffffffffffffffffffffffff1673ffffffffffffffffffffffffffffffffffffffff1603610f4e576040517f08c379a0000000000000000000000000000000000000000000000000000000008152600401610f4590613374565b60405180910390fd5b60003411610f91576040517f08c379a0000000000000000000000000000000000000000000000000000000008152600401610f8890613406565b60405180910390fd5b34816003016000828254610fa59190613426565b925050819055507f57bf3cddfdc9bdb5bb9d4311450aa25144bfed6df10d16986be7ee48558f283f8234604051610fdd92919061345a565b60405180910390a15050565b606060018054610ff890612ba8565b80601f016020809104026020016040519081016040528092919081815260200182805461102490612ba8565b80156110715780601f1061104657610100808354040283529160200191611071565b820191906000526020600020905b81548152906001019060200180831161105457829003601f168201915b5050505050905090565b61108d6110866114ca565b838361198a565b5050565b6110a261109c6114ca565b836115bf565b6110e1576040517f08c379a00000000000000000000000000000000000000000000000000000000081526004016110d89061320a565b60405180910390fd5b6110ed84848484611af6565b50505050565b60606110fe82611471565b6000611108611b52565b905060008151116111285760405180602001604052806000815250611153565b8061113284611b69565b6040516020016111439291906134bf565b6040516020818303038152906040525b915050919050565b6000600560008473ffffffffffffffffffffffffffffffffffffffff1673ffffffffffffffffffffffffffffffffffffffff16815260200190815260200160002060008373ffffffffffffffffffffffffffffffffffffffff1673ffffffffffffffffffffffffffffffffffffffff16815260200190815260200160002060009054906101000a900460ff16905092915050565b6000606080600080600090505b61120660066114bc565b8110156113c45760006007600083815260200190815260200160002090508673ffffffffffffffffffffffffffffffffffffffff168160020160009054906101000a900473ffffffffffffffffffffffffffffffffffffffff1673ffffffffffffffffffffffffffffffffffffffff16036113b057818160000182600101836003015482805461129590612ba8565b80601f01602080910402602001604051908101604052809291908181526020018280546112c190612ba8565b801561130e5780601f106112e35761010080835404028352916020019161130e565b820191906000526020600020905b8154815290600101906020018083116112f157829003601f168201915b5050505050925081805461132190612ba8565b80601f016020809104026020016040519081016040528092919081815260200182805461134d90612ba8565b801561139a5780601f1061136f5761010080835404028352916020019161139a565b820191906000526020600020905b81548152906001019060200180831161137d57829003601f168201915b5050505050915095509550955095505050611400565b5080806113bc90612c37565b9150506111fc565b506040517f08c379a00000000000000000000000000000000000000000000000000000000081526004016113f790613555565b60405180910390fd5b9193509193565b60007f01ffc9a7000000000000000000000000000000000000000000000000000000007bffffffffffffffffffffffffffffffffffffffffffffffffffffffff1916827bffffffffffffffffffffffffffffffffffffffffffffffffffffffff1916149050919050565b61147a81611c37565b6114b9576040517f08c379a00000000000000000000000000000000000000000000000000000000081526004016114b090613276565b60405180910390fd5b50565b600081600001549050919050565b600033905090565b816004600083815260200190815260200160002060006101000a81548173ffffffffffffffffffffffffffffffffffffffff021916908373ffffffffffffffffffffffffffffffffffffffff160217905550808273ffffffffffffffffffffffffffffffffffffffff1661154583610bf0565b73ffffffffffffffffffffffffffffffffffffffff167f8c5be1e5ebec7d5bd14f71427d1e84f3dd0314c0f7b2291e5b200ac8c7c3b92560405160405180910390a45050565b6115a5828260405180602001604052806000815250611c78565b5050565b6001816000016000828254019250508190555050565b6000806115cb83610bf0565b90508073ffffffffffffffffffffffffffffffffffffffff168473ffffffffffffffffffffffffffffffffffffffff16148061160d575061160c818561115b565b5b8061164b57508373ffffffffffffffffffffffffffffffffffffffff1661163384610603565b73ffffffffffffffffffffffffffffffffffffffff16145b91505092915050565b8273ffffffffffffffffffffffffffffffffffffffff1661167482610bf0565b73ffffffffffffffffffffffffffffffffffffffff16146116ca576040517f08c379a00000000000000000000000000000000000000000000000000000000081526004016116c1906135e7565b60405180910390fd5b600073ffffffffffffffffffffffffffffffffffffffff168273ffffffffffffffffffffffffffffffffffffffff1603611739576040517f08c379a000000000000000000000000000000000000000000000000000000000815260040161173090613679565b60405180910390fd5b6117468383836001611cd3565b8273ffffffffffffffffffffffffffffffffffffffff1661176682610bf0565b73ffffffffffffffffffffffffffffffffffffffff16146117bc576040517f08c379a00000000000000000000000000000000000000000000000000000000081526004016117b3906135e7565b60405180910390fd5b6004600082815260200190815260200160002060006101000a81549073ffffffffffffffffffffffffffffffffffffffff02191690556001600360008573ffffffffffffffffffffffffffffffffffffffff1673ffffffffffffffffffffffffffffffffffffffff168152602001908152602001600020600082825403925050819055506001600360008473ffffffffffffffffffffffffffffffffffffffff1673ffffffffffffffffffffffffffffffffffffffff16815260200190815260200160002060008282540192505081905550816002600083815260200190815260200160002060006101000a81548173ffffffffffffffffffffffffffffffffffffffff021916908373ffffffffffffffffffffffffffffffffffffffff160217905550808273ffffffffffffffffffffffffffffffffffffffff168473ffffffffffffffffffffffffffffffffffffffff167fddf252ad1be2c89b69c2b068fc378daa952ba7f163c4a11628f55a4df523b3ef60405160405180910390a46119488383836001611cd9565b505050565b60006002600083815260200190815260200160002060009054906101000a900473ffffffffffffffffffffffffffffffffffffffff169050919050565b8173ffffffffffffffffffffffffffffffffffffffff168373ffffffffffffffffffffffffffffffffffffffff16036119f8576040517f08c379a00000000000000000000000000000000000000000000000000000000081526004016119ef906136e5565b60405180910390fd5b80600560008573ffffffffffffffffffffffffffffffffffffffff1673ffffffffffffffffffffffffffffffffffffffff16815260200190815260200160002060008473ffffffffffffffffffffffffffffffffffffffff1673ffffffffffffffffffffffffffffffffffffffff16815260200190815260200160002060006101000a81548160ff0219169083151502179055508173ffffffffffffffffffffffffffffffffffffffff168373ffffffffffffffffffffffffffffffffffffffff167f17307eab39ab6107e8899845ad3d59bd9653f200f220920489ca2b5937696c3183604051611ae991906122eb565b60405180910390a3505050565b611b01848484611654565b611b0d84848484611cdf565b611b4c576040517f08c379a0000000000000000000000000000000000000000000000000000000008152600401611b4390613777565b60405180910390fd5b50505050565b606060405180602001604052806000815250905090565b606060006001611b7884611e66565b01905060008167ffffffffffffffff811115611b9757611b966126a3565b5b6040519080825280601f01601f191660200182016040528015611bc95781602001600182028036833780820191505090505b509050600082602001820190505b600115611c2c578080600190039150507f3031323334353637383961626364656600000000000000000000000000000000600a86061a8153600a8581611c2057611c1f613797565b5b04945060008503611bd7575b819350505050919050565b60008073ffffffffffffffffffffffffffffffffffffffff16611c598361194d565b73ffffffffffffffffffffffffffffffffffffffff1614159050919050565b611c828383611fb9565b611c8f6000848484611cdf565b611cce576040517f08c379a0000000000000000000000000000000000000000000000000000000008152600401611cc590613777565b60405180910390fd5b505050565b50505050565b50505050565b6000611d008473ffffffffffffffffffffffffffffffffffffffff166121d6565b15611e59578373ffffffffffffffffffffffffffffffffffffffff1663150b7a02611d296114ca565b8786866040518563ffffffff1660e01b8152600401611d4b949392919061381b565b6020604051808303816000875af1925050508015611d8757506040513d601f19601f82011682018060405250810190611d84919061387c565b60015b611e09573d8060008114611db7576040519150601f19603f3d011682016040523d82523d6000602084013e611dbc565b606091505b506000815103611e01576040517f08c379a0000000000000000000000000000000000000000000000000000000008152600401611df890613777565b60405180910390fd5b805181602001fd5b63150b7a0260e01b7bffffffffffffffffffffffffffffffffffffffffffffffffffffffff1916817bffffffffffffffffffffffffffffffffffffffffffffffffffffffff191614915050611e5e565b600190505b949350505050565b600080600090507a184f03e93ff9f4daa797ed6e38ed64bf6a1f0100000000000000008310611ec4577a184f03e93ff9f4daa797ed6e38ed64bf6a1f0100000000000000008381611eba57611eb9613797565b5b0492506040810190505b6d04ee2d6d415b85acef81000000008310611f01576d04ee2d6d415b85acef81000000008381611ef757611ef6613797565b5b0492506020810190505b662386f26fc100008310611f3057662386f26fc100008381611f2657611f25613797565b5b0492506010810190505b6305f5e1008310611f59576305f5e1008381611f4f57611f4e613797565b5b0492506008810190505b6127108310611f7e576127108381611f7457611f73613797565b5b0492506004810190505b60648310611fa15760648381611f9757611f96613797565b5b0492506002810190505b600a8310611fb0576001810190505b80915050919050565b600073ffffffffffffffffffffffffffffffffffffffff168273ffffffffffffffffffffffffffffffffffffffff1603612028576040517f08c379a000000000000000000000000000000000000000000000000000000000815260040161201f906138f5565b60405180910390fd5b61203181611c37565b15612071576040517f08c379a000000000000000000000000000000000000000000000000000000000815260040161206890613961565b60405180910390fd5b61207f600083836001611cd3565b61208881611c37565b156120c8576040517f08c379a00000000000000000000000000000000000000000000000000000000081526004016120bf90613961565b60405180910390fd5b6001600360008473ffffffffffffffffffffffffffffffffffffffff1673ffffffffffffffffffffffffffffffffffffffff16815260200190815260200160002060008282540192505081905550816002600083815260200190815260200160002060006101000a81548173ffffffffffffffffffffffffffffffffffffffff021916908373ffffffffffffffffffffffffffffffffffffffff160217905550808273ffffffffffffffffffffffffffffffffffffffff16600073ffffffffffffffffffffffffffffffffffffffff167fddf252ad1be2c89b69c2b068fc378daa952ba7f163c4a11628f55a4df523b3ef60405160405180910390a46121d2600083836001611cd9565b5050565b6000808273ffffffffffffffffffffffffffffffffffffffff163b119050919050565b60405180608001604052806060815260200160608152602001600073ffffffffffffffffffffffffffffffffffffffff168152602001600081525090565b6000604051905090565b600080fd5b600080fd5b60007fffffffff0000000000000000000000000000000000000000000000000000000082169050919050565b6122808161224b565b811461228b57600080fd5b50565b60008135905061229d81612277565b92915050565b6000602082840312156122b9576122b8612241565b5b60006122c78482850161228e565b91505092915050565b60008115159050919050565b6122e5816122d0565b82525050565b600060208201905061230060008301846122dc565b92915050565b600081519050919050565b600082825260208201905092915050565b60005b83811015612340578082015181840152602081019050612325565b60008484015250505050565b6000601f19601f8301169050919050565b600061236882612306565b6123728185612311565b9350612382818560208601612322565b61238b8161234c565b840191505092915050565b600060208201905081810360008301526123b0818461235d565b905092915050565b6000819050919050565b6123cb816123b8565b81146123d657600080fd5b50565b6000813590506123e8816123c2565b92915050565b60006020828403121561240457612403612241565b5b6000612412848285016123d9565b91505092915050565b600073ffffffffffffffffffffffffffffffffffffffff82169050919050565b60006124468261241b565b9050919050565b6124568161243b565b82525050565b6000602082019050612471600083018461244d565b92915050565b600081519050919050565b600082825260208201905092915050565b6000819050602082019050919050565b600082825260208201905092915050565b60006124bf82612306565b6124c981856124a3565b93506124d9818560208601612322565b6124e28161234c565b840191505092915050565b6124f68161243b565b82525050565b612505816123b8565b82525050565b6000608083016000830151848203600086015261252882826124b4565b9150506020830151848203602086015261254282826124b4565b915050604083015161255760408601826124ed565b50606083015161256a60608601826124fc565b508091505092915050565b6000612581838361250b565b905092915050565b6000602082019050919050565b60006125a182612477565b6125ab8185612482565b9350836020820285016125bd85612493565b8060005b858110156125f957848403895281516125da8582612575565b94506125e583612589565b925060208a019950506001810190506125c1565b50829750879550505050505092915050565b600060208201905081810360008301526126258184612596565b905092915050565b6126368161243b565b811461264157600080fd5b50565b6000813590506126538161262d565b92915050565b600080604083850312156126705761266f612241565b5b600061267e85828601612644565b925050602061268f858286016123d9565b9150509250929050565b600080fd5b600080fd5b7f4e487b7100000000000000000000000000000000000000000000000000000000600052604160045260246000fd5b6126db8261234c565b810181811067ffffffffffffffff821117156126fa576126f96126a3565b5b80604052505050565b600061270d612237565b905061271982826126d2565b919050565b600067ffffffffffffffff821115612739576127386126a3565b5b6127428261234c565b9050602081019050919050565b82818337600083830152505050565b600061277161276c8461271e565b612703565b90508281526020810184848401111561278d5761278c61269e565b5b61279884828561274f565b509392505050565b600082601f8301126127b5576127b4612699565b5b81356127c584826020860161275e565b91505092915050565b6000806000606084860312156127e7576127e6612241565b5b600084013567ffffffffffffffff81111561280557612804612246565b5b612811868287016127a0565b935050602084013567ffffffffffffffff81111561283257612831612246565b5b61283e868287016127a0565b925050604061284f86828701612644565b9150509250925092565b60008060006060848603121561287257612871612241565b5b600061288086828701612644565b935050602061289186828701612644565b92505060406128a2868287016123d9565b9150509250925092565b6000602082840312156128c2576128c1612241565b5b60006128d084828501612644565b91505092915050565b6128e2816123b8565b82525050565b60006020820190506128fd60008301846128d9565b92915050565b6000608082019050818103600083015261291d818761235d565b90508181036020830152612931818661235d565b9050612940604083018561244d565b61294d60608301846128d9565b95945050505050565b61295f816122d0565b811461296a57600080fd5b50565b60008135905061297c81612956565b92915050565b6000806040838503121561299957612998612241565b5b60006129a785828601612644565b92505060206129b88582860161296d565b9150509250929050565b600067ffffffffffffffff8211156129dd576129dc6126a3565b5b6129e68261234c565b9050602081019050919050565b6000612a06612a01846129c2565b612703565b905082815260208101848484011115612a2257612a2161269e565b5b612a2d84828561274f565b509392505050565b600082601f830112612a4a57612a49612699565b5b8135612a5a8482602086016129f3565b91505092915050565b60008060008060808587031215612a7d57612a7c612241565b5b6000612a8b87828801612644565b9450506020612a9c87828801612644565b9350506040612aad878288016123d9565b925050606085013567ffffffffffffffff811115612ace57612acd612246565b5b612ada87828801612a35565b91505092959194509250565b60008060408385031215612afd57612afc612241565b5b6000612b0b85828601612644565b9250506020612b1c85828601612644565b9150509250929050565b6000608082019050612b3b60008301876128d9565b8181036020830152612b4d818661235d565b90508181036040830152612b61818561235d565b9050612b7060608301846128d9565b95945050505050565b7f4e487b7100000000000000000000000000000000000000000000000000000000600052602260045260246000fd5b60006002820490506001821680612bc057607f821691505b602082108103612bd357612bd2612b79565b5b50919050565b7f4e487b7100000000000000000000000000000000000000000000000000000000600052603260045260246000fd5b7f4e487b7100000000000000000000000000000000000000000000000000000000600052601160045260246000fd5b6000612c42826123b8565b91507fffffffffffffffffffffffffffffffffffffffffffffffffffffffffffffffff8203612c7457612c73612c08565b5b600182019050919050565b7f4552433732313a20617070726f76616c20746f2063757272656e74206f776e6560008201527f7200000000000000000000000000000000000000000000000000000000000000602082015250565b6000612cdb602183612311565b9150612ce682612c7f565b604082019050919050565b60006020820190508181036000830152612d0a81612cce565b9050919050565b7f4552433732313a20617070726f76652063616c6c6572206973206e6f7420746f60008201527f6b656e206f776e6572206f7220617070726f76656420666f7220616c6c000000602082015250565b6000612d6d603d83612311565b9150612d7882612d11565b604082019050919050565b60006020820190508181036000830152612d9c81612d60565b9050919050565b7f4f7267616e697a6174696f6e206e616d652063616e6e6f7420626520656d707460008201527f7900000000000000000000000000000000000000000000000000000000000000602082015250565b6000612dff602183612311565b9150612e0a82612da3565b604082019050919050565b60006020820190508181036000830152612e2e81612df2565b9050919050565b7f4f7267616e697a6174696f6e206465736372697074696f6e2063616e6e6f742060008201527f626520656d707479000000000000000000000000000000000000000000000000602082015250565b6000612e91602883612311565b9150612e9c82612e35565b604082019050919050565b60006020820190508181036000830152612ec081612e84565b9050919050565b60008190508160005260206000209050919050565b60006020601f8301049050919050565b600082821b905092915050565b600060088302612f297fffffffffffffffffffffffffffffffffffffffffffffffffffffffffffffffff82612eec565b612f338683612eec565b95508019841693508086168417925050509392505050565b6000819050919050565b6000612f70612f6b612f66846123b8565b612f4b565b6123b8565b9050919050565b6000819050919050565b612f8a83612f55565b612f9e612f9682612f77565b848454612ef9565b825550505050565b600090565b612fb3612fa6565b612fbe818484612f81565b505050565b5b81811015612fe257612fd7600082612fab565b600181019050612fc4565b5050565b601f82111561302757612ff881612ec7565b61300184612edc565b81016020851015613010578190505b61302461301c85612edc565b830182612fc3565b50505b505050565b600082821c905092915050565b600061304a6000198460080261302c565b1980831691505092915050565b60006130638383613039565b9150826002028217905092915050565b61307c82612306565b67ffffffffffffffff811115613095576130946126a3565b5b61309f8254612ba8565b6130aa828285612fe6565b600060209050601f8311600181146130dd57600084156130cb578287015190505b6130d58582613057565b86555061313d565b601f1984166130eb86612ec7565b60005b82811015613113578489015182556001820191506020850194506020810190506130ee565b86831015613130578489015161312c601f891682613039565b8355505b6001600288020188555050505b505050505050565b600060808201905061315a60008301876128d9565b818103602083015261316c818661235d565b90508181036040830152613180818561235d565b905061318f606083018461244d565b95945050505050565b7f4552433732313a2063616c6c6572206973206e6f7420746f6b656e206f776e6560008201527f72206f7220617070726f76656400000000000000000000000000000000000000602082015250565b60006131f4602d83612311565b91506131ff82613198565b604082019050919050565b60006020820190508181036000830152613223816131e7565b9050919050565b7f4552433732313a20696e76616c696420746f6b656e2049440000000000000000600082015250565b6000613260601883612311565b915061326b8261322a565b602082019050919050565b6000602082019050818103600083015261328f81613253565b9050919050565b7f4552433732313a2061646472657373207a65726f206973206e6f74206120766160008201527f6c6964206f776e65720000000000000000000000000000000000000000000000602082015250565b60006132f2602983612311565b91506132fd82613296565b604082019050919050565b60006020820190508181036000830152613321816132e5565b9050919050565b7f4f7267616e697a6174696f6e20646f6573206e6f742065786973740000000000600082015250565b600061335e601b83612311565b915061336982613328565b602082019050919050565b6000602082019050818103600083015261338d81613351565b9050919050565b7f53656e742066756e6473206d7573742062652067726561746572207468616e2060008201527f3000000000000000000000000000000000000000000000000000000000000000602082015250565b60006133f0602183612311565b91506133fb82613394565b604082019050919050565b6000602082019050818103600083015261341f816133e3565b9050919050565b6000613431826123b8565b915061343c836123b8565b925082820190508082111561345457613453612c08565b5b92915050565b600060408201905061346f60008301856128d9565b61347c60208301846128d9565b9392505050565b600081905092915050565b600061349982612306565b6134a38185613483565b93506134b3818560208601612322565b80840191505092915050565b60006134cb828561348e565b91506134d7828461348e565b91508190509392505050565b7f4f7267616e697a6174696f6e206e6f7420666f756e6420666f7220746865206760008201527f6976656e20616464726573730000000000000000000000000000000000000000602082015250565b600061353f602c83612311565b915061354a826134e3565b604082019050919050565b6000602082019050818103600083015261356e81613532565b9050919050565b7f4552433732313a207472616e736665722066726f6d20696e636f72726563742060008201527f6f776e6572000000000000000000000000000000000000000000000000000000602082015250565b60006135d1602583612311565b91506135dc82613575565b604082019050919050565b60006020820190508181036000830152613600816135c4565b9050919050565b7f4552433732313a207472616e7366657220746f20746865207a65726f2061646460008201527f7265737300000000000000000000000000000000000000000000000000000000602082015250565b6000613663602483612311565b915061366e82613607565b604082019050919050565b6000602082019050818103600083015261369281613656565b9050919050565b7f4552433732313a20617070726f766520746f2063616c6c657200000000000000600082015250565b60006136cf601983612311565b91506136da82613699565b602082019050919050565b600060208201905081810360008301526136fe816136c2565b9050919050565b7f4552433732313a207472616e7366657220746f206e6f6e20455243373231526560008201527f63656976657220696d706c656d656e7465720000000000000000000000000000602082015250565b6000613761603283612311565b915061376c82613705565b604082019050919050565b6000602082019050818103600083015261379081613754565b9050919050565b7f4e487b7100000000000000000000000000000000000000000000000000000000600052601260045260246000fd5b600081519050919050565b600082825260208201905092915050565b60006137ed826137c6565b6137f781856137d1565b9350613807818560208601612322565b6138108161234c565b840191505092915050565b6000608082019050613830600083018761244d565b61383d602083018661244d565b61384a60408301856128d9565b818103606083015261385c81846137e2565b905095945050505050565b60008151905061387681612277565b92915050565b60006020828403121561389257613891612241565b5b60006138a084828501613867565b91505092915050565b7f4552433732313a206d696e7420746f20746865207a65726f2061646472657373600082015250565b60006138df602083612311565b91506138ea826138a9565b602082019050919050565b6000602082019050818103600083015261390e816138d2565b9050919050565b7f4552433732313a20746f6b656e20616c7265616479206d696e74656400000000600082015250565b600061394b601c83612311565b915061395682613915565b602082019050919050565b6000602082019050818103600083015261397a8161393e565b905091905056fea26469706673582212201460b0db5b21c7e2d8baad4e87401f307b30dc2ea697b06176f3e1e68ed0685864736f6c63430008110033",
  "linkReferences": {},
  "deployedLinkReferences": {}
}