{
  "_format": "hh-sol-artifact-1",
  "contractName": "OrganizationNFT",
  "sourceName": "contracts/contract.sol",
  "abi": [
    {
      "inputs": [],
      "stateMutability": "nonpayable",
      "type": "constructor"
    },
    {
      "anonymous": false,
      "inputs": [
        {
          "indexed": true,
          "internalType": "address",
          "name": "owner",
          "type": "address"
        },
        {
          "indexed": true,
          "internalType": "address",
          "name": "approved",
          "type": "address"
        },
        {
          "indexed": true,
          "internalType": "uint256",
          "name": "tokenId",
          "type": "uint256"
        }
      ],
      "name": "Approval",
      "type": "event"
    },
    {
      "anonymous": false,
      "inputs": [
        {
          "indexed": true,
          "internalType": "address",
          "name": "owner",
          "type": "address"
        },
        {
          "indexed": true,
          "internalType": "address",
          "name": "operator",
          "type": "address"
        },
        {
          "indexed": false,
          "internalType": "bool",
          "name": "approved",
          "type": "bool"
        }
      ],
      "name": "ApprovalForAll",
      "type": "event"
    },
    {
      "anonymous": false,
      "inputs": [
        {
          "indexed": false,
          "internalType": "uint256",
          "name": "organizationId",
          "type": "uint256"
        },
        {
          "indexed": false,
          "internalType": "uint256",
          "name": "amount",
          "type": "uint256"
        }
      ],
      "name": "FundsSent",
      "type": "event"
    },
    {
      "anonymous": false,
      "inputs": [
        {
          "indexed": false,
          "internalType": "uint256",
          "name": "organizationId",
          "type": "uint256"
        },
        {
          "indexed": false,
          "internalType": "string",
          "name": "name",
          "type": "string"
        },
        {
          "indexed": false,
          "internalType": "string",
          "name": "description",
          "type": "string"
        },
        {
          "indexed": false,
          "internalType": "address",
          "name": "addressOfOrg",
          "type": "address"
        }
      ],
      "name": "OrganizationRegistered",
      "type": "event"
    },
    {
      "anonymous": false,
      "inputs": [
        {
          "indexed": true,
          "internalType": "address",
          "name": "from",
          "type": "address"
        },
        {
          "indexed": true,
          "internalType": "address",
          "name": "to",
          "type": "address"
        },
        {
          "indexed": true,
          "internalType": "uint256",
          "name": "tokenId",
          "type": "uint256"
        }
      ],
      "name": "Transfer",
      "type": "event"
    },
    {
      "inputs": [
        {
          "internalType": "address",
          "name": "to",
          "type": "address"
        },
        {
          "internalType": "uint256",
          "name": "tokenId",
          "type": "uint256"
        }
      ],
      "name": "approve",
      "outputs": [],
      "stateMutability": "nonpayable",
      "type": "function"
    },
    {
      "inputs": [
        {
          "internalType": "address",
          "name": "owner",
          "type": "address"
        }
      ],
      "name": "balanceOf",
      "outputs": [
        {
          "internalType": "uint256",
          "name": "",
          "type": "uint256"
        }
      ],
      "stateMutability": "view",
      "type": "function"
    },
    {
      "inputs": [],
      "name": "getAllOrganizations",
      "outputs": [
        {
          "components": [
            {
              "internalType": "string",
              "name": "name",
              "type": "string"
            },
            {
              "internalType": "string",
              "name": "description",
              "type": "string"
            },
            {
              "internalType": "address",
              "name": "addressOfOrg",
              "type": "address"
            },
            {
              "internalType": "uint256",
              "name": "funds",
              "type": "uint256"
            }
          ],
          "internalType": "struct OrganizationNFT.Organization[]",
          "name": "",
          "type": "tuple[]"
        }
      ],
      "stateMutability": "view",
      "type": "function"
    },
    {
      "inputs": [
        {
          "internalType": "uint256",
          "name": "tokenId",
          "type": "uint256"
        }
      ],
      "name": "getApproved",
      "outputs": [
        {
          "internalType": "address",
          "name": "",
          "type": "address"
        }
      ],
      "stateMutability": "view",
      "type": "function"
    },
    {
      "inputs": [
        {
          "internalType": "uint256",
          "name": "_organizationId",
          "type": "uint256"
        }
      ],
      "name": "getOrganizationDetails",
      "outputs": [
        {
          "internalType": "string",
          "name": "name",
          "type": "string"
        },
        {
          "internalType": "string",
          "name": "description",
          "type": "string"
        },
        {
          "internalType": "address",
          "name": "addressOfOrg",
          "type": "address"
        },
        {
          "internalType": "uint256",
          "name": "funds",
          "type": "uint256"
        }
      ],
      "stateMutability": "view",
      "type": "function"
    },
    {
      "inputs": [
        {
          "internalType": "address",
          "name": "_walletAddress",
          "type": "address"
        }
      ],
      "name": "getOrganizationsByAddress",
      "outputs": [
        {
          "components": [
            {
              "internalType": "string",
              "name": "name",
              "type": "string"
            },
            {
              "internalType": "string",
              "name": "description",
              "type": "string"
            },
            {
              "internalType": "address",
              "name": "addressOfOrg",
              "type": "address"
            },
            {
              "internalType": "uint256",
              "name": "funds",
              "type": "uint256"
            }
          ],
          "internalType": "struct OrganizationNFT.Organization[]",
          "name": "",
          "type": "tuple[]"
        }
      ],
      "stateMutability": "view",
      "type": "function"
    },
    {
      "inputs": [
        {
          "internalType": "address",
          "name": "owner",
          "type": "address"
        },
        {
          "internalType": "address",
          "name": "operator",
          "type": "address"
        }
      ],
      "name": "isApprovedForAll",
      "outputs": [
        {
          "internalType": "bool",
          "name": "",
          "type": "bool"
        }
      ],
      "stateMutability": "view",
      "type": "function"
    },
    {
      "inputs": [],
      "name": "name",
      "outputs": [
        {
          "internalType": "string",
          "name": "",
          "type": "string"
        }
      ],
      "stateMutability": "view",
      "type": "function"
    },
    {
      "inputs": [
        {
          "internalType": "uint256",
          "name": "tokenId",
          "type": "uint256"
        }
      ],
      "name": "ownerOf",
      "outputs": [
        {
          "internalType": "address",
          "name": "",
          "type": "address"
        }
      ],
      "stateMutability": "view",
      "type": "function"
    },
    {
      "inputs": [
        {
          "internalType": "string",
          "name": "_name",
          "type": "string"
        },
        {
          "internalType": "string",
          "name": "_description",
          "type": "string"
        },
        {
          "internalType": "address",
          "name": "_addressOfOrg",
          "type": "address"
        }
      ],
      "name": "registerOrganization",
      "outputs": [],
      "stateMutability": "nonpayable",
      "type": "function"
    },
    {
      "inputs": [
        {
          "internalType": "address",
          "name": "from",
          "type": "address"
        },
        {
          "internalType": "address",
          "name": "to",
          "type": "address"
        },
        {
          "internalType": "uint256",
          "name": "tokenId",
          "type": "uint256"
        }
      ],
      "name": "safeTransferFrom",
      "outputs": [],
      "stateMutability": "nonpayable",
      "type": "function"
    },
    {
      "inputs": [
        {
          "internalType": "address",
          "name": "from",
          "type": "address"
        },
        {
          "internalType": "address",
          "name": "to",
          "type": "address"
        },
        {
          "internalType": "uint256",
          "name": "tokenId",
          "type": "uint256"
        },
        {
          "internalType": "bytes",
          "name": "data",
          "type": "bytes"
        }
      ],
      "name": "safeTransferFrom",
      "outputs": [],
      "stateMutability": "nonpayable",
      "type": "function"
    },
    {
      "inputs": [
        {
          "internalType": "uint256",
          "name": "_organizationId",
          "type": "uint256"
        }
      ],
      "name": "sendFunds",
      "outputs": [],
      "stateMutability": "payable",
      "type": "function"
    },
    {
      "inputs": [
        {
          "internalType": "address",
          "name": "operator",
          "type": "address"
        },
        {
          "internalType": "bool",
          "name": "approved",
          "type": "bool"
        }
      ],
      "name": "setApprovalForAll",
      "outputs": [],
      "stateMutability": "nonpayable",
      "type": "function"
    },
    {
      "inputs": [
        {
          "internalType": "bytes4",
          "name": "interfaceId",
          "type": "bytes4"
        }
      ],
      "name": "supportsInterface",
      "outputs": [
        {
          "internalType": "bool",
          "name": "",
          "type": "bool"
        }
      ],
      "stateMutability": "view",
      "type": "function"
    },
    {
      "inputs": [],
      "name": "symbol",
      "outputs": [
        {
          "internalType": "string",
          "name": "",
          "type": "string"
        }
      ],
      "stateMutability": "view",
      "type": "function"
    },
    {
      "inputs": [
        {
          "internalType": "uint256",
          "name": "tokenId",
          "type": "uint256"
        }
      ],
      "name": "tokenURI",
      "outputs": [
        {
          "internalType": "string",
          "name": "",
          "type": "string"
        }
      ],
      "stateMutability": "view",
      "type": "function"
    },
    {
      "inputs": [
        {
          "internalType": "address",
          "name": "from",
          "type": "address"
        },
        {
          "internalType": "address",
          "name": "to",
          "type": "address"
        },
        {
          "internalType": "uint256",
          "name": "tokenId",
          "type": "uint256"
        }
      ],
      "name": "transferFrom",
      "outputs": [],
      "stateMutability": "nonpayable",
      "type": "function"
    }
  ],
  "bytecode": "0x60806040523480156200001157600080fd5b506040518060400160405280600f81526020017f4f7267616e697a6174696f6e4e465400000000000000000000000000000000008152506040518060400160405280600381526020017f4f5247000000000000000000000000000000000000000000000000000000000081525081600090816200008f919062000324565b508060019081620000a1919062000324565b5050506200040b565b600081519050919050565b7f4e487b7100000000000000000000000000000000000000000000000000000000600052604160045260246000fd5b7f4e487b7100000000000000000000000000000000000000000000000000000000600052602260045260246000fd5b600060028204905060018216806200012c57607f821691505b602082108103620001425762000141620000e4565b5b50919050565b60008190508160005260206000209050919050565b60006020601f8301049050919050565b600082821b905092915050565b600060088302620001ac7fffffffffffffffffffffffffffffffffffffffffffffffffffffffffffffffff826200016d565b620001b886836200016d565b95508019841693508086168417925050509392505050565b6000819050919050565b6000819050919050565b600062000205620001ff620001f984620001d0565b620001da565b620001d0565b9050919050565b6000819050919050565b6200022183620001e4565b6200023962000230826200020c565b8484546200017a565b825550505050565b600090565b6200025062000241565b6200025d81848462000216565b505050565b5b8181101562000285576200027960008262000246565b60018101905062000263565b5050565b601f821115620002d4576200029e8162000148565b620002a9846200015d565b81016020851015620002b9578190505b620002d1620002c8856200015d565b83018262000262565b50505b505050565b600082821c905092915050565b6000620002f960001984600802620002d9565b1980831691505092915050565b6000620003148383620002e6565b9150826002028217905092915050565b6200032f82620000aa565b67ffffffffffffffff8111156200034b576200034a620000b5565b5b62000357825462000113565b6200036482828562000289565b600060209050601f8311600181146200039c576000841562000387578287015190505b62000393858262000306565b86555062000403565b601f198416620003ac8662000148565b60005b82811015620003d657848901518255600182019150602085019450602081019050620003af565b86831015620003f65784890151620003f2601f891682620002e6565b8355505b6001600288020188555050505b505050505050565b61391c806200041b6000396000f3fe6080604052600436106101095760003560e01c80636352211e1161009557806395d89b411161006457806395d89b4114610395578063a22cb465146103c0578063b88d4fde146103e9578063c87b56dd14610412578063e985e9c51461044f57610109565b80636352211e146102bf57806370a08231146102fc57806379bb57b4146103395780638b2810181461037957610109565b8063095ea7b3116100dc578063095ea7b3146101de57806316b0b83a1461020757806323b872dd1461023057806342842e0e146102595780635adc84431461028257610109565b806301ffc9a71461010e57806306fdde031461014b578063081812fc14610176578063086ed938146101b3575b600080fd5b34801561011a57600080fd5b50610135600480360381019061013091906122ed565b61048c565b6040516101429190612335565b60405180910390f35b34801561015757600080fd5b5061016061056e565b60405161016d91906123e0565b60405180910390f35b34801561018257600080fd5b5061019d60048036038101906101989190612438565b610600565b6040516101aa91906124a6565b60405180910390f35b3480156101bf57600080fd5b506101c8610646565b6040516101d59190612655565b60405180910390f35b3480156101ea57600080fd5b50610205600480360381019061020091906126a3565b61089e565b005b34801561021357600080fd5b5061022e60048036038101906102299190612818565b6109b5565b005b34801561023c57600080fd5b50610257600480360381019061025291906128a3565b610b6d565b005b34801561026557600080fd5b50610280600480360381019061027b91906128a3565b610bcd565b005b34801561028e57600080fd5b506102a960048036038101906102a491906128f6565b610bed565b6040516102b69190612655565b60405180910390f35b3480156102cb57600080fd5b506102e660048036038101906102e19190612438565b610e52565b6040516102f391906124a6565b60405180910390f35b34801561030857600080fd5b50610323600480360381019061031e91906128f6565b610ed8565b6040516103309190612932565b60405180910390f35b34801561034557600080fd5b50610360600480360381019061035b9190612438565b610f8f565b604051610370949392919061294d565b60405180910390f35b610393600480360381019061038e9190612438565b611106565b005b3480156103a157600080fd5b506103aa61124b565b6040516103b791906123e0565b60405180910390f35b3480156103cc57600080fd5b506103e760048036038101906103e291906129cc565b6112dd565b005b3480156103f557600080fd5b50610410600480360381019061040b9190612aad565b6112f3565b005b34801561041e57600080fd5b5061043960048036038101906104349190612438565b611355565b60405161044691906123e0565b60405180910390f35b34801561045b57600080fd5b5061047660048036038101906104719190612b30565b6113bd565b6040516104839190612335565b60405180910390f35b60007f80ac58cd000000000000000000000000000000000000000000000000000000007bffffffffffffffffffffffffffffffffffffffffffffffffffffffff1916827bffffffffffffffffffffffffffffffffffffffffffffffffffffffff1916148061055757507f5b5e139f000000000000000000000000000000000000000000000000000000007bffffffffffffffffffffffffffffffffffffffffffffffffffffffff1916827bffffffffffffffffffffffffffffffffffffffffffffffffffffffff1916145b80610567575061056682611451565b5b9050919050565b60606000805461057d90612b9f565b80601f01602080910402602001604051908101604052809291908181526020018280546105a990612b9f565b80156105f65780601f106105cb576101008083540402835291602001916105f6565b820191906000526020600020905b8154815290600101906020018083116105d957829003601f168201915b5050505050905090565b600061060b826114bb565b6004600083815260200190815260200160002060009054906101000a900473ffffffffffffffffffffffffffffffffffffffff169050919050565b606060006106546006611506565b67ffffffffffffffff81111561066d5761066c6126ed565b5b6040519080825280602002602001820160405280156106a657816020015b610693612243565b81526020019060019003908161068b5790505b50905060005b6106b66006611506565b811015610896576000600760008381526020019081526020016000209050806040518060800160405290816000820180546106f090612b9f565b80601f016020809104026020016040519081016040528092919081815260200182805461071c90612b9f565b80156107695780601f1061073e57610100808354040283529160200191610769565b820191906000526020600020905b81548152906001019060200180831161074c57829003601f168201915b5050505050815260200160018201805461078290612b9f565b80601f01602080910402602001604051908101604052809291908181526020018280546107ae90612b9f565b80156107fb5780601f106107d0576101008083540402835291602001916107fb565b820191906000526020600020905b8154815290600101906020018083116107de57829003601f168201915b505050505081526020016002820160009054906101000a900473ffffffffffffffffffffffffffffffffffffffff1673ffffffffffffffffffffffffffffffffffffffff1673ffffffffffffffffffffffffffffffffffffffff16815260200160038201548152505083838151811061087757610876612bd0565b5b602002602001018190525050808061088e90612c2e565b9150506106ac565b508091505090565b60006108a982610e52565b90508073ffffffffffffffffffffffffffffffffffffffff168373ffffffffffffffffffffffffffffffffffffffff1603610919576040517f08c379a000000000000000000000000000000000000000000000000000000000815260040161091090612ce8565b60405180910390fd5b8073ffffffffffffffffffffffffffffffffffffffff16610938611514565b73ffffffffffffffffffffffffffffffffffffffff161480610967575061096681610961611514565b6113bd565b5b6109a6576040517f08c379a000000000000000000000000000000000000000000000000000000000815260040161099d90612d7a565b60405180910390fd5b6109b0838361151c565b505050565b60008351116109f9576040517f08c379a00000000000000000000000000000000000000000000000000000000081526004016109f090612e0c565b60405180910390fd5b6000825111610a3d576040517f08c379a0000000000000000000000000000000000000000000000000000000008152600401610a3490612e9e565b60405180910390fd5b6000610a496006611506565b9050610a5533826115d5565b60405180608001604052808581526020018481526020018373ffffffffffffffffffffffffffffffffffffffff1681526020016000815250600760008381526020019081526020016000206000820151816000019081610ab5919061306a565b506020820151816001019081610acb919061306a565b5060408201518160020160006101000a81548173ffffffffffffffffffffffffffffffffffffffff021916908373ffffffffffffffffffffffffffffffffffffffff16021790555060608201518160030155905050610b2a60066115f3565b7f1b59cb07aaad770db0305f5e4d27126089195f397c006e05f80d1deaa7ba5ce881858585604051610b5f949392919061313c565b60405180910390a150505050565b610b7e610b78611514565b82611609565b610bbd576040517f08c379a0000000000000000000000000000000000000000000000000000000008152600401610bb490613201565b60405180910390fd5b610bc883838361169e565b505050565b610be8838383604051806020016040528060008152506112f3565b505050565b6060806000805b610bfe6006611506565b811015610e445760006007600083815260200190815260200160002090508573ffffffffffffffffffffffffffffffffffffffff168160020160009054906101000a900473ffffffffffffffffffffffffffffffffffffffff1673ffffffffffffffffffffffffffffffffffffffff1603610e305780604051806080016040529081600082018054610c8f90612b9f565b80601f0160208091040260200160405190810160405280929190818152602001828054610cbb90612b9f565b8015610d085780601f10610cdd57610100808354040283529160200191610d08565b820191906000526020600020905b815481529060010190602001808311610ceb57829003601f168201915b50505050508152602001600182018054610d2190612b9f565b80601f0160208091040260200160405190810160405280929190818152602001828054610d4d90612b9f565b8015610d9a5780601f10610d6f57610100808354040283529160200191610d9a565b820191906000526020600020905b815481529060010190602001808311610d7d57829003601f168201915b505050505081526020016002820160009054906101000a900473ffffffffffffffffffffffffffffffffffffffff1673ffffffffffffffffffffffffffffffffffffffff1673ffffffffffffffffffffffffffffffffffffffff168152602001600382015481525050848481518110610e1657610e15612bd0565b5b60200260200101819052508280610e2c90612c2e565b9350505b508080610e3c90612c2e565b915050610bf4565b508082528192505050919050565b600080610e5e83611997565b9050600073ffffffffffffffffffffffffffffffffffffffff168173ffffffffffffffffffffffffffffffffffffffff1603610ecf576040517f08c379a0000000000000000000000000000000000000000000000000000000008152600401610ec69061326d565b60405180910390fd5b80915050919050565b60008073ffffffffffffffffffffffffffffffffffffffff168273ffffffffffffffffffffffffffffffffffffffff1603610f48576040517f08c379a0000000000000000000000000000000000000000000000000000000008152600401610f3f906132ff565b60405180910390fd5b600360008373ffffffffffffffffffffffffffffffffffffffff1673ffffffffffffffffffffffffffffffffffffffff168152602001908152602001600020549050919050565b606080600080600060076000878152602001908152602001600020905080600001816001018260020160009054906101000a900473ffffffffffffffffffffffffffffffffffffffff168360030154838054610fea90612b9f565b80601f016020809104026020016040519081016040528092919081815260200182805461101690612b9f565b80156110635780601f1061103857610100808354040283529160200191611063565b820191906000526020600020905b81548152906001019060200180831161104657829003601f168201915b5050505050935082805461107690612b9f565b80601f01602080910402602001604051908101604052809291908181526020018280546110a290612b9f565b80156110ef5780601f106110c4576101008083540402835291602001916110ef565b820191906000526020600020905b8154815290600101906020018083116110d257829003601f168201915b505050505092509450945094509450509193509193565b6000600760008381526020019081526020016000209050600073ffffffffffffffffffffffffffffffffffffffff168160020160009054906101000a900473ffffffffffffffffffffffffffffffffffffffff1673ffffffffffffffffffffffffffffffffffffffff16036111b0576040517f08c379a00000000000000000000000000000000000000000000000000000000081526004016111a79061336b565b60405180910390fd5b600034116111f3576040517f08c379a00000000000000000000000000000000000000000000000000000000081526004016111ea906133fd565b60405180910390fd5b34816003016000828254611207919061341d565b925050819055507f57bf3cddfdc9bdb5bb9d4311450aa25144bfed6df10d16986be7ee48558f283f823460405161123f929190613451565b60405180910390a15050565b60606001805461125a90612b9f565b80601f016020809104026020016040519081016040528092919081815260200182805461128690612b9f565b80156112d35780601f106112a8576101008083540402835291602001916112d3565b820191906000526020600020905b8154815290600101906020018083116112b657829003601f168201915b5050505050905090565b6112ef6112e8611514565b83836119d4565b5050565b6113046112fe611514565b83611609565b611343576040517f08c379a000000000000000000000000000000000000000000000000000000000815260040161133a90613201565b60405180910390fd5b61134f84848484611b40565b50505050565b6060611360826114bb565b600061136a611b9c565b9050600081511161138a57604051806020016040528060008152506113b5565b8061139484611bb3565b6040516020016113a59291906134b6565b6040516020818303038152906040525b915050919050565b6000600560008473ffffffffffffffffffffffffffffffffffffffff1673ffffffffffffffffffffffffffffffffffffffff16815260200190815260200160002060008373ffffffffffffffffffffffffffffffffffffffff1673ffffffffffffffffffffffffffffffffffffffff16815260200190815260200160002060009054906101000a900460ff16905092915050565b60007f01ffc9a7000000000000000000000000000000000000000000000000000000007bffffffffffffffffffffffffffffffffffffffffffffffffffffffff1916827bffffffffffffffffffffffffffffffffffffffffffffffffffffffff1916149050919050565b6114c481611c81565b611503576040517f08c379a00000000000000000000000000000000000000000000000000000000081526004016114fa9061326d565b60405180910390fd5b50565b600081600001549050919050565b600033905090565b816004600083815260200190815260200160002060006101000a81548173ffffffffffffffffffffffffffffffffffffffff021916908373ffffffffffffffffffffffffffffffffffffffff160217905550808273ffffffffffffffffffffffffffffffffffffffff1661158f83610e52565b73ffffffffffffffffffffffffffffffffffffffff167f8c5be1e5ebec7d5bd14f71427d1e84f3dd0314c0f7b2291e5b200ac8c7c3b92560405160405180910390a45050565b6115ef828260405180602001604052806000815250611cc2565b5050565b6001816000016000828254019250508190555050565b60008061161583610e52565b90508073ffffffffffffffffffffffffffffffffffffffff168473ffffffffffffffffffffffffffffffffffffffff161480611657575061165681856113bd565b5b8061169557508373ffffffffffffffffffffffffffffffffffffffff1661167d84610600565b73ffffffffffffffffffffffffffffffffffffffff16145b91505092915050565b8273ffffffffffffffffffffffffffffffffffffffff166116be82610e52565b73ffffffffffffffffffffffffffffffffffffffff1614611714576040517f08c379a000000000000000000000000000000000000000000000000000000000815260040161170b9061354c565b60405180910390fd5b600073ffffffffffffffffffffffffffffffffffffffff168273ffffffffffffffffffffffffffffffffffffffff1603611783576040517f08c379a000000000000000000000000000000000000000000000000000000000815260040161177a906135de565b60405180910390fd5b6117908383836001611d1d565b8273ffffffffffffffffffffffffffffffffffffffff166117b082610e52565b73ffffffffffffffffffffffffffffffffffffffff1614611806576040517f08c379a00000000000000000000000000000000000000000000000000000000081526004016117fd9061354c565b60405180910390fd5b6004600082815260200190815260200160002060006101000a81549073ffffffffffffffffffffffffffffffffffffffff02191690556001600360008573ffffffffffffffffffffffffffffffffffffffff1673ffffffffffffffffffffffffffffffffffffffff168152602001908152602001600020600082825403925050819055506001600360008473ffffffffffffffffffffffffffffffffffffffff1673ffffffffffffffffffffffffffffffffffffffff16815260200190815260200160002060008282540192505081905550816002600083815260200190815260200160002060006101000a81548173ffffffffffffffffffffffffffffffffffffffff021916908373ffffffffffffffffffffffffffffffffffffffff160217905550808273ffffffffffffffffffffffffffffffffffffffff168473ffffffffffffffffffffffffffffffffffffffff167fddf252ad1be2c89b69c2b068fc378daa952ba7f163c4a11628f55a4df523b3ef60405160405180910390a46119928383836001611d23565b505050565b60006002600083815260200190815260200160002060009054906101000a900473ffffffffffffffffffffffffffffffffffffffff169050919050565b8173ffffffffffffffffffffffffffffffffffffffff168373ffffffffffffffffffffffffffffffffffffffff1603611a42576040517f08c379a0000000000000000000000000000000000000000000000000000000008152600401611a399061364a565b60405180910390fd5b80600560008573ffffffffffffffffffffffffffffffffffffffff1673ffffffffffffffffffffffffffffffffffffffff16815260200190815260200160002060008473ffffffffffffffffffffffffffffffffffffffff1673ffffffffffffffffffffffffffffffffffffffff16815260200190815260200160002060006101000a81548160ff0219169083151502179055508173ffffffffffffffffffffffffffffffffffffffff168373ffffffffffffffffffffffffffffffffffffffff167f17307eab39ab6107e8899845ad3d59bd9653f200f220920489ca2b5937696c3183604051611b339190612335565b60405180910390a3505050565b611b4b84848461169e565b611b5784848484611d29565b611b96576040517f08c379a0000000000000000000000000000000000000000000000000000000008152600401611b8d906136dc565b60405180910390fd5b50505050565b606060405180602001604052806000815250905090565b606060006001611bc284611eb0565b01905060008167ffffffffffffffff811115611be157611be06126ed565b5b6040519080825280601f01601f191660200182016040528015611c135781602001600182028036833780820191505090505b509050600082602001820190505b600115611c76578080600190039150507f3031323334353637383961626364656600000000000000000000000000000000600a86061a8153600a8581611c6a57611c696136fc565b5b04945060008503611c21575b819350505050919050565b60008073ffffffffffffffffffffffffffffffffffffffff16611ca383611997565b73ffffffffffffffffffffffffffffffffffffffff1614159050919050565b611ccc8383612003565b611cd96000848484611d29565b611d18576040517f08c379a0000000000000000000000000000000000000000000000000000000008152600401611d0f906136dc565b60405180910390fd5b505050565b50505050565b50505050565b6000611d4a8473ffffffffffffffffffffffffffffffffffffffff16612220565b15611ea3578373ffffffffffffffffffffffffffffffffffffffff1663150b7a02611d73611514565b8786866040518563ffffffff1660e01b8152600401611d959493929190613780565b6020604051808303816000875af1925050508015611dd157506040513d601f19601f82011682018060405250810190611dce91906137e1565b60015b611e53573d8060008114611e01576040519150601f19603f3d011682016040523d82523d6000602084013e611e06565b606091505b506000815103611e4b576040517f08c379a0000000000000000000000000000000000000000000000000000000008152600401611e42906136dc565b60405180910390fd5b805181602001fd5b63150b7a0260e01b7bffffffffffffffffffffffffffffffffffffffffffffffffffffffff1916817bffffffffffffffffffffffffffffffffffffffffffffffffffffffff191614915050611ea8565b600190505b949350505050565b600080600090507a184f03e93ff9f4daa797ed6e38ed64bf6a1f0100000000000000008310611f0e577a184f03e93ff9f4daa797ed6e38ed64bf6a1f0100000000000000008381611f0457611f036136fc565b5b0492506040810190505b6d04ee2d6d415b85acef81000000008310611f4b576d04ee2d6d415b85acef81000000008381611f4157611f406136fc565b5b0492506020810190505b662386f26fc100008310611f7a57662386f26fc100008381611f7057611f6f6136fc565b5b0492506010810190505b6305f5e1008310611fa3576305f5e1008381611f9957611f986136fc565b5b0492506008810190505b6127108310611fc8576127108381611fbe57611fbd6136fc565b5b0492506004810190505b60648310611feb5760648381611fe157611fe06136fc565b5b0492506002810190505b600a8310611ffa576001810190505b80915050919050565b600073ffffffffffffffffffffffffffffffffffffffff168273ffffffffffffffffffffffffffffffffffffffff1603612072576040517f08c379a00000000000000000000000000000000000000000000000000000000081526004016120699061385a565b60405180910390fd5b61207b81611c81565b156120bb576040517f08c379a00000000000000000000000000000000000000000000000000000000081526004016120b2906138c6565b60405180910390fd5b6120c9600083836001611d1d565b6120d281611c81565b15612112576040517f08c379a0000000000000000000000000000000000000000000000000000000008152600401612109906138c6565b60405180910390fd5b6001600360008473ffffffffffffffffffffffffffffffffffffffff1673ffffffffffffffffffffffffffffffffffffffff16815260200190815260200160002060008282540192505081905550816002600083815260200190815260200160002060006101000a81548173ffffffffffffffffffffffffffffffffffffffff021916908373ffffffffffffffffffffffffffffffffffffffff160217905550808273ffffffffffffffffffffffffffffffffffffffff16600073ffffffffffffffffffffffffffffffffffffffff167fddf252ad1be2c89b69c2b068fc378daa952ba7f163c4a11628f55a4df523b3ef60405160405180910390a461221c600083836001611d23565b5050565b6000808273ffffffffffffffffffffffffffffffffffffffff163b119050919050565b60405180608001604052806060815260200160608152602001600073ffffffffffffffffffffffffffffffffffffffff168152602001600081525090565b6000604051905090565b600080fd5b600080fd5b60007fffffffff0000000000000000000000000000000000000000000000000000000082169050919050565b6122ca81612295565b81146122d557600080fd5b50565b6000813590506122e7816122c1565b92915050565b6000602082840312156123035761230261228b565b5b6000612311848285016122d8565b91505092915050565b60008115159050919050565b61232f8161231a565b82525050565b600060208201905061234a6000830184612326565b92915050565b600081519050919050565b600082825260208201905092915050565b60005b8381101561238a57808201518184015260208101905061236f565b60008484015250505050565b6000601f19601f8301169050919050565b60006123b282612350565b6123bc818561235b565b93506123cc81856020860161236c565b6123d581612396565b840191505092915050565b600060208201905081810360008301526123fa81846123a7565b905092915050565b6000819050919050565b61241581612402565b811461242057600080fd5b50565b6000813590506124328161240c565b92915050565b60006020828403121561244e5761244d61228b565b5b600061245c84828501612423565b91505092915050565b600073ffffffffffffffffffffffffffffffffffffffff82169050919050565b600061249082612465565b9050919050565b6124a081612485565b82525050565b60006020820190506124bb6000830184612497565b92915050565b600081519050919050565b600082825260208201905092915050565b6000819050602082019050919050565b600082825260208201905092915050565b600061250982612350565b61251381856124ed565b935061252381856020860161236c565b61252c81612396565b840191505092915050565b61254081612485565b82525050565b61254f81612402565b82525050565b6000608083016000830151848203600086015261257282826124fe565b9150506020830151848203602086015261258c82826124fe565b91505060408301516125a16040860182612537565b5060608301516125b46060860182612546565b508091505092915050565b60006125cb8383612555565b905092915050565b6000602082019050919050565b60006125eb826124c1565b6125f581856124cc565b935083602082028501612607856124dd565b8060005b85811015612643578484038952815161262485826125bf565b945061262f836125d3565b925060208a0199505060018101905061260b565b50829750879550505050505092915050565b6000602082019050818103600083015261266f81846125e0565b905092915050565b61268081612485565b811461268b57600080fd5b50565b60008135905061269d81612677565b92915050565b600080604083850312156126ba576126b961228b565b5b60006126c88582860161268e565b92505060206126d985828601612423565b9150509250929050565b600080fd5b600080fd5b7f4e487b7100000000000000000000000000000000000000000000000000000000600052604160045260246000fd5b61272582612396565b810181811067ffffffffffffffff82111715612744576127436126ed565b5b80604052505050565b6000612757612281565b9050612763828261271c565b919050565b600067ffffffffffffffff821115612783576127826126ed565b5b61278c82612396565b9050602081019050919050565b82818337600083830152505050565b60006127bb6127b684612768565b61274d565b9050828152602081018484840111156127d7576127d66126e8565b5b6127e2848285612799565b509392505050565b600082601f8301126127ff576127fe6126e3565b5b813561280f8482602086016127a8565b91505092915050565b6000806000606084860312156128315761283061228b565b5b600084013567ffffffffffffffff81111561284f5761284e612290565b5b61285b868287016127ea565b935050602084013567ffffffffffffffff81111561287c5761287b612290565b5b612888868287016127ea565b92505060406128998682870161268e565b9150509250925092565b6000806000606084860312156128bc576128bb61228b565b5b60006128ca8682870161268e565b93505060206128db8682870161268e565b92505060406128ec86828701612423565b9150509250925092565b60006020828403121561290c5761290b61228b565b5b600061291a8482850161268e565b91505092915050565b61292c81612402565b82525050565b60006020820190506129476000830184612923565b92915050565b6000608082019050818103600083015261296781876123a7565b9050818103602083015261297b81866123a7565b905061298a6040830185612497565b6129976060830184612923565b95945050505050565b6129a98161231a565b81146129b457600080fd5b50565b6000813590506129c6816129a0565b92915050565b600080604083850312156129e3576129e261228b565b5b60006129f18582860161268e565b9250506020612a02858286016129b7565b9150509250929050565b600067ffffffffffffffff821115612a2757612a266126ed565b5b612a3082612396565b9050602081019050919050565b6000612a50612a4b84612a0c565b61274d565b905082815260208101848484011115612a6c57612a6b6126e8565b5b612a77848285612799565b509392505050565b600082601f830112612a9457612a936126e3565b5b8135612aa4848260208601612a3d565b91505092915050565b60008060008060808587031215612ac757612ac661228b565b5b6000612ad58782880161268e565b9450506020612ae68782880161268e565b9350506040612af787828801612423565b925050606085013567ffffffffffffffff811115612b1857612b17612290565b5b612b2487828801612a7f565b91505092959194509250565b60008060408385031215612b4757612b4661228b565b5b6000612b558582860161268e565b9250506020612b668582860161268e565b9150509250929050565b7f4e487b7100000000000000000000000000000000000000000000000000000000600052602260045260246000fd5b60006002820490506001821680612bb757607f821691505b602082108103612bca57612bc9612b70565b5b50919050565b7f4e487b7100000000000000000000000000000000000000000000000000000000600052603260045260246000fd5b7f4e487b7100000000000000000000000000000000000000000000000000000000600052601160045260246000fd5b6000612c3982612402565b91507fffffffffffffffffffffffffffffffffffffffffffffffffffffffffffffffff8203612c6b57612c6a612bff565b5b600182019050919050565b7f4552433732313a20617070726f76616c20746f2063757272656e74206f776e6560008201527f7200000000000000000000000000000000000000000000000000000000000000602082015250565b6000612cd260218361235b565b9150612cdd82612c76565b604082019050919050565b60006020820190508181036000830152612d0181612cc5565b9050919050565b7f4552433732313a20617070726f76652063616c6c6572206973206e6f7420746f60008201527f6b656e206f776e6572206f7220617070726f76656420666f7220616c6c000000602082015250565b6000612d64603d8361235b565b9150612d6f82612d08565b604082019050919050565b60006020820190508181036000830152612d9381612d57565b9050919050565b7f4f7267616e697a6174696f6e206e616d652063616e6e6f7420626520656d707460008201527f7900000000000000000000000000000000000000000000000000000000000000602082015250565b6000612df660218361235b565b9150612e0182612d9a565b604082019050919050565b60006020820190508181036000830152612e2581612de9565b9050919050565b7f4f7267616e697a6174696f6e206465736372697074696f6e2063616e6e6f742060008201527f626520656d707479000000000000000000000000000000000000000000000000602082015250565b6000612e8860288361235b565b9150612e9382612e2c565b604082019050919050565b60006020820190508181036000830152612eb781612e7b565b9050919050565b60008190508160005260206000209050919050565b60006020601f8301049050919050565b600082821b905092915050565b600060088302612f207fffffffffffffffffffffffffffffffffffffffffffffffffffffffffffffffff82612ee3565b612f2a8683612ee3565b95508019841693508086168417925050509392505050565b6000819050919050565b6000612f67612f62612f5d84612402565b612f42565b612402565b9050919050565b6000819050919050565b612f8183612f4c565b612f95612f8d82612f6e565b848454612ef0565b825550505050565b600090565b612faa612f9d565b612fb5818484612f78565b505050565b5b81811015612fd957612fce600082612fa2565b600181019050612fbb565b5050565b601f82111561301e57612fef81612ebe565b612ff884612ed3565b81016020851015613007578190505b61301b61301385612ed3565b830182612fba565b50505b505050565b600082821c905092915050565b600061304160001984600802613023565b1980831691505092915050565b600061305a8383613030565b9150826002028217905092915050565b61307382612350565b67ffffffffffffffff81111561308c5761308b6126ed565b5b6130968254612b9f565b6130a1828285612fdd565b600060209050601f8311600181146130d457600084156130c2578287015190505b6130cc858261304e565b865550613134565b601f1984166130e286612ebe565b60005b8281101561310a578489015182556001820191506020850194506020810190506130e5565b868310156131275784890151613123601f891682613030565b8355505b6001600288020188555050505b505050505050565b60006080820190506131516000830187612923565b818103602083015261316381866123a7565b9050818103604083015261317781856123a7565b90506131866060830184612497565b95945050505050565b7f4552433732313a2063616c6c6572206973206e6f7420746f6b656e206f776e6560008201527f72206f7220617070726f76656400000000000000000000000000000000000000602082015250565b60006131eb602d8361235b565b91506131f68261318f565b604082019050919050565b6000602082019050818103600083015261321a816131de565b9050919050565b7f4552433732313a20696e76616c696420746f6b656e2049440000000000000000600082015250565b600061325760188361235b565b915061326282613221565b602082019050919050565b600060208201905081810360008301526132868161324a565b9050919050565b7f4552433732313a2061646472657373207a65726f206973206e6f74206120766160008201527f6c6964206f776e65720000000000000000000000000000000000000000000000602082015250565b60006132e960298361235b565b91506132f48261328d565b604082019050919050565b60006020820190508181036000830152613318816132dc565b9050919050565b7f4f7267616e697a6174696f6e20646f6573206e6f742065786973740000000000600082015250565b6000613355601b8361235b565b91506133608261331f565b602082019050919050565b6000602082019050818103600083015261338481613348565b9050919050565b7f53656e742066756e6473206d7573742062652067726561746572207468616e2060008201527f3000000000000000000000000000000000000000000000000000000000000000602082015250565b60006133e760218361235b565b91506133f28261338b565b604082019050919050565b60006020820190508181036000830152613416816133da565b9050919050565b600061342882612402565b915061343383612402565b925082820190508082111561344b5761344a612bff565b5b92915050565b60006040820190506134666000830185612923565b6134736020830184612923565b9392505050565b600081905092915050565b600061349082612350565b61349a818561347a565b93506134aa81856020860161236c565b80840191505092915050565b60006134c28285613485565b91506134ce8284613485565b91508190509392505050565b7f4552433732313a207472616e736665722066726f6d20696e636f72726563742060008201527f6f776e6572000000000000000000000000000000000000000000000000000000602082015250565b600061353660258361235b565b9150613541826134da565b604082019050919050565b6000602082019050818103600083015261356581613529565b9050919050565b7f4552433732313a207472616e7366657220746f20746865207a65726f2061646460008201527f7265737300000000000000000000000000000000000000000000000000000000602082015250565b60006135c860248361235b565b91506135d38261356c565b604082019050919050565b600060208201905081810360008301526135f7816135bb565b9050919050565b7f4552433732313a20617070726f766520746f2063616c6c657200000000000000600082015250565b600061363460198361235b565b915061363f826135fe565b602082019050919050565b6000602082019050818103600083015261366381613627565b9050919050565b7f4552433732313a207472616e7366657220746f206e6f6e20455243373231526560008201527f63656976657220696d706c656d656e7465720000000000000000000000000000602082015250565b60006136c660328361235b565b91506136d18261366a565b604082019050919050565b600060208201905081810360008301526136f5816136b9565b9050919050565b7f4e487b7100000000000000000000000000000000000000000000000000000000600052601260045260246000fd5b600081519050919050565b600082825260208201905092915050565b60006137528261372b565b61375c8185613736565b935061376c81856020860161236c565b61377581612396565b840191505092915050565b60006080820190506137956000830187612497565b6137a26020830186612497565b6137af6040830185612923565b81810360608301526137c18184613747565b905095945050505050565b6000815190506137db816122c1565b92915050565b6000602082840312156137f7576137f661228b565b5b6000613805848285016137cc565b91505092915050565b7f4552433732313a206d696e7420746f20746865207a65726f2061646472657373600082015250565b600061384460208361235b565b915061384f8261380e565b602082019050919050565b6000602082019050818103600083015261387381613837565b9050919050565b7f4552433732313a20746f6b656e20616c7265616479206d696e74656400000000600082015250565b60006138b0601c8361235b565b91506138bb8261387a565b602082019050919050565b600060208201905081810360008301526138df816138a3565b905091905056fea26469706673582212203682ba8347726e745f33dec3729e1af43644fdf7ad866695e46f08992ef81c8464736f6c63430008110033",
  "linkReferences": {},
  "deployedLinkReferences": {}
}