{
  "_format": "hh-sol-artifact-1",
  "contractName": "OrganizationNFT",
  "sourceName": "contracts/contract.sol",
  "abi": [
    {
      "inputs": [],
      "stateMutability": "nonpayable",
      "type": "constructor"
    },
    {
      "anonymous": false,
      "inputs": [
        {
          "indexed": true,
          "internalType": "address",
          "name": "owner",
          "type": "address"
        },
        {
          "indexed": true,
          "internalType": "address",
          "name": "approved",
          "type": "address"
        },
        {
          "indexed": true,
          "internalType": "uint256",
          "name": "tokenId",
          "type": "uint256"
        }
      ],
      "name": "Approval",
      "type": "event"
    },
    {
      "anonymous": false,
      "inputs": [
        {
          "indexed": true,
          "internalType": "address",
          "name": "owner",
          "type": "address"
        },
        {
          "indexed": true,
          "internalType": "address",
          "name": "operator",
          "type": "address"
        },
        {
          "indexed": false,
          "internalType": "bool",
          "name": "approved",
          "type": "bool"
        }
      ],
      "name": "ApprovalForAll",
      "type": "event"
    },
    {
      "anonymous": false,
      "inputs": [
        {
          "indexed": false,
          "internalType": "uint256",
          "name": "organizationId",
          "type": "uint256"
        },
        {
          "indexed": false,
          "internalType": "uint256",
          "name": "categoryId",
          "type": "uint256"
        },
        {
          "indexed": false,
          "internalType": "string",
          "name": "categoryName",
          "type": "string"
        }
      ],
      "name": "CategoryCreated",
      "type": "event"
    },
    {
      "anonymous": false,
      "inputs": [
        {
          "indexed": false,
          "internalType": "uint256",
          "name": "organizationId",
          "type": "uint256"
        },
        {
          "indexed": false,
          "internalType": "uint256",
          "name": "categoryId",
          "type": "uint256"
        },
        {
          "indexed": false,
          "internalType": "string",
          "name": "categoryName",
          "type": "string"
        },
        {
          "indexed": false,
          "internalType": "uint256",
          "name": "amount",
          "type": "uint256"
        }
      ],
      "name": "FundsSent",
      "type": "event"
    },
    {
      "anonymous": false,
      "inputs": [
        {
          "indexed": true,
          "internalType": "address",
          "name": "organization",
          "type": "address"
        },
        {
          "indexed": true,
          "internalType": "address",
          "name": "recipient",
          "type": "address"
        },
        {
          "indexed": false,
          "internalType": "uint256",
          "name": "amount",
          "type": "uint256"
        }
      ],
      "name": "FundsSentToAccount",
      "type": "event"
    },
    {
      "anonymous": false,
      "inputs": [
        {
          "indexed": false,
          "internalType": "uint256",
          "name": "organizationId",
          "type": "uint256"
        },
        {
          "indexed": false,
          "internalType": "string",
          "name": "name",
          "type": "string"
        },
        {
          "indexed": false,
          "internalType": "string",
          "name": "description",
          "type": "string"
        },
        {
          "indexed": false,
          "internalType": "address",
          "name": "organizationAddress",
          "type": "address"
        },
        {
          "indexed": false,
          "internalType": "string",
          "name": "chain_address",
          "type": "string"
        }
      ],
      "name": "OrganizationRegistered",
      "type": "event"
    },
    {
      "anonymous": false,
      "inputs": [
        {
          "indexed": true,
          "internalType": "address",
          "name": "previousOwner",
          "type": "address"
        },
        {
          "indexed": true,
          "internalType": "address",
          "name": "newOwner",
          "type": "address"
        }
      ],
      "name": "OwnershipTransferred",
      "type": "event"
    },
    {
      "anonymous": false,
      "inputs": [
        {
          "indexed": true,
          "internalType": "address",
          "name": "from",
          "type": "address"
        },
        {
          "indexed": true,
          "internalType": "address",
          "name": "to",
          "type": "address"
        },
        {
          "indexed": true,
          "internalType": "uint256",
          "name": "tokenId",
          "type": "uint256"
        }
      ],
      "name": "Transfer",
      "type": "event"
    },
    {
      "inputs": [
        {
          "internalType": "uint256",
          "name": "_organizationId",
          "type": "uint256"
        },
        {
          "internalType": "uint256",
          "name": "_ExpenditureCategoryId",
          "type": "uint256"
        },
        {
          "internalType": "address",
          "name": "_destinationAddress",
          "type": "address"
        },
        {
          "internalType": "uint256",
          "name": "_amount",
          "type": "uint256"
        }
      ],
      "name": "OrganizationSpend",
      "outputs": [],
      "stateMutability": "nonpayable",
      "type": "function"
    },
    {
      "inputs": [
        {
          "internalType": "address",
          "name": "to",
          "type": "address"
        },
        {
          "internalType": "uint256",
          "name": "tokenId",
          "type": "uint256"
        }
      ],
      "name": "approve",
      "outputs": [],
      "stateMutability": "nonpayable",
      "type": "function"
    },
    {
      "inputs": [
        {
          "internalType": "address",
          "name": "owner",
          "type": "address"
        }
      ],
      "name": "balanceOf",
      "outputs": [
        {
          "internalType": "uint256",
          "name": "",
          "type": "uint256"
        }
      ],
      "stateMutability": "view",
      "type": "function"
    },
    {
      "inputs": [
        {
          "internalType": "uint256",
          "name": "_organizationId",
          "type": "uint256"
        },
        {
          "internalType": "string",
          "name": "_categoryName",
          "type": "string"
        }
      ],
      "name": "createCategory",
      "outputs": [],
      "stateMutability": "nonpayable",
      "type": "function"
    },
    {
      "inputs": [
        {
          "internalType": "uint256",
          "name": "_organizationId",
          "type": "uint256"
        },
        {
          "internalType": "string",
          "name": "_categoryName",
          "type": "string"
        }
      ],
      "name": "createExpenditureCategory",
      "outputs": [],
      "stateMutability": "nonpayable",
      "type": "function"
    },
    {
      "inputs": [],
      "name": "getAllOrganizations",
      "outputs": [
        {
          "internalType": "string[]",
          "name": "names",
          "type": "string[]"
        },
        {
          "internalType": "string[]",
          "name": "descriptions",
          "type": "string[]"
        },
        {
          "internalType": "address[]",
          "name": "addressesOfOrg",
          "type": "address[]"
        },
        {
          "internalType": "uint256[]",
          "name": "funds",
          "type": "uint256[]"
        }
      ],
      "stateMutability": "view",
      "type": "function"
    },
    {
      "inputs": [
        {
          "internalType": "uint256",
          "name": "tokenId",
          "type": "uint256"
        }
      ],
      "name": "getApproved",
      "outputs": [
        {
          "internalType": "address",
          "name": "",
          "type": "address"
        }
      ],
      "stateMutability": "view",
      "type": "function"
    },
    {
      "inputs": [
        {
          "internalType": "uint256",
          "name": "_organizationId",
          "type": "uint256"
        }
      ],
      "name": "getCategoryBalances",
      "outputs": [
        {
          "internalType": "uint256[]",
          "name": "categoryIds",
          "type": "uint256[]"
        },
        {
          "internalType": "string[]",
          "name": "categoryNames",
          "type": "string[]"
        },
        {
          "internalType": "uint256[]",
          "name": "categoryBalances",
          "type": "uint256[]"
        }
      ],
      "stateMutability": "view",
      "type": "function"
    },
    {
      "inputs": [
        {
          "internalType": "uint256",
          "name": "_organizationId",
          "type": "uint256"
        }
      ],
      "name": "getOrganizationDetails",
      "outputs": [
        {
          "internalType": "string",
          "name": "name",
          "type": "string"
        },
        {
          "internalType": "string",
          "name": "description",
          "type": "string"
        },
        {
          "internalType": "address",
          "name": "organizationAddress",
          "type": "address"
        },
        {
          "internalType": "uint256",
          "name": "funds",
          "type": "uint256"
        },
        {
          "internalType": "string[]",
          "name": "categoryNames",
          "type": "string[]"
        },
        {
          "internalType": "uint256[]",
          "name": "categorybalance",
          "type": "uint256[]"
        },
        {
          "internalType": "string[]",
          "name": "expenditureCategoryNames",
          "type": "string[]"
        },
        {
          "internalType": "uint256[]",
          "name": "expenditureCategorybalance",
          "type": "uint256[]"
        },
        {
          "internalType": "string",
          "name": "chain_address",
          "type": "string"
        }
      ],
      "stateMutability": "view",
      "type": "function"
    },
    {
      "inputs": [],
      "name": "getOrganizationsByAddress",
      "outputs": [
        {
          "internalType": "uint256",
          "name": "org_id",
          "type": "uint256"
        }
      ],
      "stateMutability": "view",
      "type": "function"
    },
    {
      "inputs": [
        {
          "internalType": "address",
          "name": "owner",
          "type": "address"
        },
        {
          "internalType": "address",
          "name": "operator",
          "type": "address"
        }
      ],
      "name": "isApprovedForAll",
      "outputs": [
        {
          "internalType": "bool",
          "name": "",
          "type": "bool"
        }
      ],
      "stateMutability": "view",
      "type": "function"
    },
    {
      "inputs": [],
      "name": "name",
      "outputs": [
        {
          "internalType": "string",
          "name": "",
          "type": "string"
        }
      ],
      "stateMutability": "view",
      "type": "function"
    },
    {
      "inputs": [],
      "name": "owner",
      "outputs": [
        {
          "internalType": "address",
          "name": "",
          "type": "address"
        }
      ],
      "stateMutability": "view",
      "type": "function"
    },
    {
      "inputs": [
        {
          "internalType": "uint256",
          "name": "tokenId",
          "type": "uint256"
        }
      ],
      "name": "ownerOf",
      "outputs": [
        {
          "internalType": "address",
          "name": "",
          "type": "address"
        }
      ],
      "stateMutability": "view",
      "type": "function"
    },
    {
      "inputs": [
        {
          "internalType": "string",
          "name": "_name",
          "type": "string"
        },
        {
          "internalType": "string",
          "name": "_description",
          "type": "string"
        },
        {
          "internalType": "string",
          "name": "chain_address",
          "type": "string"
        }
      ],
      "name": "registerOrganization",
      "outputs": [
        {
          "internalType": "uint256",
          "name": "",
          "type": "uint256"
        }
      ],
      "stateMutability": "nonpayable",
      "type": "function"
    },
    {
      "inputs": [],
      "name": "renounceOwnership",
      "outputs": [],
      "stateMutability": "nonpayable",
      "type": "function"
    },
    {
      "inputs": [
        {
          "internalType": "address",
          "name": "from",
          "type": "address"
        },
        {
          "internalType": "address",
          "name": "to",
          "type": "address"
        },
        {
          "internalType": "uint256",
          "name": "tokenId",
          "type": "uint256"
        }
      ],
      "name": "safeTransferFrom",
      "outputs": [],
      "stateMutability": "nonpayable",
      "type": "function"
    },
    {
      "inputs": [
        {
          "internalType": "address",
          "name": "from",
          "type": "address"
        },
        {
          "internalType": "address",
          "name": "to",
          "type": "address"
        },
        {
          "internalType": "uint256",
          "name": "tokenId",
          "type": "uint256"
        },
        {
          "internalType": "bytes",
          "name": "data",
          "type": "bytes"
        }
      ],
      "name": "safeTransferFrom",
      "outputs": [],
      "stateMutability": "nonpayable",
      "type": "function"
    },
    {
      "inputs": [
        {
          "internalType": "uint256",
          "name": "_organizationId",
          "type": "uint256"
        },
        {
          "internalType": "uint256",
          "name": "_categoryId",
          "type": "uint256"
        }
      ],
      "name": "sendFunds",
      "outputs": [],
      "stateMutability": "payable",
      "type": "function"
    },
    {
      "inputs": [
        {
          "internalType": "address",
          "name": "operator",
          "type": "address"
        },
        {
          "internalType": "bool",
          "name": "approved",
          "type": "bool"
        }
      ],
      "name": "setApprovalForAll",
      "outputs": [],
      "stateMutability": "nonpayable",
      "type": "function"
    },
    {
      "inputs": [
        {
          "internalType": "bytes4",
          "name": "interfaceId",
          "type": "bytes4"
        }
      ],
      "name": "supportsInterface",
      "outputs": [
        {
          "internalType": "bool",
          "name": "",
          "type": "bool"
        }
      ],
      "stateMutability": "view",
      "type": "function"
    },
    {
      "inputs": [],
      "name": "symbol",
      "outputs": [
        {
          "internalType": "string",
          "name": "",
          "type": "string"
        }
      ],
      "stateMutability": "view",
      "type": "function"
    },
    {
      "inputs": [
        {
          "internalType": "uint256",
          "name": "tokenId",
          "type": "uint256"
        }
      ],
      "name": "tokenURI",
      "outputs": [
        {
          "internalType": "string",
          "name": "",
          "type": "string"
        }
      ],
      "stateMutability": "view",
      "type": "function"
    },
    {
      "inputs": [
        {
          "internalType": "address",
          "name": "from",
          "type": "address"
        },
        {
          "internalType": "address",
          "name": "to",
          "type": "address"
        },
        {
          "internalType": "uint256",
          "name": "tokenId",
          "type": "uint256"
        }
      ],
      "name": "transferFrom",
      "outputs": [],
      "stateMutability": "nonpayable",
      "type": "function"
    },
    {
      "inputs": [
        {
          "internalType": "address",
          "name": "newOwner",
          "type": "address"
        }
      ],
      "name": "transferOwnership",
      "outputs": [],
      "stateMutability": "nonpayable",
      "type": "function"
    }
  ],
  "bytecode": "0x60806040523480156200001157600080fd5b506040518060400160405280600f81526020017f4f7267616e697a6174696f6e4e465400000000000000000000000000000000008152506040518060400160405280600381526020017f4f5247000000000000000000000000000000000000000000000000000000000081525081600090816200008f919062000412565b508060019081620000a1919062000412565b505050620000c4620000b8620000ca60201b60201c565b620000d260201b60201c565b620004f9565b600033905090565b6000600660009054906101000a900473ffffffffffffffffffffffffffffffffffffffff16905081600660006101000a81548173ffffffffffffffffffffffffffffffffffffffff021916908373ffffffffffffffffffffffffffffffffffffffff1602179055508173ffffffffffffffffffffffffffffffffffffffff168173ffffffffffffffffffffffffffffffffffffffff167f8be0079c531659141344cd1fd0a4f28419497f9722a3daafe3b4186f6b6457e060405160405180910390a35050565b600081519050919050565b7f4e487b7100000000000000000000000000000000000000000000000000000000600052604160045260246000fd5b7f4e487b7100000000000000000000000000000000000000000000000000000000600052602260045260246000fd5b600060028204905060018216806200021a57607f821691505b60208210810362000230576200022f620001d2565b5b50919050565b60008190508160005260206000209050919050565b60006020601f8301049050919050565b600082821b905092915050565b6000600883026200029a7fffffffffffffffffffffffffffffffffffffffffffffffffffffffffffffffff826200025b565b620002a686836200025b565b95508019841693508086168417925050509392505050565b6000819050919050565b6000819050919050565b6000620002f3620002ed620002e784620002be565b620002c8565b620002be565b9050919050565b6000819050919050565b6200030f83620002d2565b620003276200031e82620002fa565b84845462000268565b825550505050565b600090565b6200033e6200032f565b6200034b81848462000304565b505050565b5b8181101562000373576200036760008262000334565b60018101905062000351565b5050565b601f821115620003c2576200038c8162000236565b62000397846200024b565b81016020851015620003a7578190505b620003bf620003b6856200024b565b83018262000350565b50505b505050565b600082821c905092915050565b6000620003e760001984600802620003c7565b1980831691505092915050565b6000620004028383620003d4565b9150826002028217905092915050565b6200041d8262000198565b67ffffffffffffffff811115620004395762000438620001a3565b5b62000445825462000201565b6200045282828562000377565b600060209050601f8311600181146200048a576000841562000475578287015190505b620004818582620003f4565b865550620004f1565b601f1984166200049a8662000236565b60005b82811015620004c4578489015182556001820191506020850194506020810190506200049d565b86831015620004e45784890151620004e0601f891682620003d4565b8355505b6001600288020188555050505b505050505050565b61511a80620005096000396000f3fe6080604052600436106101665760003560e01c80638da5cb5b116100d1578063bebae9e71161008a578063e985e9c511610064578063e985e9c514610560578063f2fde38b1461059d578063f7868a52146105c6578063f7bffd33146105ef57610166565b8063bebae9e7146104dc578063c87b56dd146104f8578063d9ace8911461053557610166565b80638da5cb5b146103cc57806395d89b41146103f7578063999dc08d14610422578063a22cb46514610461578063b3c7c8461461048a578063b88d4fde146104b357610166565b80632ee5144f116101235780632ee5144f1461029057806342842e0e146102cd5780636352211e146102f657806370a0823114610333578063715018a61461037057806379bb57b41461038757610166565b806301ffc9a71461016b57806306fdde03146101a8578063081812fc146101d3578063086ed93814610210578063095ea7b31461023e57806323b872dd14610267575b600080fd5b34801561017757600080fd5b50610192600480360381019061018d9190613308565b610618565b60405161019f9190613350565b60405180910390f35b3480156101b457600080fd5b506101bd6106fa565b6040516101ca91906133fb565b60405180910390f35b3480156101df57600080fd5b506101fa60048036038101906101f59190613453565b61078c565b60405161020791906134c1565b60405180910390f35b34801561021c57600080fd5b506102256107d2565b6040516102359493929190613764565b60405180910390f35b34801561024a57600080fd5b50610265600480360381019061026091906137f1565b610b64565b005b34801561027357600080fd5b5061028e60048036038101906102899190613831565b610c7b565b005b34801561029c57600080fd5b506102b760048036038101906102b291906139b9565b610cdb565b6040516102c49190613a6f565b60405180910390f35b3480156102d957600080fd5b506102f460048036038101906102ef9190613831565b610e6d565b005b34801561030257600080fd5b5061031d60048036038101906103189190613453565b610e8d565b60405161032a91906134c1565b60405180910390f35b34801561033f57600080fd5b5061035a60048036038101906103559190613a8a565b610f13565b6040516103679190613a6f565b60405180910390f35b34801561037c57600080fd5b50610385610fca565b005b34801561039357600080fd5b506103ae60048036038101906103a99190613453565b610fde565b6040516103c399989796959493929190613ab7565b60405180910390f35b3480156103d857600080fd5b506103e1611596565b6040516103ee91906134c1565b60405180910390f35b34801561040357600080fd5b5061040c6115c0565b60405161041991906133fb565b60405180910390f35b34801561042e57600080fd5b5061044960048036038101906104449190613453565b611652565b60405161045893929190613b75565b60405180910390f35b34801561046d57600080fd5b5061048860048036038101906104839190613bed565b6118d3565b005b34801561049657600080fd5b506104b160048036038101906104ac9190613c2d565b6118e9565b005b3480156104bf57600080fd5b506104da60048036038101906104d59190613d35565b611bd9565b005b6104f660048036038101906104f19190613db8565b611c3b565b005b34801561050457600080fd5b5061051f600480360381019061051a9190613453565b611e27565b60405161052c91906133fb565b60405180910390f35b34801561054157600080fd5b5061054a611e8f565b6040516105579190613a6f565b60405180910390f35b34801561056c57600080fd5b5061058760048036038101906105829190613df8565b611f49565b6040516105949190613350565b60405180910390f35b3480156105a957600080fd5b506105c460048036038101906105bf9190613a8a565b611fdd565b005b3480156105d257600080fd5b506105ed60048036038101906105e89190613e38565b612060565b005b3480156105fb57600080fd5b5061061660048036038101906106119190613e38565b6121e3565b005b60007f80ac58cd000000000000000000000000000000000000000000000000000000007bffffffffffffffffffffffffffffffffffffffffffffffffffffffff1916827bffffffffffffffffffffffffffffffffffffffffffffffffffffffff191614806106e357507f5b5e139f000000000000000000000000000000000000000000000000000000007bffffffffffffffffffffffffffffffffffffffffffffffffffffffff1916827bffffffffffffffffffffffffffffffffffffffffffffffffffffffff1916145b806106f357506106f282612366565b5b9050919050565b60606000805461070990613ec3565b80601f016020809104026020016040519081016040528092919081815260200182805461073590613ec3565b80156107825780601f1061075757610100808354040283529160200191610782565b820191906000526020600020905b81548152906001019060200180831161076557829003601f168201915b5050505050905090565b6000610797826123d0565b6004600083815260200190815260200160002060009054906101000a900473ffffffffffffffffffffffffffffffffffffffff169050919050565b6060806060806107e2600761241b565b67ffffffffffffffff8111156107fb576107fa61388e565b5b60405190808252806020026020018201604052801561082e57816020015b60608152602001906001900390816108195790505b50935061083b600761241b565b67ffffffffffffffff8111156108545761085361388e565b5b60405190808252806020026020018201604052801561088757816020015b60608152602001906001900390816108725790505b509250610894600761241b565b67ffffffffffffffff8111156108ad576108ac61388e565b5b6040519080825280602002602001820160405280156108db5781602001602082028036833780820191505090505b5091506108e8600761241b565b67ffffffffffffffff8111156109015761090061388e565b5b60405190808252806020026020018201604052801561092f5781602001602082028036833780820191505090505b50905060005b61093f600761241b565b811015610b5d57600060096000838152602001908152602001600020905080600001805461096c90613ec3565b80601f016020809104026020016040519081016040528092919081815260200182805461099890613ec3565b80156109e55780601f106109ba576101008083540402835291602001916109e5565b820191906000526020600020905b8154815290600101906020018083116109c857829003601f168201915b50505050508683815181106109fd576109fc613ef4565b5b6020026020010181905250806001018054610a1790613ec3565b80601f0160208091040260200160405190810160405280929190818152602001828054610a4390613ec3565b8015610a905780601f10610a6557610100808354040283529160200191610a90565b820191906000526020600020905b815481529060010190602001808311610a7357829003601f168201915b5050505050858381518110610aa857610aa7613ef4565b5b60200260200101819052508060020160009054906101000a900473ffffffffffffffffffffffffffffffffffffffff16848381518110610aeb57610aea613ef4565b5b602002602001019073ffffffffffffffffffffffffffffffffffffffff16908173ffffffffffffffffffffffffffffffffffffffff16815250508060030154838381518110610b3d57610b3c613ef4565b5b602002602001018181525050508080610b5590613f52565b915050610935565b5090919293565b6000610b6f82610e8d565b90508073ffffffffffffffffffffffffffffffffffffffff168373ffffffffffffffffffffffffffffffffffffffff1603610bdf576040517f08c379a0000000000000000000000000000000000000000000000000000000008152600401610bd69061400c565b60405180910390fd5b8073ffffffffffffffffffffffffffffffffffffffff16610bfe612429565b73ffffffffffffffffffffffffffffffffffffffff161480610c2d5750610c2c81610c27612429565b611f49565b5b610c6c576040517f08c379a0000000000000000000000000000000000000000000000000000000008152600401610c639061409e565b60405180910390fd5b610c768383612431565b505050565b610c8c610c86612429565b826124ea565b610ccb576040517f08c379a0000000000000000000000000000000000000000000000000000000008152600401610cc290614130565b60405180910390fd5b610cd683838361257f565b505050565b600080845111610d20576040517f08c379a0000000000000000000000000000000000000000000000000000000008152600401610d17906141c2565b60405180910390fd5b6000835111610d64576040517f08c379a0000000000000000000000000000000000000000000000000000000008152600401610d5b90614254565b60405180910390fd5b6000610d70600761241b565b9050610d7c3382612878565b600060096000838152602001908152602001600020905085816000019081610da49190614420565b5084816001019081610db69190614420565b50338160020160006101000a81548173ffffffffffffffffffffffffffffffffffffffff021916908373ffffffffffffffffffffffffffffffffffffffff1602179055506000816003018190555060008160050181905550600081600701819055507fd50c654c242d07d2c6d58e78293597b9e9038da1cc2060aa9e43310ec1a3a5bf8287873388604051610e4f9594939291906144f2565b60405180910390a1610e616007612896565b81925050509392505050565b610e8883838360405180602001604052806000815250611bd9565b505050565b600080610e99836128ac565b9050600073ffffffffffffffffffffffffffffffffffffffff168173ffffffffffffffffffffffffffffffffffffffff1603610f0a576040517f08c379a0000000000000000000000000000000000000000000000000000000008152600401610f01906145a6565b60405180910390fd5b80915050919050565b60008073ffffffffffffffffffffffffffffffffffffffff168273ffffffffffffffffffffffffffffffffffffffff1603610f83576040517f08c379a0000000000000000000000000000000000000000000000000000000008152600401610f7a90614638565b60405180910390fd5b600360008373ffffffffffffffffffffffffffffffffffffffff1673ffffffffffffffffffffffffffffffffffffffff168152602001908152602001600020549050919050565b610fd26128e9565b610fdc6000612967565b565b60608060008060608060608060606000600960008c815260200190815260200160002090506000816005015490508067ffffffffffffffff8111156110265761102561388e565b5b60405190808252806020026020018201604052801561105957816020015b60608152602001906001900390816110445790505b50965060005b8181101561113957826004016000828152602001908152602001600020600001805461108a90613ec3565b80601f01602080910402602001604051908101604052809291908181526020018280546110b690613ec3565b80156111035780601f106110d857610100808354040283529160200191611103565b820191906000526020600020905b8154815290600101906020018083116110e657829003601f168201915b505050505088828151811061111b5761111a613ef4565b5b6020026020010181905250808061113190613f52565b91505061105f565b508067ffffffffffffffff8111156111545761115361388e565b5b6040519080825280602002602001820160405280156111825781602001602082028036833780820191505090505b50955060005b818110156111db57826004016000828152602001908152602001600020600101548782815181106111bc576111bb613ef4565b5b60200260200101818152505080806111d390613f52565b915050611188565b506000826007015490508167ffffffffffffffff8111156111ff576111fe61388e565b5b60405190808252806020026020018201604052801561123257816020015b606081526020019060019003908161121d5790505b5095508167ffffffffffffffff81111561124f5761124e61388e565b5b60405190808252806020026020018201604052801561127d5781602001602082028036833780820191505090505b50945060005b818110156113955783600601600082815260200190815260200160002060000180546112ae90613ec3565b80601f01602080910402602001604051908101604052809291908181526020018280546112da90613ec3565b80156113275780601f106112fc57610100808354040283529160200191611327565b820191906000526020600020905b81548152906001019060200180831161130a57829003601f168201915b505050505087828151811061133f5761133e613ef4565b5b60200260200101819052508360060160008281526020019081526020016000206001015486828151811061137657611375613ef4565b5b602002602001018181525050808061138d90613f52565b915050611283565b5082600001836001018460020160009054906101000a900473ffffffffffffffffffffffffffffffffffffffff1685600301548b8b8b8b8a6008018880546113dc90613ec3565b80601f016020809104026020016040519081016040528092919081815260200182805461140890613ec3565b80156114555780601f1061142a57610100808354040283529160200191611455565b820191906000526020600020905b81548152906001019060200180831161143857829003601f168201915b5050505050985087805461146890613ec3565b80601f016020809104026020016040519081016040528092919081815260200182805461149490613ec3565b80156114e15780601f106114b6576101008083540402835291602001916114e1565b820191906000526020600020905b8154815290600101906020018083116114c457829003601f168201915b505050505097508080546114f490613ec3565b80601f016020809104026020016040519081016040528092919081815260200182805461152090613ec3565b801561156d5780601f106115425761010080835404028352916020019161156d565b820191906000526020600020905b81548152906001019060200180831161155057829003601f168201915b505050505090509b509b509b509b509b509b509b509b509b505050509193959799909294969850565b6000600660009054906101000a900473ffffffffffffffffffffffffffffffffffffffff16905090565b6060600180546115cf90613ec3565b80601f01602080910402602001604051908101604052809291908181526020018280546115fb90613ec3565b80156116485780601f1061161d57610100808354040283529160200191611648565b820191906000526020600020905b81548152906001019060200180831161162b57829003601f168201915b5050505050905090565b60608060606000600960008681526020019081526020016000209050600061167a600761241b565b90508067ffffffffffffffff8111156116965761169561388e565b5b6040519080825280602002602001820160405280156116c45781602001602082028036833780820191505090505b5094508067ffffffffffffffff8111156116e1576116e061388e565b5b60405190808252806020026020018201604052801561171457816020015b60608152602001906001900390816116ff5790505b5093508067ffffffffffffffff8111156117315761173061388e565b5b60405190808252806020026020018201604052801561175f5781602001602082028036833780820191505090505b5092506000805b828110156118c85760008460040160008381526020019081526020016000206001015411156118b557808783815181106117a3576117a2613ef4565b5b60200260200101818152505083600401600082815260200190815260200160002060000180546117d290613ec3565b80601f01602080910402602001604051908101604052809291908181526020018280546117fe90613ec3565b801561184b5780601f106118205761010080835404028352916020019161184b565b820191906000526020600020905b81548152906001019060200180831161182e57829003601f168201915b505050505086838151811061186357611862613ef4565b5b60200260200101819052508360040160008281526020019081526020016000206001015485838151811061189a57611899613ef4565b5b60200260200101818152505081806118b190613f52565b9250505b80806118c090613f52565b915050611766565b505050509193909250565b6118e56118de612429565b8383612a2d565b5050565b833373ffffffffffffffffffffffffffffffffffffffff1661190a82610e8d565b73ffffffffffffffffffffffffffffffffffffffff1614611960576040517f08c379a0000000000000000000000000000000000000000000000000000000008152600401611957906146ca565b60405180910390fd5b6000600960008781526020019081526020016000209050600073ffffffffffffffffffffffffffffffffffffffff168160020160009054906101000a900473ffffffffffffffffffffffffffffffffffffffff1673ffffffffffffffffffffffffffffffffffffffff1603611a0a576040517f08c379a0000000000000000000000000000000000000000000000000000000008152600401611a0190614736565b60405180910390fd5b8281600301541015611a51576040517f08c379a0000000000000000000000000000000000000000000000000000000008152600401611a48906147c8565b60405180910390fd5b828160060160008781526020019081526020016000206001016000828254611a7991906147e8565b9250508190555082816003016000828254611a94919061481c565b9250508190555060008473ffffffffffffffffffffffffffffffffffffffff1684604051611ac190614881565b60006040518083038185875af1925050503d8060008114611afe576040519150601f19603f3d011682016040523d82523d6000602084013e611b03565b606091505b5050905080611b47576040517f08c379a0000000000000000000000000000000000000000000000000000000008152600401611b3e906148e2565b60405180910390fd5b8473ffffffffffffffffffffffffffffffffffffffff168260020160009054906101000a900473ffffffffffffffffffffffffffffffffffffffff1673ffffffffffffffffffffffffffffffffffffffff167fa8d7ac3496d95eb01aaa74f93561801a369f5067e6b6e0a8a0a97416e4f055a686604051611bc89190613a6f565b60405180910390a350505050505050565b611bea611be4612429565b836124ea565b611c29576040517f08c379a0000000000000000000000000000000000000000000000000000000008152600401611c2090614130565b60405180910390fd5b611c3584848484612b99565b50505050565b6000600960008481526020019081526020016000209050600073ffffffffffffffffffffffffffffffffffffffff168160020160009054906101000a900473ffffffffffffffffffffffffffffffffffffffff1673ffffffffffffffffffffffffffffffffffffffff1603611ce5576040517f08c379a0000000000000000000000000000000000000000000000000000000008152600401611cdc90614736565b60405180910390fd5b6000816004016000848152602001908152602001600020600101541015611d41576040517f08c379a0000000000000000000000000000000000000000000000000000000008152600401611d389061494e565b60405180910390fd5b60003411611d84576040517f08c379a0000000000000000000000000000000000000000000000000000000008152600401611d7b906149e0565b60405180910390fd5b348160040160008481526020019081526020016000206001016000828254611dac91906147e8565b9250508190555034816003016000828254611dc791906147e8565b925050819055507f3ac15109a7fb8838358b1ff2e8a09a5ad4318ec4c42a5fb24cc1bcb786cf1049838383600401600086815260200190815260200160002060000134604051611e1a9493929190614a84565b60405180910390a1505050565b6060611e32826123d0565b6000611e3c612bf5565b90506000815111611e5c5760405180602001604052806000815250611e87565b80611e6684612c0c565b604051602001611e77929190614b0c565b6040516020818303038152906040525b915050919050565b600080600090505b611ea1600761241b565b811015611f405760006009600083815260200190815260200160002090503373ffffffffffffffffffffffffffffffffffffffff168160020160009054906101000a900473ffffffffffffffffffffffffffffffffffffffff1673ffffffffffffffffffffffffffffffffffffffff1603611f2c57600182611f2391906147e8565b92505050611f46565b508080611f3890613f52565b915050611e97565b50600090505b90565b6000600560008473ffffffffffffffffffffffffffffffffffffffff1673ffffffffffffffffffffffffffffffffffffffff16815260200190815260200160002060008373ffffffffffffffffffffffffffffffffffffffff1673ffffffffffffffffffffffffffffffffffffffff16815260200190815260200160002060009054906101000a900460ff16905092915050565b611fe56128e9565b600073ffffffffffffffffffffffffffffffffffffffff168173ffffffffffffffffffffffffffffffffffffffff1603612054576040517f08c379a000000000000000000000000000000000000000000000000000000000815260040161204b90614ba2565b60405180910390fd5b61205d81612967565b50565b813373ffffffffffffffffffffffffffffffffffffffff1661208182610e8d565b73ffffffffffffffffffffffffffffffffffffffff16146120d7576040517f08c379a00000000000000000000000000000000000000000000000000000000081526004016120ce906146ca565b60405180910390fd5b60006009600085815260200190815260200160002090506000835111612132576040517f08c379a000000000000000000000000000000000000000000000000000000000815260040161212990614c0e565b60405180910390fd5b604051806040016040528084815260200160008152508160040160008360050154815260200190815260200160002060008201518160000190816121769190614420565b50602082015181600101559050507f2a94cd6b8e4219d087c43453e983d276c11f9ba16e547f01adb19edb60ae3c7d848260050154856040516121bb93929190614c2e565b60405180910390a18060050160008154809291906121d890613f52565b919050555050505050565b813373ffffffffffffffffffffffffffffffffffffffff1661220482610e8d565b73ffffffffffffffffffffffffffffffffffffffff161461225a576040517f08c379a0000000000000000000000000000000000000000000000000000000008152600401612251906146ca565b60405180910390fd5b600060096000858152602001908152602001600020905060008351116122b5576040517f08c379a00000000000000000000000000000000000000000000000000000000081526004016122ac90614c0e565b60405180910390fd5b604051806040016040528084815260200160008152508160060160008360070154815260200190815260200160002060008201518160000190816122f99190614420565b50602082015181600101559050507f2a94cd6b8e4219d087c43453e983d276c11f9ba16e547f01adb19edb60ae3c7d8482600701548560405161233e93929190614c2e565b60405180910390a180600701600081548092919061235b90613f52565b919050555050505050565b60007f01ffc9a7000000000000000000000000000000000000000000000000000000007bffffffffffffffffffffffffffffffffffffffffffffffffffffffff1916827bffffffffffffffffffffffffffffffffffffffffffffffffffffffff1916149050919050565b6123d981612cda565b612418576040517f08c379a000000000000000000000000000000000000000000000000000000000815260040161240f906145a6565b60405180910390fd5b50565b600081600001549050919050565b600033905090565b816004600083815260200190815260200160002060006101000a81548173ffffffffffffffffffffffffffffffffffffffff021916908373ffffffffffffffffffffffffffffffffffffffff160217905550808273ffffffffffffffffffffffffffffffffffffffff166124a483610e8d565b73ffffffffffffffffffffffffffffffffffffffff167f8c5be1e5ebec7d5bd14f71427d1e84f3dd0314c0f7b2291e5b200ac8c7c3b92560405160405180910390a45050565b6000806124f683610e8d565b90508073ffffffffffffffffffffffffffffffffffffffff168473ffffffffffffffffffffffffffffffffffffffff16148061253857506125378185611f49565b5b8061257657508373ffffffffffffffffffffffffffffffffffffffff1661255e8461078c565b73ffffffffffffffffffffffffffffffffffffffff16145b91505092915050565b8273ffffffffffffffffffffffffffffffffffffffff1661259f82610e8d565b73ffffffffffffffffffffffffffffffffffffffff16146125f5576040517f08c379a00000000000000000000000000000000000000000000000000000000081526004016125ec90614cde565b60405180910390fd5b600073ffffffffffffffffffffffffffffffffffffffff168273ffffffffffffffffffffffffffffffffffffffff1603612664576040517f08c379a000000000000000000000000000000000000000000000000000000000815260040161265b90614d70565b60405180910390fd5b6126718383836001612d1b565b8273ffffffffffffffffffffffffffffffffffffffff1661269182610e8d565b73ffffffffffffffffffffffffffffffffffffffff16146126e7576040517f08c379a00000000000000000000000000000000000000000000000000000000081526004016126de90614cde565b60405180910390fd5b6004600082815260200190815260200160002060006101000a81549073ffffffffffffffffffffffffffffffffffffffff02191690556001600360008573ffffffffffffffffffffffffffffffffffffffff1673ffffffffffffffffffffffffffffffffffffffff168152602001908152602001600020600082825403925050819055506001600360008473ffffffffffffffffffffffffffffffffffffffff1673ffffffffffffffffffffffffffffffffffffffff16815260200190815260200160002060008282540192505081905550816002600083815260200190815260200160002060006101000a81548173ffffffffffffffffffffffffffffffffffffffff021916908373ffffffffffffffffffffffffffffffffffffffff160217905550808273ffffffffffffffffffffffffffffffffffffffff168473ffffffffffffffffffffffffffffffffffffffff167fddf252ad1be2c89b69c2b068fc378daa952ba7f163c4a11628f55a4df523b3ef60405160405180910390a46128738383836001612d21565b505050565b612892828260405180602001604052806000815250612d27565b5050565b6001816000016000828254019250508190555050565b60006002600083815260200190815260200160002060009054906101000a900473ffffffffffffffffffffffffffffffffffffffff169050919050565b6128f1612429565b73ffffffffffffffffffffffffffffffffffffffff1661290f611596565b73ffffffffffffffffffffffffffffffffffffffff1614612965576040517f08c379a000000000000000000000000000000000000000000000000000000000815260040161295c90614ddc565b60405180910390fd5b565b6000600660009054906101000a900473ffffffffffffffffffffffffffffffffffffffff16905081600660006101000a81548173ffffffffffffffffffffffffffffffffffffffff021916908373ffffffffffffffffffffffffffffffffffffffff1602179055508173ffffffffffffffffffffffffffffffffffffffff168173ffffffffffffffffffffffffffffffffffffffff167f8be0079c531659141344cd1fd0a4f28419497f9722a3daafe3b4186f6b6457e060405160405180910390a35050565b8173ffffffffffffffffffffffffffffffffffffffff168373ffffffffffffffffffffffffffffffffffffffff1603612a9b576040517f08c379a0000000000000000000000000000000000000000000000000000000008152600401612a9290614e48565b60405180910390fd5b80600560008573ffffffffffffffffffffffffffffffffffffffff1673ffffffffffffffffffffffffffffffffffffffff16815260200190815260200160002060008473ffffffffffffffffffffffffffffffffffffffff1673ffffffffffffffffffffffffffffffffffffffff16815260200190815260200160002060006101000a81548160ff0219169083151502179055508173ffffffffffffffffffffffffffffffffffffffff168373ffffffffffffffffffffffffffffffffffffffff167f17307eab39ab6107e8899845ad3d59bd9653f200f220920489ca2b5937696c3183604051612b8c9190613350565b60405180910390a3505050565b612ba484848461257f565b612bb084848484612d82565b612bef576040517f08c379a0000000000000000000000000000000000000000000000000000000008152600401612be690614eda565b60405180910390fd5b50505050565b606060405180602001604052806000815250905090565b606060006001612c1b84612f09565b01905060008167ffffffffffffffff811115612c3a57612c3961388e565b5b6040519080825280601f01601f191660200182016040528015612c6c5781602001600182028036833780820191505090505b509050600082602001820190505b600115612ccf578080600190039150507f3031323334353637383961626364656600000000000000000000000000000000600a86061a8153600a8581612cc357612cc2614efa565b5b04945060008503612c7a575b819350505050919050565b60008073ffffffffffffffffffffffffffffffffffffffff16612cfc836128ac565b73ffffffffffffffffffffffffffffffffffffffff1614159050919050565b50505050565b50505050565b612d31838361305c565b612d3e6000848484612d82565b612d7d576040517f08c379a0000000000000000000000000000000000000000000000000000000008152600401612d7490614eda565b60405180910390fd5b505050565b6000612da38473ffffffffffffffffffffffffffffffffffffffff16613279565b15612efc578373ffffffffffffffffffffffffffffffffffffffff1663150b7a02612dcc612429565b8786866040518563ffffffff1660e01b8152600401612dee9493929190614f7e565b6020604051808303816000875af1925050508015612e2a57506040513d601f19601f82011682018060405250810190612e279190614fdf565b60015b612eac573d8060008114612e5a576040519150601f19603f3d011682016040523d82523d6000602084013e612e5f565b606091505b506000815103612ea4576040517f08c379a0000000000000000000000000000000000000000000000000000000008152600401612e9b90614eda565b60405180910390fd5b805181602001fd5b63150b7a0260e01b7bffffffffffffffffffffffffffffffffffffffffffffffffffffffff1916817bffffffffffffffffffffffffffffffffffffffffffffffffffffffff191614915050612f01565b600190505b949350505050565b600080600090507a184f03e93ff9f4daa797ed6e38ed64bf6a1f0100000000000000008310612f67577a184f03e93ff9f4daa797ed6e38ed64bf6a1f0100000000000000008381612f5d57612f5c614efa565b5b0492506040810190505b6d04ee2d6d415b85acef81000000008310612fa4576d04ee2d6d415b85acef81000000008381612f9a57612f99614efa565b5b0492506020810190505b662386f26fc100008310612fd357662386f26fc100008381612fc957612fc8614efa565b5b0492506010810190505b6305f5e1008310612ffc576305f5e1008381612ff257612ff1614efa565b5b0492506008810190505b612710831061302157612710838161301757613016614efa565b5b0492506004810190505b60648310613044576064838161303a57613039614efa565b5b0492506002810190505b600a8310613053576001810190505b80915050919050565b600073ffffffffffffffffffffffffffffffffffffffff168273ffffffffffffffffffffffffffffffffffffffff16036130cb576040517f08c379a00000000000000000000000000000000000000000000000000000000081526004016130c290615058565b60405180910390fd5b6130d481612cda565b15613114576040517f08c379a000000000000000000000000000000000000000000000000000000000815260040161310b906150c4565b60405180910390fd5b613122600083836001612d1b565b61312b81612cda565b1561316b576040517f08c379a0000000000000000000000000000000000000000000000000000000008152600401613162906150c4565b60405180910390fd5b6001600360008473ffffffffffffffffffffffffffffffffffffffff1673ffffffffffffffffffffffffffffffffffffffff16815260200190815260200160002060008282540192505081905550816002600083815260200190815260200160002060006101000a81548173ffffffffffffffffffffffffffffffffffffffff021916908373ffffffffffffffffffffffffffffffffffffffff160217905550808273ffffffffffffffffffffffffffffffffffffffff16600073ffffffffffffffffffffffffffffffffffffffff167fddf252ad1be2c89b69c2b068fc378daa952ba7f163c4a11628f55a4df523b3ef60405160405180910390a4613275600083836001612d21565b5050565b6000808273ffffffffffffffffffffffffffffffffffffffff163b119050919050565b6000604051905090565b600080fd5b600080fd5b60007fffffffff0000000000000000000000000000000000000000000000000000000082169050919050565b6132e5816132b0565b81146132f057600080fd5b50565b600081359050613302816132dc565b92915050565b60006020828403121561331e5761331d6132a6565b5b600061332c848285016132f3565b91505092915050565b60008115159050919050565b61334a81613335565b82525050565b60006020820190506133656000830184613341565b92915050565b600081519050919050565b600082825260208201905092915050565b60005b838110156133a557808201518184015260208101905061338a565b60008484015250505050565b6000601f19601f8301169050919050565b60006133cd8261336b565b6133d78185613376565b93506133e7818560208601613387565b6133f0816133b1565b840191505092915050565b6000602082019050818103600083015261341581846133c2565b905092915050565b6000819050919050565b6134308161341d565b811461343b57600080fd5b50565b60008135905061344d81613427565b92915050565b600060208284031215613469576134686132a6565b5b60006134778482850161343e565b91505092915050565b600073ffffffffffffffffffffffffffffffffffffffff82169050919050565b60006134ab82613480565b9050919050565b6134bb816134a0565b82525050565b60006020820190506134d660008301846134b2565b92915050565b600081519050919050565b600082825260208201905092915050565b6000819050602082019050919050565b600082825260208201905092915050565b60006135248261336b565b61352e8185613508565b935061353e818560208601613387565b613547816133b1565b840191505092915050565b600061355e8383613519565b905092915050565b6000602082019050919050565b600061357e826134dc565b61358881856134e7565b93508360208202850161359a856134f8565b8060005b858110156135d657848403895281516135b78582613552565b94506135c283613566565b925060208a0199505060018101905061359e565b50829750879550505050505092915050565b600081519050919050565b600082825260208201905092915050565b6000819050602082019050919050565b61361d816134a0565b82525050565b600061362f8383613614565b60208301905092915050565b6000602082019050919050565b6000613653826135e8565b61365d81856135f3565b935061366883613604565b8060005b838110156136995781516136808882613623565b975061368b8361363b565b92505060018101905061366c565b5085935050505092915050565b600081519050919050565b600082825260208201905092915050565b6000819050602082019050919050565b6136db8161341d565b82525050565b60006136ed83836136d2565b60208301905092915050565b6000602082019050919050565b6000613711826136a6565b61371b81856136b1565b9350613726836136c2565b8060005b8381101561375757815161373e88826136e1565b9750613749836136f9565b92505060018101905061372a565b5085935050505092915050565b6000608082019050818103600083015261377e8187613573565b905081810360208301526137928186613573565b905081810360408301526137a68185613648565b905081810360608301526137ba8184613706565b905095945050505050565b6137ce816134a0565b81146137d957600080fd5b50565b6000813590506137eb816137c5565b92915050565b60008060408385031215613808576138076132a6565b5b6000613816858286016137dc565b92505060206138278582860161343e565b9150509250929050565b60008060006060848603121561384a576138496132a6565b5b6000613858868287016137dc565b9350506020613869868287016137dc565b925050604061387a8682870161343e565b9150509250925092565b600080fd5b600080fd5b7f4e487b7100000000000000000000000000000000000000000000000000000000600052604160045260246000fd5b6138c6826133b1565b810181811067ffffffffffffffff821117156138e5576138e461388e565b5b80604052505050565b60006138f861329c565b905061390482826138bd565b919050565b600067ffffffffffffffff8211156139245761392361388e565b5b61392d826133b1565b9050602081019050919050565b82818337600083830152505050565b600061395c61395784613909565b6138ee565b90508281526020810184848401111561397857613977613889565b5b61398384828561393a565b509392505050565b600082601f8301126139a05761399f613884565b5b81356139b0848260208601613949565b91505092915050565b6000806000606084860312156139d2576139d16132a6565b5b600084013567ffffffffffffffff8111156139f0576139ef6132ab565b5b6139fc8682870161398b565b935050602084013567ffffffffffffffff811115613a1d57613a1c6132ab565b5b613a298682870161398b565b925050604084013567ffffffffffffffff811115613a4a57613a496132ab565b5b613a568682870161398b565b9150509250925092565b613a698161341d565b82525050565b6000602082019050613a846000830184613a60565b92915050565b600060208284031215613aa057613a9f6132a6565b5b6000613aae848285016137dc565b91505092915050565b6000610120820190508181036000830152613ad2818c6133c2565b90508181036020830152613ae6818b6133c2565b9050613af5604083018a6134b2565b613b026060830189613a60565b8181036080830152613b148188613573565b905081810360a0830152613b288187613706565b905081810360c0830152613b3c8186613573565b905081810360e0830152613b508185613706565b9050818103610100830152613b6581846133c2565b90509a9950505050505050505050565b60006060820190508181036000830152613b8f8186613706565b90508181036020830152613ba38185613573565b90508181036040830152613bb78184613706565b9050949350505050565b613bca81613335565b8114613bd557600080fd5b50565b600081359050613be781613bc1565b92915050565b60008060408385031215613c0457613c036132a6565b5b6000613c12858286016137dc565b9250506020613c2385828601613bd8565b9150509250929050565b60008060008060808587031215613c4757613c466132a6565b5b6000613c558782880161343e565b9450506020613c668782880161343e565b9350506040613c77878288016137dc565b9250506060613c888782880161343e565b91505092959194509250565b600067ffffffffffffffff821115613caf57613cae61388e565b5b613cb8826133b1565b9050602081019050919050565b6000613cd8613cd384613c94565b6138ee565b905082815260208101848484011115613cf457613cf3613889565b5b613cff84828561393a565b509392505050565b600082601f830112613d1c57613d1b613884565b5b8135613d2c848260208601613cc5565b91505092915050565b60008060008060808587031215613d4f57613d4e6132a6565b5b6000613d5d878288016137dc565b9450506020613d6e878288016137dc565b9350506040613d7f8782880161343e565b925050606085013567ffffffffffffffff811115613da057613d9f6132ab565b5b613dac87828801613d07565b91505092959194509250565b60008060408385031215613dcf57613dce6132a6565b5b6000613ddd8582860161343e565b9250506020613dee8582860161343e565b9150509250929050565b60008060408385031215613e0f57613e0e6132a6565b5b6000613e1d858286016137dc565b9250506020613e2e858286016137dc565b9150509250929050565b60008060408385031215613e4f57613e4e6132a6565b5b6000613e5d8582860161343e565b925050602083013567ffffffffffffffff811115613e7e57613e7d6132ab565b5b613e8a8582860161398b565b9150509250929050565b7f4e487b7100000000000000000000000000000000000000000000000000000000600052602260045260246000fd5b60006002820490506001821680613edb57607f821691505b602082108103613eee57613eed613e94565b5b50919050565b7f4e487b7100000000000000000000000000000000000000000000000000000000600052603260045260246000fd5b7f4e487b7100000000000000000000000000000000000000000000000000000000600052601160045260246000fd5b6000613f5d8261341d565b91507fffffffffffffffffffffffffffffffffffffffffffffffffffffffffffffffff8203613f8f57613f8e613f23565b5b600182019050919050565b7f4552433732313a20617070726f76616c20746f2063757272656e74206f776e6560008201527f7200000000000000000000000000000000000000000000000000000000000000602082015250565b6000613ff6602183613376565b915061400182613f9a565b604082019050919050565b6000602082019050818103600083015261402581613fe9565b9050919050565b7f4552433732313a20617070726f76652063616c6c6572206973206e6f7420746f60008201527f6b656e206f776e6572206f7220617070726f76656420666f7220616c6c000000602082015250565b6000614088603d83613376565b91506140938261402c565b604082019050919050565b600060208201905081810360008301526140b78161407b565b9050919050565b7f4552433732313a2063616c6c6572206973206e6f7420746f6b656e206f776e6560008201527f72206f7220617070726f76656400000000000000000000000000000000000000602082015250565b600061411a602d83613376565b9150614125826140be565b604082019050919050565b600060208201905081810360008301526141498161410d565b9050919050565b7f4f7267616e697a6174696f6e206e616d652063616e6e6f7420626520656d707460008201527f7900000000000000000000000000000000000000000000000000000000000000602082015250565b60006141ac602183613376565b91506141b782614150565b604082019050919050565b600060208201905081810360008301526141db8161419f565b9050919050565b7f4f7267616e697a6174696f6e206465736372697074696f6e2063616e6e6f742060008201527f626520656d707479000000000000000000000000000000000000000000000000602082015250565b600061423e602883613376565b9150614249826141e2565b604082019050919050565b6000602082019050818103600083015261426d81614231565b9050919050565b60008190508160005260206000209050919050565b60006020601f8301049050919050565b600082821b905092915050565b6000600883026142d67fffffffffffffffffffffffffffffffffffffffffffffffffffffffffffffffff82614299565b6142e08683614299565b95508019841693508086168417925050509392505050565b6000819050919050565b600061431d6143186143138461341d565b6142f8565b61341d565b9050919050565b6000819050919050565b61433783614302565b61434b61434382614324565b8484546142a6565b825550505050565b600090565b614360614353565b61436b81848461432e565b505050565b5b8181101561438f57614384600082614358565b600181019050614371565b5050565b601f8211156143d4576143a581614274565b6143ae84614289565b810160208510156143bd578190505b6143d16143c985614289565b830182614370565b50505b505050565b600082821c905092915050565b60006143f7600019846008026143d9565b1980831691505092915050565b600061441083836143e6565b9150826002028217905092915050565b6144298261336b565b67ffffffffffffffff8111156144425761444161388e565b5b61444c8254613ec3565b614457828285614393565b600060209050601f83116001811461448a5760008415614478578287015190505b6144828582614404565b8655506144ea565b601f19841661449886614274565b60005b828110156144c05784890151825560018201915060208501945060208101905061449b565b868310156144dd57848901516144d9601f8916826143e6565b8355505b6001600288020188555050505b505050505050565b600060a0820190506145076000830188613a60565b818103602083015261451981876133c2565b9050818103604083015261452d81866133c2565b905061453c60608301856134b2565b818103608083015261454e81846133c2565b90509695505050505050565b7f4552433732313a20696e76616c696420746f6b656e2049440000000000000000600082015250565b6000614590601883613376565b915061459b8261455a565b602082019050919050565b600060208201905081810360008301526145bf81614583565b9050919050565b7f4552433732313a2061646472657373207a65726f206973206e6f74206120766160008201527f6c6964206f776e65720000000000000000000000000000000000000000000000602082015250565b6000614622602983613376565b915061462d826145c6565b604082019050919050565b6000602082019050818103600083015261465181614615565b9050919050565b7f4e6f7420746865206f776e6572206f6620746865206f7267616e697a6174696f60008201527f6e00000000000000000000000000000000000000000000000000000000000000602082015250565b60006146b4602183613376565b91506146bf82614658565b604082019050919050565b600060208201905081810360008301526146e3816146a7565b9050919050565b7f4f7267616e697a6174696f6e20646f6573206e6f742065786973740000000000600082015250565b6000614720601b83613376565b915061472b826146ea565b602082019050919050565b6000602082019050818103600083015261474f81614713565b9050919050565b7f496e73756666696369656e74206f766572616c6c2066756e647320696e20746860008201527f65206f7267616e697a6174696f6e000000000000000000000000000000000000602082015250565b60006147b2602e83613376565b91506147bd82614756565b604082019050919050565b600060208201905081810360008301526147e1816147a5565b9050919050565b60006147f38261341d565b91506147fe8361341d565b925082820190508082111561481657614815613f23565b5b92915050565b60006148278261341d565b91506148328361341d565b925082820390508181111561484a57614849613f23565b5b92915050565b600081905092915050565b50565b600061486b600083614850565b91506148768261485b565b600082019050919050565b600061488c8261485e565b9150819050919050565b7f4661696c656420746f2073656e642066756e6473000000000000000000000000600082015250565b60006148cc601483613376565b91506148d782614896565b602082019050919050565b600060208201905081810360008301526148fb816148bf565b9050919050565b7f43617465676f727920646f6573206e6f74206578697374000000000000000000600082015250565b6000614938601783613376565b915061494382614902565b602082019050919050565b600060208201905081810360008301526149678161492b565b9050919050565b7f53656e742066756e6473206d7573742062652067726561746572207468616e2060008201527f3000000000000000000000000000000000000000000000000000000000000000602082015250565b60006149ca602183613376565b91506149d58261496e565b604082019050919050565b600060208201905081810360008301526149f9816149bd565b9050919050565b60008154614a0d81613ec3565b614a178186613376565b94506001821660008114614a325760018114614a4857614a7b565b60ff198316865281151560200286019350614a7b565b614a5185614274565b60005b83811015614a7357815481890152600182019150602081019050614a54565b808801955050505b50505092915050565b6000608082019050614a996000830187613a60565b614aa66020830186613a60565b8181036040830152614ab88185614a00565b9050614ac76060830184613a60565b95945050505050565b600081905092915050565b6000614ae68261336b565b614af08185614ad0565b9350614b00818560208601613387565b80840191505092915050565b6000614b188285614adb565b9150614b248284614adb565b91508190509392505050565b7f4f776e61626c653a206e6577206f776e657220697320746865207a65726f206160008201527f6464726573730000000000000000000000000000000000000000000000000000602082015250565b6000614b8c602683613376565b9150614b9782614b30565b604082019050919050565b60006020820190508181036000830152614bbb81614b7f565b9050919050565b7f43617465676f7279206e616d652063616e6e6f7420626520656d707479000000600082015250565b6000614bf8601d83613376565b9150614c0382614bc2565b602082019050919050565b60006020820190508181036000830152614c2781614beb565b9050919050565b6000606082019050614c436000830186613a60565b614c506020830185613a60565b8181036040830152614c6281846133c2565b9050949350505050565b7f4552433732313a207472616e736665722066726f6d20696e636f72726563742060008201527f6f776e6572000000000000000000000000000000000000000000000000000000602082015250565b6000614cc8602583613376565b9150614cd382614c6c565b604082019050919050565b60006020820190508181036000830152614cf781614cbb565b9050919050565b7f4552433732313a207472616e7366657220746f20746865207a65726f2061646460008201527f7265737300000000000000000000000000000000000000000000000000000000602082015250565b6000614d5a602483613376565b9150614d6582614cfe565b604082019050919050565b60006020820190508181036000830152614d8981614d4d565b9050919050565b7f4f776e61626c653a2063616c6c6572206973206e6f7420746865206f776e6572600082015250565b6000614dc6602083613376565b9150614dd182614d90565b602082019050919050565b60006020820190508181036000830152614df581614db9565b9050919050565b7f4552433732313a20617070726f766520746f2063616c6c657200000000000000600082015250565b6000614e32601983613376565b9150614e3d82614dfc565b602082019050919050565b60006020820190508181036000830152614e6181614e25565b9050919050565b7f4552433732313a207472616e7366657220746f206e6f6e20455243373231526560008201527f63656976657220696d706c656d656e7465720000000000000000000000000000602082015250565b6000614ec4603283613376565b9150614ecf82614e68565b604082019050919050565b60006020820190508181036000830152614ef381614eb7565b9050919050565b7f4e487b7100000000000000000000000000000000000000000000000000000000600052601260045260246000fd5b600081519050919050565b600082825260208201905092915050565b6000614f5082614f29565b614f5a8185614f34565b9350614f6a818560208601613387565b614f73816133b1565b840191505092915050565b6000608082019050614f9360008301876134b2565b614fa060208301866134b2565b614fad6040830185613a60565b8181036060830152614fbf8184614f45565b905095945050505050565b600081519050614fd9816132dc565b92915050565b600060208284031215614ff557614ff46132a6565b5b600061500384828501614fca565b91505092915050565b7f4552433732313a206d696e7420746f20746865207a65726f2061646472657373600082015250565b6000615042602083613376565b915061504d8261500c565b602082019050919050565b6000602082019050818103600083015261507181615035565b9050919050565b7f4552433732313a20746f6b656e20616c7265616479206d696e74656400000000600082015250565b60006150ae601c83613376565b91506150b982615078565b602082019050919050565b600060208201905081810360008301526150dd816150a1565b905091905056fea2646970667358221220d5617d2a1f97ead28129a5eb8d7145fb27c1f2ec0b090bc597fb55e3973611b664736f6c63430008110033",
  "linkReferences": {},
  "deployedLinkReferences": {}
}