{
  "_format": "hh-sol-artifact-1",
  "contractName": "OrganizationNFT",
  "sourceName": "contracts/contract.sol",
  "abi": [
    {
      "inputs": [],
      "stateMutability": "nonpayable",
      "type": "constructor"
    },
    {
      "anonymous": false,
      "inputs": [
        {
          "indexed": true,
          "internalType": "address",
          "name": "owner",
          "type": "address"
        },
        {
          "indexed": true,
          "internalType": "address",
          "name": "approved",
          "type": "address"
        },
        {
          "indexed": true,
          "internalType": "uint256",
          "name": "tokenId",
          "type": "uint256"
        }
      ],
      "name": "Approval",
      "type": "event"
    },
    {
      "anonymous": false,
      "inputs": [
        {
          "indexed": true,
          "internalType": "address",
          "name": "owner",
          "type": "address"
        },
        {
          "indexed": true,
          "internalType": "address",
          "name": "operator",
          "type": "address"
        },
        {
          "indexed": false,
          "internalType": "bool",
          "name": "approved",
          "type": "bool"
        }
      ],
      "name": "ApprovalForAll",
      "type": "event"
    },
    {
      "anonymous": false,
      "inputs": [
        {
          "indexed": false,
          "internalType": "uint256",
          "name": "organizationId",
          "type": "uint256"
        },
        {
          "indexed": false,
          "internalType": "uint256",
          "name": "categoryId",
          "type": "uint256"
        },
        {
          "indexed": false,
          "internalType": "string",
          "name": "categoryName",
          "type": "string"
        }
      ],
      "name": "CategoryCreated",
      "type": "event"
    },
    {
      "anonymous": false,
      "inputs": [
        {
          "indexed": false,
          "internalType": "uint256",
          "name": "organizationId",
          "type": "uint256"
        },
        {
          "indexed": false,
          "internalType": "uint256",
          "name": "categoryId",
          "type": "uint256"
        },
        {
          "indexed": false,
          "internalType": "string",
          "name": "categoryName",
          "type": "string"
        },
        {
          "indexed": false,
          "internalType": "uint256",
          "name": "amount",
          "type": "uint256"
        }
      ],
      "name": "FundsSent",
      "type": "event"
    },
    {
      "anonymous": false,
      "inputs": [
        {
          "indexed": true,
          "internalType": "address",
          "name": "organization",
          "type": "address"
        },
        {
          "indexed": true,
          "internalType": "address",
          "name": "recipient",
          "type": "address"
        },
        {
          "indexed": false,
          "internalType": "uint256",
          "name": "amount",
          "type": "uint256"
        }
      ],
      "name": "FundsSentToAccount",
      "type": "event"
    },
    {
      "anonymous": false,
      "inputs": [
        {
          "indexed": false,
          "internalType": "uint256",
          "name": "organizationId",
          "type": "uint256"
        },
        {
          "indexed": false,
          "internalType": "string",
          "name": "name",
          "type": "string"
        },
        {
          "indexed": false,
          "internalType": "string",
          "name": "description",
          "type": "string"
        },
        {
          "indexed": false,
          "internalType": "address",
          "name": "organizationAddress",
          "type": "address"
        }
      ],
      "name": "OrganizationRegistered",
      "type": "event"
    },
    {
      "anonymous": false,
      "inputs": [
        {
          "indexed": true,
          "internalType": "address",
          "name": "previousOwner",
          "type": "address"
        },
        {
          "indexed": true,
          "internalType": "address",
          "name": "newOwner",
          "type": "address"
        }
      ],
      "name": "OwnershipTransferred",
      "type": "event"
    },
    {
      "anonymous": false,
      "inputs": [
        {
          "indexed": true,
          "internalType": "address",
          "name": "from",
          "type": "address"
        },
        {
          "indexed": true,
          "internalType": "address",
          "name": "to",
          "type": "address"
        },
        {
          "indexed": true,
          "internalType": "uint256",
          "name": "tokenId",
          "type": "uint256"
        }
      ],
      "name": "Transfer",
      "type": "event"
    },
    {
      "inputs": [
        {
          "internalType": "address",
          "name": "to",
          "type": "address"
        },
        {
          "internalType": "uint256",
          "name": "tokenId",
          "type": "uint256"
        }
      ],
      "name": "approve",
      "outputs": [],
      "stateMutability": "nonpayable",
      "type": "function"
    },
    {
      "inputs": [
        {
          "internalType": "address",
          "name": "owner",
          "type": "address"
        }
      ],
      "name": "balanceOf",
      "outputs": [
        {
          "internalType": "uint256",
          "name": "",
          "type": "uint256"
        }
      ],
      "stateMutability": "view",
      "type": "function"
    },
    {
      "inputs": [
        {
          "internalType": "uint256",
          "name": "_organizationId",
          "type": "uint256"
        },
        {
          "internalType": "string",
          "name": "_categoryName",
          "type": "string"
        }
      ],
      "name": "createCategory",
      "outputs": [],
      "stateMutability": "nonpayable",
      "type": "function"
    },
    {
      "inputs": [],
      "name": "getAllOrganizations",
      "outputs": [
        {
          "internalType": "string[]",
          "name": "names",
          "type": "string[]"
        },
        {
          "internalType": "string[]",
          "name": "descriptions",
          "type": "string[]"
        },
        {
          "internalType": "address[]",
          "name": "addressesOfOrg",
          "type": "address[]"
        },
        {
          "internalType": "uint256[]",
          "name": "funds",
          "type": "uint256[]"
        }
      ],
      "stateMutability": "view",
      "type": "function"
    },
    {
      "inputs": [
        {
          "internalType": "uint256",
          "name": "tokenId",
          "type": "uint256"
        }
      ],
      "name": "getApproved",
      "outputs": [
        {
          "internalType": "address",
          "name": "",
          "type": "address"
        }
      ],
      "stateMutability": "view",
      "type": "function"
    },
    {
      "inputs": [
        {
          "internalType": "uint256",
          "name": "_organizationId",
          "type": "uint256"
        }
      ],
      "name": "getCategoryBalances",
      "outputs": [
        {
          "internalType": "uint256[]",
          "name": "categoryIds",
          "type": "uint256[]"
        },
        {
          "internalType": "string[]",
          "name": "categoryNames",
          "type": "string[]"
        },
        {
          "internalType": "uint256[]",
          "name": "categoryBalances",
          "type": "uint256[]"
        }
      ],
      "stateMutability": "view",
      "type": "function"
    },
    {
      "inputs": [
        {
          "internalType": "uint256",
          "name": "_organizationId",
          "type": "uint256"
        }
      ],
      "name": "getOrganizationDetails",
      "outputs": [
        {
          "internalType": "string",
          "name": "name",
          "type": "string"
        },
        {
          "internalType": "string",
          "name": "description",
          "type": "string"
        },
        {
          "internalType": "address",
          "name": "organizationAddress",
          "type": "address"
        },
        {
          "internalType": "uint256",
          "name": "funds",
          "type": "uint256"
        }
      ],
      "stateMutability": "view",
      "type": "function"
    },
    {
      "inputs": [
        {
          "internalType": "address",
          "name": "_walletAddress",
          "type": "address"
        }
      ],
      "name": "getOrganizationsByAddress",
      "outputs": [
        {
          "internalType": "string[]",
          "name": "names",
          "type": "string[]"
        },
        {
          "internalType": "string[]",
          "name": "descriptions",
          "type": "string[]"
        },
        {
          "internalType": "address[]",
          "name": "addressesOfOrg",
          "type": "address[]"
        },
        {
          "internalType": "uint256[]",
          "name": "funds",
          "type": "uint256[]"
        }
      ],
      "stateMutability": "view",
      "type": "function"
    },
    {
      "inputs": [
        {
          "internalType": "address",
          "name": "owner",
          "type": "address"
        },
        {
          "internalType": "address",
          "name": "operator",
          "type": "address"
        }
      ],
      "name": "isApprovedForAll",
      "outputs": [
        {
          "internalType": "bool",
          "name": "",
          "type": "bool"
        }
      ],
      "stateMutability": "view",
      "type": "function"
    },
    {
      "inputs": [],
      "name": "name",
      "outputs": [
        {
          "internalType": "string",
          "name": "",
          "type": "string"
        }
      ],
      "stateMutability": "view",
      "type": "function"
    },
    {
      "inputs": [],
      "name": "owner",
      "outputs": [
        {
          "internalType": "address",
          "name": "",
          "type": "address"
        }
      ],
      "stateMutability": "view",
      "type": "function"
    },
    {
      "inputs": [
        {
          "internalType": "uint256",
          "name": "tokenId",
          "type": "uint256"
        }
      ],
      "name": "ownerOf",
      "outputs": [
        {
          "internalType": "address",
          "name": "",
          "type": "address"
        }
      ],
      "stateMutability": "view",
      "type": "function"
    },
    {
      "inputs": [
        {
          "internalType": "string",
          "name": "_name",
          "type": "string"
        },
        {
          "internalType": "string",
          "name": "_description",
          "type": "string"
        },
        {
          "internalType": "address",
          "name": "_organizationAddress",
          "type": "address"
        }
      ],
      "name": "registerOrganization",
      "outputs": [],
      "stateMutability": "nonpayable",
      "type": "function"
    },
    {
      "inputs": [],
      "name": "renounceOwnership",
      "outputs": [],
      "stateMutability": "nonpayable",
      "type": "function"
    },
    {
      "inputs": [
        {
          "internalType": "address",
          "name": "from",
          "type": "address"
        },
        {
          "internalType": "address",
          "name": "to",
          "type": "address"
        },
        {
          "internalType": "uint256",
          "name": "tokenId",
          "type": "uint256"
        }
      ],
      "name": "safeTransferFrom",
      "outputs": [],
      "stateMutability": "nonpayable",
      "type": "function"
    },
    {
      "inputs": [
        {
          "internalType": "address",
          "name": "from",
          "type": "address"
        },
        {
          "internalType": "address",
          "name": "to",
          "type": "address"
        },
        {
          "internalType": "uint256",
          "name": "tokenId",
          "type": "uint256"
        },
        {
          "internalType": "bytes",
          "name": "data",
          "type": "bytes"
        }
      ],
      "name": "safeTransferFrom",
      "outputs": [],
      "stateMutability": "nonpayable",
      "type": "function"
    },
    {
      "inputs": [
        {
          "internalType": "uint256",
          "name": "_organizationId",
          "type": "uint256"
        },
        {
          "internalType": "uint256",
          "name": "_categoryId",
          "type": "uint256"
        }
      ],
      "name": "sendFunds",
      "outputs": [],
      "stateMutability": "payable",
      "type": "function"
    },
    {
      "inputs": [
        {
          "internalType": "address",
          "name": "operator",
          "type": "address"
        },
        {
          "internalType": "bool",
          "name": "approved",
          "type": "bool"
        }
      ],
      "name": "setApprovalForAll",
      "outputs": [],
      "stateMutability": "nonpayable",
      "type": "function"
    },
    {
      "inputs": [
        {
          "internalType": "bytes4",
          "name": "interfaceId",
          "type": "bytes4"
        }
      ],
      "name": "supportsInterface",
      "outputs": [
        {
          "internalType": "bool",
          "name": "",
          "type": "bool"
        }
      ],
      "stateMutability": "view",
      "type": "function"
    },
    {
      "inputs": [],
      "name": "symbol",
      "outputs": [
        {
          "internalType": "string",
          "name": "",
          "type": "string"
        }
      ],
      "stateMutability": "view",
      "type": "function"
    },
    {
      "inputs": [
        {
          "internalType": "uint256",
          "name": "tokenId",
          "type": "uint256"
        }
      ],
      "name": "tokenURI",
      "outputs": [
        {
          "internalType": "string",
          "name": "",
          "type": "string"
        }
      ],
      "stateMutability": "view",
      "type": "function"
    },
    {
      "inputs": [
        {
          "internalType": "address",
          "name": "from",
          "type": "address"
        },
        {
          "internalType": "address",
          "name": "to",
          "type": "address"
        },
        {
          "internalType": "uint256",
          "name": "tokenId",
          "type": "uint256"
        }
      ],
      "name": "transferFrom",
      "outputs": [],
      "stateMutability": "nonpayable",
      "type": "function"
    },
    {
      "inputs": [
        {
          "internalType": "address",
          "name": "newOwner",
          "type": "address"
        }
      ],
      "name": "transferOwnership",
      "outputs": [],
      "stateMutability": "nonpayable",
      "type": "function"
    }
  ],
  "bytecode": "0x60806040523480156200001157600080fd5b506040518060400160405280600f81526020017f4f7267616e697a6174696f6e4e465400000000000000000000000000000000008152506040518060400160405280600381526020017f4f5247000000000000000000000000000000000000000000000000000000000081525081600090816200008f919062000412565b508060019081620000a1919062000412565b505050620000c4620000b8620000ca60201b60201c565b620000d260201b60201c565b620004f9565b600033905090565b6000600660009054906101000a900473ffffffffffffffffffffffffffffffffffffffff16905081600660006101000a81548173ffffffffffffffffffffffffffffffffffffffff021916908373ffffffffffffffffffffffffffffffffffffffff1602179055508173ffffffffffffffffffffffffffffffffffffffff168173ffffffffffffffffffffffffffffffffffffffff167f8be0079c531659141344cd1fd0a4f28419497f9722a3daafe3b4186f6b6457e060405160405180910390a35050565b600081519050919050565b7f4e487b7100000000000000000000000000000000000000000000000000000000600052604160045260246000fd5b7f4e487b7100000000000000000000000000000000000000000000000000000000600052602260045260246000fd5b600060028204905060018216806200021a57607f821691505b60208210810362000230576200022f620001d2565b5b50919050565b60008190508160005260206000209050919050565b60006020601f8301049050919050565b600082821b905092915050565b6000600883026200029a7fffffffffffffffffffffffffffffffffffffffffffffffffffffffffffffffff826200025b565b620002a686836200025b565b95508019841693508086168417925050509392505050565b6000819050919050565b6000819050919050565b6000620002f3620002ed620002e784620002be565b620002c8565b620002be565b9050919050565b6000819050919050565b6200030f83620002d2565b620003276200031e82620002fa565b84845462000268565b825550505050565b600090565b6200033e6200032f565b6200034b81848462000304565b505050565b5b8181101562000373576200036760008262000334565b60018101905062000351565b5050565b601f821115620003c2576200038c8162000236565b62000397846200024b565b81016020851015620003a7578190505b620003bf620003b6856200024b565b83018262000350565b50505b505050565b600082821c905092915050565b6000620003e760001984600802620003c7565b1980831691505092915050565b6000620004028383620003d4565b9150826002028217905092915050565b6200041d8262000198565b67ffffffffffffffff811115620004395762000438620001a3565b5b62000445825462000201565b6200045282828562000377565b600060209050601f8311600181146200048a576000841562000475578287015190505b620004818582620003f4565b865550620004f1565b601f1984166200049a8662000236565b60005b82811015620004c4578489015182556001820191506020850194506020810190506200049d565b86831015620004e45784890151620004e0601f891682620003d4565b8355505b6001600288020188555050505b505050505050565b61473180620005096000396000f3fe6080604052600436106101405760003560e01c8063715018a6116100b6578063b88d4fde1161006f578063b88d4fde1461048b578063bebae9e7146104b4578063c87b56dd146104d0578063e985e9c51461050d578063f2fde38b1461054a578063f7868a521461057357610140565b8063715018a61461037657806379bb57b41461038d5780638da5cb5b146103cd57806395d89b41146103f8578063999dc08d14610423578063a22cb4651461046257610140565b806316b0b83a1161010857806316b0b83a1461024157806323b872dd1461026a57806342842e0e146102935780635adc8443146102bc5780636352211e146102fc57806370a082311461033957610140565b806301ffc9a71461014557806306fdde0314610182578063081812fc146101ad578063086ed938146101ea578063095ea7b314610218575b600080fd5b34801561015157600080fd5b5061016c60048036038101906101679190612b9a565b61059c565b6040516101799190612be2565b60405180910390f35b34801561018e57600080fd5b5061019761067e565b6040516101a49190612c8d565b60405180910390f35b3480156101b957600080fd5b506101d460048036038101906101cf9190612ce5565b610710565b6040516101e19190612d53565b60405180910390f35b3480156101f657600080fd5b506101ff610756565b60405161020f9493929190612ff6565b60405180910390f35b34801561022457600080fd5b5061023f600480360381019061023a9190613083565b610ae8565b005b34801561024d57600080fd5b50610268600480360381019061026391906131f8565b610bff565b005b34801561027657600080fd5b50610291600480360381019061028c9190613283565b610d75565b005b34801561029f57600080fd5b506102ba60048036038101906102b59190613283565b610dd5565b005b3480156102c857600080fd5b506102e360048036038101906102de91906132d6565b610df5565b6040516102f39493929190612ff6565b60405180910390f35b34801561030857600080fd5b50610323600480360381019061031e9190612ce5565b611096565b6040516103309190612d53565b60405180910390f35b34801561034557600080fd5b50610360600480360381019061035b91906132d6565b61111c565b60405161036d9190613312565b60405180910390f35b34801561038257600080fd5b5061038b6111d3565b005b34801561039957600080fd5b506103b460048036038101906103af9190612ce5565b6111e7565b6040516103c4949392919061332d565b60405180910390f35b3480156103d957600080fd5b506103e261135e565b6040516103ef9190612d53565b60405180910390f35b34801561040457600080fd5b5061040d611388565b60405161041a9190612c8d565b60405180910390f35b34801561042f57600080fd5b5061044a60048036038101906104459190612ce5565b61141a565b60405161045993929190613380565b60405180910390f35b34801561046e57600080fd5b50610489600480360381019061048491906133f8565b61169b565b005b34801561049757600080fd5b506104b260048036038101906104ad91906134d9565b6116b1565b005b6104ce60048036038101906104c9919061355c565b611713565b005b3480156104dc57600080fd5b506104f760048036038101906104f29190612ce5565b6118ff565b6040516105049190612c8d565b60405180910390f35b34801561051957600080fd5b50610534600480360381019061052f919061359c565b611967565b6040516105419190612be2565b60405180910390f35b34801561055657600080fd5b50610571600480360381019061056c91906132d6565b6119fb565b005b34801561057f57600080fd5b5061059a600480360381019061059591906135dc565b611a7e565b005b60007f80ac58cd000000000000000000000000000000000000000000000000000000007bffffffffffffffffffffffffffffffffffffffffffffffffffffffff1916827bffffffffffffffffffffffffffffffffffffffffffffffffffffffff1916148061066757507f5b5e139f000000000000000000000000000000000000000000000000000000007bffffffffffffffffffffffffffffffffffffffffffffffffffffffff1916827bffffffffffffffffffffffffffffffffffffffffffffffffffffffff1916145b80610677575061067682611bf8565b5b9050919050565b60606000805461068d90613667565b80601f01602080910402602001604051908101604052809291908181526020018280546106b990613667565b80156107065780601f106106db57610100808354040283529160200191610706565b820191906000526020600020905b8154815290600101906020018083116106e957829003601f168201915b5050505050905090565b600061071b82611c62565b6004600083815260200190815260200160002060009054906101000a900473ffffffffffffffffffffffffffffffffffffffff169050919050565b6060806060806107666007611cad565b67ffffffffffffffff81111561077f5761077e6130cd565b5b6040519080825280602002602001820160405280156107b257816020015b606081526020019060019003908161079d5790505b5093506107bf6007611cad565b67ffffffffffffffff8111156107d8576107d76130cd565b5b60405190808252806020026020018201604052801561080b57816020015b60608152602001906001900390816107f65790505b5092506108186007611cad565b67ffffffffffffffff811115610831576108306130cd565b5b60405190808252806020026020018201604052801561085f5781602001602082028036833780820191505090505b50915061086c6007611cad565b67ffffffffffffffff811115610885576108846130cd565b5b6040519080825280602002602001820160405280156108b35781602001602082028036833780820191505090505b50905060005b6108c36007611cad565b811015610ae15760006009600083815260200190815260200160002090508060000180546108f090613667565b80601f016020809104026020016040519081016040528092919081815260200182805461091c90613667565b80156109695780601f1061093e57610100808354040283529160200191610969565b820191906000526020600020905b81548152906001019060200180831161094c57829003601f168201915b505050505086838151811061098157610980613698565b5b602002602001018190525080600101805461099b90613667565b80601f01602080910402602001604051908101604052809291908181526020018280546109c790613667565b8015610a145780601f106109e957610100808354040283529160200191610a14565b820191906000526020600020905b8154815290600101906020018083116109f757829003601f168201915b5050505050858381518110610a2c57610a2b613698565b5b60200260200101819052508060020160009054906101000a900473ffffffffffffffffffffffffffffffffffffffff16848381518110610a6f57610a6e613698565b5b602002602001019073ffffffffffffffffffffffffffffffffffffffff16908173ffffffffffffffffffffffffffffffffffffffff16815250508060030154838381518110610ac157610ac0613698565b5b602002602001018181525050508080610ad9906136f6565b9150506108b9565b5090919293565b6000610af382611096565b90508073ffffffffffffffffffffffffffffffffffffffff168373ffffffffffffffffffffffffffffffffffffffff1603610b63576040517f08c379a0000000000000000000000000000000000000000000000000000000008152600401610b5a906137b0565b60405180910390fd5b8073ffffffffffffffffffffffffffffffffffffffff16610b82611cbb565b73ffffffffffffffffffffffffffffffffffffffff161480610bb15750610bb081610bab611cbb565b611967565b5b610bf0576040517f08c379a0000000000000000000000000000000000000000000000000000000008152600401610be790613842565b60405180910390fd5b610bfa8383611cc3565b505050565b6000835111610c43576040517f08c379a0000000000000000000000000000000000000000000000000000000008152600401610c3a906138d4565b60405180910390fd5b6000825111610c87576040517f08c379a0000000000000000000000000000000000000000000000000000000008152600401610c7e90613966565b60405180910390fd5b6000610c936007611cad565b9050610c9f3382611d7c565b600060096000838152602001908152602001600020905084816000019081610cc79190613b32565b5083816001019081610cd99190613b32565b50828160020160006101000a81548173ffffffffffffffffffffffffffffffffffffffff021916908373ffffffffffffffffffffffffffffffffffffffff160217905550600081600301819055507f1b59cb07aaad770db0305f5e4d27126089195f397c006e05f80d1deaa7ba5ce882868686604051610d5c9493929190613c04565b60405180910390a1610d6e6007611d9a565b5050505050565b610d86610d80611cbb565b82611db0565b610dc5576040517f08c379a0000000000000000000000000000000000000000000000000000000008152600401610dbc90613cc9565b60405180910390fd5b610dd0838383611e45565b505050565b610df0838383604051806020016040528060008152506116b1565b505050565b6060806060806000805b610e096007611cad565b81101561108d5760006009600083815260200190815260200160002090508773ffffffffffffffffffffffffffffffffffffffff168160020160009054906101000a900473ffffffffffffffffffffffffffffffffffffffff1673ffffffffffffffffffffffffffffffffffffffff160361107957806000018054610e8d90613667565b80601f0160208091040260200160405190810160405280929190818152602001828054610eb990613667565b8015610f065780601f10610edb57610100808354040283529160200191610f06565b820191906000526020600020905b815481529060010190602001808311610ee957829003601f168201915b5050505050878481518110610f1e57610f1d613698565b5b6020026020010181905250806001018054610f3890613667565b80601f0160208091040260200160405190810160405280929190818152602001828054610f6490613667565b8015610fb15780601f10610f8657610100808354040283529160200191610fb1565b820191906000526020600020905b815481529060010190602001808311610f9457829003601f168201915b5050505050868481518110610fc957610fc8613698565b5b60200260200101819052508060020160009054906101000a900473ffffffffffffffffffffffffffffffffffffffff1685848151811061100c5761100b613698565b5b602002602001019073ffffffffffffffffffffffffffffffffffffffff16908173ffffffffffffffffffffffffffffffffffffffff1681525050806003015484848151811061105e5761105d613698565b5b6020026020010181815250508280611075906136f6565b9350505b508080611085906136f6565b915050610dff565b50509193509193565b6000806110a28361213e565b9050600073ffffffffffffffffffffffffffffffffffffffff168173ffffffffffffffffffffffffffffffffffffffff1603611113576040517f08c379a000000000000000000000000000000000000000000000000000000000815260040161110a90613d35565b60405180910390fd5b80915050919050565b60008073ffffffffffffffffffffffffffffffffffffffff168273ffffffffffffffffffffffffffffffffffffffff160361118c576040517f08c379a000000000000000000000000000000000000000000000000000000000815260040161118390613dc7565b60405180910390fd5b600360008373ffffffffffffffffffffffffffffffffffffffff1673ffffffffffffffffffffffffffffffffffffffff168152602001908152602001600020549050919050565b6111db61217b565b6111e560006121f9565b565b606080600080600060096000878152602001908152602001600020905080600001816001018260020160009054906101000a900473ffffffffffffffffffffffffffffffffffffffff16836003015483805461124290613667565b80601f016020809104026020016040519081016040528092919081815260200182805461126e90613667565b80156112bb5780601f10611290576101008083540402835291602001916112bb565b820191906000526020600020905b81548152906001019060200180831161129e57829003601f168201915b505050505093508280546112ce90613667565b80601f01602080910402602001604051908101604052809291908181526020018280546112fa90613667565b80156113475780601f1061131c57610100808354040283529160200191611347565b820191906000526020600020905b81548152906001019060200180831161132a57829003601f168201915b505050505092509450945094509450509193509193565b6000600660009054906101000a900473ffffffffffffffffffffffffffffffffffffffff16905090565b60606001805461139790613667565b80601f01602080910402602001604051908101604052809291908181526020018280546113c390613667565b80156114105780601f106113e557610100808354040283529160200191611410565b820191906000526020600020905b8154815290600101906020018083116113f357829003601f168201915b5050505050905090565b6060806060600060096000868152602001908152602001600020905060006114426007611cad565b90508067ffffffffffffffff81111561145e5761145d6130cd565b5b60405190808252806020026020018201604052801561148c5781602001602082028036833780820191505090505b5094508067ffffffffffffffff8111156114a9576114a86130cd565b5b6040519080825280602002602001820160405280156114dc57816020015b60608152602001906001900390816114c75790505b5093508067ffffffffffffffff8111156114f9576114f86130cd565b5b6040519080825280602002602001820160405280156115275781602001602082028036833780820191505090505b5092506000805b8281101561169057600084600401600083815260200190815260200160002060010154111561167d578087838151811061156b5761156a613698565b5b602002602001018181525050836004016000828152602001908152602001600020600001805461159a90613667565b80601f01602080910402602001604051908101604052809291908181526020018280546115c690613667565b80156116135780601f106115e857610100808354040283529160200191611613565b820191906000526020600020905b8154815290600101906020018083116115f657829003601f168201915b505050505086838151811061162b5761162a613698565b5b60200260200101819052508360040160008281526020019081526020016000206001015485838151811061166257611661613698565b5b6020026020010181815250508180611679906136f6565b9250505b8080611688906136f6565b91505061152e565b505050509193909250565b6116ad6116a6611cbb565b83836122bf565b5050565b6116c26116bc611cbb565b83611db0565b611701576040517f08c379a00000000000000000000000000000000000000000000000000000000081526004016116f890613cc9565b60405180910390fd5b61170d8484848461242b565b50505050565b6000600960008481526020019081526020016000209050600073ffffffffffffffffffffffffffffffffffffffff168160020160009054906101000a900473ffffffffffffffffffffffffffffffffffffffff1673ffffffffffffffffffffffffffffffffffffffff16036117bd576040517f08c379a00000000000000000000000000000000000000000000000000000000081526004016117b490613e33565b60405180910390fd5b6000816004016000848152602001908152602001600020600101541015611819576040517f08c379a000000000000000000000000000000000000000000000000000000000815260040161181090613e9f565b60405180910390fd5b6000341161185c576040517f08c379a000000000000000000000000000000000000000000000000000000000815260040161185390613f31565b60405180910390fd5b3481600401600084815260200190815260200160002060010160008282546118849190613f51565b925050819055503481600301600082825461189f9190613f51565b925050819055507f3ac15109a7fb8838358b1ff2e8a09a5ad4318ec4c42a5fb24cc1bcb786cf10498383836004016000868152602001908152602001600020600001346040516118f29493929190614009565b60405180910390a1505050565b606061190a82611c62565b6000611914612487565b90506000815111611934576040518060200160405280600081525061195f565b8061193e8461249e565b60405160200161194f929190614091565b6040516020818303038152906040525b915050919050565b6000600560008473ffffffffffffffffffffffffffffffffffffffff1673ffffffffffffffffffffffffffffffffffffffff16815260200190815260200160002060008373ffffffffffffffffffffffffffffffffffffffff1673ffffffffffffffffffffffffffffffffffffffff16815260200190815260200160002060009054906101000a900460ff16905092915050565b611a0361217b565b600073ffffffffffffffffffffffffffffffffffffffff168173ffffffffffffffffffffffffffffffffffffffff1603611a72576040517f08c379a0000000000000000000000000000000000000000000000000000000008152600401611a6990614127565b60405180910390fd5b611a7b816121f9565b50565b813373ffffffffffffffffffffffffffffffffffffffff16611a9f82611096565b73ffffffffffffffffffffffffffffffffffffffff1614611af5576040517f08c379a0000000000000000000000000000000000000000000000000000000008152600401611aec906141b9565b60405180910390fd5b60006009600085815260200190815260200160002090506000835111611b50576040517f08c379a0000000000000000000000000000000000000000000000000000000008152600401611b4790614225565b60405180910390fd5b6000611b5c6008611cad565b9050604051806040016040528085815260200160008152508260040160008381526020019081526020016000206000820151816000019081611b9e9190613b32565b50602082015181600101559050507f2a94cd6b8e4219d087c43453e983d276c11f9ba16e547f01adb19edb60ae3c7d858286604051611bdf93929190614245565b60405180910390a1611bf16008611d9a565b5050505050565b60007f01ffc9a7000000000000000000000000000000000000000000000000000000007bffffffffffffffffffffffffffffffffffffffffffffffffffffffff1916827bffffffffffffffffffffffffffffffffffffffffffffffffffffffff1916149050919050565b611c6b8161256c565b611caa576040517f08c379a0000000000000000000000000000000000000000000000000000000008152600401611ca190613d35565b60405180910390fd5b50565b600081600001549050919050565b600033905090565b816004600083815260200190815260200160002060006101000a81548173ffffffffffffffffffffffffffffffffffffffff021916908373ffffffffffffffffffffffffffffffffffffffff160217905550808273ffffffffffffffffffffffffffffffffffffffff16611d3683611096565b73ffffffffffffffffffffffffffffffffffffffff167f8c5be1e5ebec7d5bd14f71427d1e84f3dd0314c0f7b2291e5b200ac8c7c3b92560405160405180910390a45050565b611d968282604051806020016040528060008152506125ad565b5050565b6001816000016000828254019250508190555050565b600080611dbc83611096565b90508073ffffffffffffffffffffffffffffffffffffffff168473ffffffffffffffffffffffffffffffffffffffff161480611dfe5750611dfd8185611967565b5b80611e3c57508373ffffffffffffffffffffffffffffffffffffffff16611e2484610710565b73ffffffffffffffffffffffffffffffffffffffff16145b91505092915050565b8273ffffffffffffffffffffffffffffffffffffffff16611e6582611096565b73ffffffffffffffffffffffffffffffffffffffff1614611ebb576040517f08c379a0000000000000000000000000000000000000000000000000000000008152600401611eb2906142f5565b60405180910390fd5b600073ffffffffffffffffffffffffffffffffffffffff168273ffffffffffffffffffffffffffffffffffffffff1603611f2a576040517f08c379a0000000000000000000000000000000000000000000000000000000008152600401611f2190614387565b60405180910390fd5b611f378383836001612608565b8273ffffffffffffffffffffffffffffffffffffffff16611f5782611096565b73ffffffffffffffffffffffffffffffffffffffff1614611fad576040517f08c379a0000000000000000000000000000000000000000000000000000000008152600401611fa4906142f5565b60405180910390fd5b6004600082815260200190815260200160002060006101000a81549073ffffffffffffffffffffffffffffffffffffffff02191690556001600360008573ffffffffffffffffffffffffffffffffffffffff1673ffffffffffffffffffffffffffffffffffffffff168152602001908152602001600020600082825403925050819055506001600360008473ffffffffffffffffffffffffffffffffffffffff1673ffffffffffffffffffffffffffffffffffffffff16815260200190815260200160002060008282540192505081905550816002600083815260200190815260200160002060006101000a81548173ffffffffffffffffffffffffffffffffffffffff021916908373ffffffffffffffffffffffffffffffffffffffff160217905550808273ffffffffffffffffffffffffffffffffffffffff168473ffffffffffffffffffffffffffffffffffffffff167fddf252ad1be2c89b69c2b068fc378daa952ba7f163c4a11628f55a4df523b3ef60405160405180910390a4612139838383600161260e565b505050565b60006002600083815260200190815260200160002060009054906101000a900473ffffffffffffffffffffffffffffffffffffffff169050919050565b612183611cbb565b73ffffffffffffffffffffffffffffffffffffffff166121a161135e565b73ffffffffffffffffffffffffffffffffffffffff16146121f7576040517f08c379a00000000000000000000000000000000000000000000000000000000081526004016121ee906143f3565b60405180910390fd5b565b6000600660009054906101000a900473ffffffffffffffffffffffffffffffffffffffff16905081600660006101000a81548173ffffffffffffffffffffffffffffffffffffffff021916908373ffffffffffffffffffffffffffffffffffffffff1602179055508173ffffffffffffffffffffffffffffffffffffffff168173ffffffffffffffffffffffffffffffffffffffff167f8be0079c531659141344cd1fd0a4f28419497f9722a3daafe3b4186f6b6457e060405160405180910390a35050565b8173ffffffffffffffffffffffffffffffffffffffff168373ffffffffffffffffffffffffffffffffffffffff160361232d576040517f08c379a00000000000000000000000000000000000000000000000000000000081526004016123249061445f565b60405180910390fd5b80600560008573ffffffffffffffffffffffffffffffffffffffff1673ffffffffffffffffffffffffffffffffffffffff16815260200190815260200160002060008473ffffffffffffffffffffffffffffffffffffffff1673ffffffffffffffffffffffffffffffffffffffff16815260200190815260200160002060006101000a81548160ff0219169083151502179055508173ffffffffffffffffffffffffffffffffffffffff168373ffffffffffffffffffffffffffffffffffffffff167f17307eab39ab6107e8899845ad3d59bd9653f200f220920489ca2b5937696c318360405161241e9190612be2565b60405180910390a3505050565b612436848484611e45565b61244284848484612614565b612481576040517f08c379a0000000000000000000000000000000000000000000000000000000008152600401612478906144f1565b60405180910390fd5b50505050565b606060405180602001604052806000815250905090565b6060600060016124ad8461279b565b01905060008167ffffffffffffffff8111156124cc576124cb6130cd565b5b6040519080825280601f01601f1916602001820160405280156124fe5781602001600182028036833780820191505090505b509050600082602001820190505b600115612561578080600190039150507f3031323334353637383961626364656600000000000000000000000000000000600a86061a8153600a858161255557612554614511565b5b0494506000850361250c575b819350505050919050565b60008073ffffffffffffffffffffffffffffffffffffffff1661258e8361213e565b73ffffffffffffffffffffffffffffffffffffffff1614159050919050565b6125b783836128ee565b6125c46000848484612614565b612603576040517f08c379a00000000000000000000000000000000000000000000000000000000081526004016125fa906144f1565b60405180910390fd5b505050565b50505050565b50505050565b60006126358473ffffffffffffffffffffffffffffffffffffffff16612b0b565b1561278e578373ffffffffffffffffffffffffffffffffffffffff1663150b7a0261265e611cbb565b8786866040518563ffffffff1660e01b81526004016126809493929190614595565b6020604051808303816000875af19250505080156126bc57506040513d601f19601f820116820180604052508101906126b991906145f6565b60015b61273e573d80600081146126ec576040519150601f19603f3d011682016040523d82523d6000602084013e6126f1565b606091505b506000815103612736576040517f08c379a000000000000000000000000000000000000000000000000000000000815260040161272d906144f1565b60405180910390fd5b805181602001fd5b63150b7a0260e01b7bffffffffffffffffffffffffffffffffffffffffffffffffffffffff1916817bffffffffffffffffffffffffffffffffffffffffffffffffffffffff191614915050612793565b600190505b949350505050565b600080600090507a184f03e93ff9f4daa797ed6e38ed64bf6a1f01000000000000000083106127f9577a184f03e93ff9f4daa797ed6e38ed64bf6a1f01000000000000000083816127ef576127ee614511565b5b0492506040810190505b6d04ee2d6d415b85acef81000000008310612836576d04ee2d6d415b85acef8100000000838161282c5761282b614511565b5b0492506020810190505b662386f26fc10000831061286557662386f26fc10000838161285b5761285a614511565b5b0492506010810190505b6305f5e100831061288e576305f5e100838161288457612883614511565b5b0492506008810190505b61271083106128b35761271083816128a9576128a8614511565b5b0492506004810190505b606483106128d657606483816128cc576128cb614511565b5b0492506002810190505b600a83106128e5576001810190505b80915050919050565b600073ffffffffffffffffffffffffffffffffffffffff168273ffffffffffffffffffffffffffffffffffffffff160361295d576040517f08c379a00000000000000000000000000000000000000000000000000000000081526004016129549061466f565b60405180910390fd5b6129668161256c565b156129a6576040517f08c379a000000000000000000000000000000000000000000000000000000000815260040161299d906146db565b60405180910390fd5b6129b4600083836001612608565b6129bd8161256c565b156129fd576040517f08c379a00000000000000000000000000000000000000000000000000000000081526004016129f4906146db565b60405180910390fd5b6001600360008473ffffffffffffffffffffffffffffffffffffffff1673ffffffffffffffffffffffffffffffffffffffff16815260200190815260200160002060008282540192505081905550816002600083815260200190815260200160002060006101000a81548173ffffffffffffffffffffffffffffffffffffffff021916908373ffffffffffffffffffffffffffffffffffffffff160217905550808273ffffffffffffffffffffffffffffffffffffffff16600073ffffffffffffffffffffffffffffffffffffffff167fddf252ad1be2c89b69c2b068fc378daa952ba7f163c4a11628f55a4df523b3ef60405160405180910390a4612b0760008383600161260e565b5050565b6000808273ffffffffffffffffffffffffffffffffffffffff163b119050919050565b6000604051905090565b600080fd5b600080fd5b60007fffffffff0000000000000000000000000000000000000000000000000000000082169050919050565b612b7781612b42565b8114612b8257600080fd5b50565b600081359050612b9481612b6e565b92915050565b600060208284031215612bb057612baf612b38565b5b6000612bbe84828501612b85565b91505092915050565b60008115159050919050565b612bdc81612bc7565b82525050565b6000602082019050612bf76000830184612bd3565b92915050565b600081519050919050565b600082825260208201905092915050565b60005b83811015612c37578082015181840152602081019050612c1c565b60008484015250505050565b6000601f19601f8301169050919050565b6000612c5f82612bfd565b612c698185612c08565b9350612c79818560208601612c19565b612c8281612c43565b840191505092915050565b60006020820190508181036000830152612ca78184612c54565b905092915050565b6000819050919050565b612cc281612caf565b8114612ccd57600080fd5b50565b600081359050612cdf81612cb9565b92915050565b600060208284031215612cfb57612cfa612b38565b5b6000612d0984828501612cd0565b91505092915050565b600073ffffffffffffffffffffffffffffffffffffffff82169050919050565b6000612d3d82612d12565b9050919050565b612d4d81612d32565b82525050565b6000602082019050612d686000830184612d44565b92915050565b600081519050919050565b600082825260208201905092915050565b6000819050602082019050919050565b600082825260208201905092915050565b6000612db682612bfd565b612dc08185612d9a565b9350612dd0818560208601612c19565b612dd981612c43565b840191505092915050565b6000612df08383612dab565b905092915050565b6000602082019050919050565b6000612e1082612d6e565b612e1a8185612d79565b935083602082028501612e2c85612d8a565b8060005b85811015612e685784840389528151612e498582612de4565b9450612e5483612df8565b925060208a01995050600181019050612e30565b50829750879550505050505092915050565b600081519050919050565b600082825260208201905092915050565b6000819050602082019050919050565b612eaf81612d32565b82525050565b6000612ec18383612ea6565b60208301905092915050565b6000602082019050919050565b6000612ee582612e7a565b612eef8185612e85565b9350612efa83612e96565b8060005b83811015612f2b578151612f128882612eb5565b9750612f1d83612ecd565b925050600181019050612efe565b5085935050505092915050565b600081519050919050565b600082825260208201905092915050565b6000819050602082019050919050565b612f6d81612caf565b82525050565b6000612f7f8383612f64565b60208301905092915050565b6000602082019050919050565b6000612fa382612f38565b612fad8185612f43565b9350612fb883612f54565b8060005b83811015612fe9578151612fd08882612f73565b9750612fdb83612f8b565b925050600181019050612fbc565b5085935050505092915050565b600060808201905081810360008301526130108187612e05565b905081810360208301526130248186612e05565b905081810360408301526130388185612eda565b9050818103606083015261304c8184612f98565b905095945050505050565b61306081612d32565b811461306b57600080fd5b50565b60008135905061307d81613057565b92915050565b6000806040838503121561309a57613099612b38565b5b60006130a88582860161306e565b92505060206130b985828601612cd0565b9150509250929050565b600080fd5b600080fd5b7f4e487b7100000000000000000000000000000000000000000000000000000000600052604160045260246000fd5b61310582612c43565b810181811067ffffffffffffffff82111715613124576131236130cd565b5b80604052505050565b6000613137612b2e565b905061314382826130fc565b919050565b600067ffffffffffffffff821115613163576131626130cd565b5b61316c82612c43565b9050602081019050919050565b82818337600083830152505050565b600061319b61319684613148565b61312d565b9050828152602081018484840111156131b7576131b66130c8565b5b6131c2848285613179565b509392505050565b600082601f8301126131df576131de6130c3565b5b81356131ef848260208601613188565b91505092915050565b60008060006060848603121561321157613210612b38565b5b600084013567ffffffffffffffff81111561322f5761322e612b3d565b5b61323b868287016131ca565b935050602084013567ffffffffffffffff81111561325c5761325b612b3d565b5b613268868287016131ca565b92505060406132798682870161306e565b9150509250925092565b60008060006060848603121561329c5761329b612b38565b5b60006132aa8682870161306e565b93505060206132bb8682870161306e565b92505060406132cc86828701612cd0565b9150509250925092565b6000602082840312156132ec576132eb612b38565b5b60006132fa8482850161306e565b91505092915050565b61330c81612caf565b82525050565b60006020820190506133276000830184613303565b92915050565b600060808201905081810360008301526133478187612c54565b9050818103602083015261335b8186612c54565b905061336a6040830185612d44565b6133776060830184613303565b95945050505050565b6000606082019050818103600083015261339a8186612f98565b905081810360208301526133ae8185612e05565b905081810360408301526133c28184612f98565b9050949350505050565b6133d581612bc7565b81146133e057600080fd5b50565b6000813590506133f2816133cc565b92915050565b6000806040838503121561340f5761340e612b38565b5b600061341d8582860161306e565b925050602061342e858286016133e3565b9150509250929050565b600067ffffffffffffffff821115613453576134526130cd565b5b61345c82612c43565b9050602081019050919050565b600061347c61347784613438565b61312d565b905082815260208101848484011115613498576134976130c8565b5b6134a3848285613179565b509392505050565b600082601f8301126134c0576134bf6130c3565b5b81356134d0848260208601613469565b91505092915050565b600080600080608085870312156134f3576134f2612b38565b5b60006135018782880161306e565b94505060206135128782880161306e565b935050604061352387828801612cd0565b925050606085013567ffffffffffffffff81111561354457613543612b3d565b5b613550878288016134ab565b91505092959194509250565b6000806040838503121561357357613572612b38565b5b600061358185828601612cd0565b925050602061359285828601612cd0565b9150509250929050565b600080604083850312156135b3576135b2612b38565b5b60006135c18582860161306e565b92505060206135d28582860161306e565b9150509250929050565b600080604083850312156135f3576135f2612b38565b5b600061360185828601612cd0565b925050602083013567ffffffffffffffff81111561362257613621612b3d565b5b61362e858286016131ca565b9150509250929050565b7f4e487b7100000000000000000000000000000000000000000000000000000000600052602260045260246000fd5b6000600282049050600182168061367f57607f821691505b60208210810361369257613691613638565b5b50919050565b7f4e487b7100000000000000000000000000000000000000000000000000000000600052603260045260246000fd5b7f4e487b7100000000000000000000000000000000000000000000000000000000600052601160045260246000fd5b600061370182612caf565b91507fffffffffffffffffffffffffffffffffffffffffffffffffffffffffffffffff8203613733576137326136c7565b5b600182019050919050565b7f4552433732313a20617070726f76616c20746f2063757272656e74206f776e6560008201527f7200000000000000000000000000000000000000000000000000000000000000602082015250565b600061379a602183612c08565b91506137a58261373e565b604082019050919050565b600060208201905081810360008301526137c98161378d565b9050919050565b7f4552433732313a20617070726f76652063616c6c6572206973206e6f7420746f60008201527f6b656e206f776e6572206f7220617070726f76656420666f7220616c6c000000602082015250565b600061382c603d83612c08565b9150613837826137d0565b604082019050919050565b6000602082019050818103600083015261385b8161381f565b9050919050565b7f4f7267616e697a6174696f6e206e616d652063616e6e6f7420626520656d707460008201527f7900000000000000000000000000000000000000000000000000000000000000602082015250565b60006138be602183612c08565b91506138c982613862565b604082019050919050565b600060208201905081810360008301526138ed816138b1565b9050919050565b7f4f7267616e697a6174696f6e206465736372697074696f6e2063616e6e6f742060008201527f626520656d707479000000000000000000000000000000000000000000000000602082015250565b6000613950602883612c08565b915061395b826138f4565b604082019050919050565b6000602082019050818103600083015261397f81613943565b9050919050565b60008190508160005260206000209050919050565b60006020601f8301049050919050565b600082821b905092915050565b6000600883026139e87fffffffffffffffffffffffffffffffffffffffffffffffffffffffffffffffff826139ab565b6139f286836139ab565b95508019841693508086168417925050509392505050565b6000819050919050565b6000613a2f613a2a613a2584612caf565b613a0a565b612caf565b9050919050565b6000819050919050565b613a4983613a14565b613a5d613a5582613a36565b8484546139b8565b825550505050565b600090565b613a72613a65565b613a7d818484613a40565b505050565b5b81811015613aa157613a96600082613a6a565b600181019050613a83565b5050565b601f821115613ae657613ab781613986565b613ac08461399b565b81016020851015613acf578190505b613ae3613adb8561399b565b830182613a82565b50505b505050565b600082821c905092915050565b6000613b0960001984600802613aeb565b1980831691505092915050565b6000613b228383613af8565b9150826002028217905092915050565b613b3b82612bfd565b67ffffffffffffffff811115613b5457613b536130cd565b5b613b5e8254613667565b613b69828285613aa5565b600060209050601f831160018114613b9c5760008415613b8a578287015190505b613b948582613b16565b865550613bfc565b601f198416613baa86613986565b60005b82811015613bd257848901518255600182019150602085019450602081019050613bad565b86831015613bef5784890151613beb601f891682613af8565b8355505b6001600288020188555050505b505050505050565b6000608082019050613c196000830187613303565b8181036020830152613c2b8186612c54565b90508181036040830152613c3f8185612c54565b9050613c4e6060830184612d44565b95945050505050565b7f4552433732313a2063616c6c6572206973206e6f7420746f6b656e206f776e6560008201527f72206f7220617070726f76656400000000000000000000000000000000000000602082015250565b6000613cb3602d83612c08565b9150613cbe82613c57565b604082019050919050565b60006020820190508181036000830152613ce281613ca6565b9050919050565b7f4552433732313a20696e76616c696420746f6b656e2049440000000000000000600082015250565b6000613d1f601883612c08565b9150613d2a82613ce9565b602082019050919050565b60006020820190508181036000830152613d4e81613d12565b9050919050565b7f4552433732313a2061646472657373207a65726f206973206e6f74206120766160008201527f6c6964206f776e65720000000000000000000000000000000000000000000000602082015250565b6000613db1602983612c08565b9150613dbc82613d55565b604082019050919050565b60006020820190508181036000830152613de081613da4565b9050919050565b7f4f7267616e697a6174696f6e20646f6573206e6f742065786973740000000000600082015250565b6000613e1d601b83612c08565b9150613e2882613de7565b602082019050919050565b60006020820190508181036000830152613e4c81613e10565b9050919050565b7f43617465676f727920646f6573206e6f74206578697374000000000000000000600082015250565b6000613e89601783612c08565b9150613e9482613e53565b602082019050919050565b60006020820190508181036000830152613eb881613e7c565b9050919050565b7f53656e742066756e6473206d7573742062652067726561746572207468616e2060008201527f3000000000000000000000000000000000000000000000000000000000000000602082015250565b6000613f1b602183612c08565b9150613f2682613ebf565b604082019050919050565b60006020820190508181036000830152613f4a81613f0e565b9050919050565b6000613f5c82612caf565b9150613f6783612caf565b9250828201905080821115613f7f57613f7e6136c7565b5b92915050565b60008154613f9281613667565b613f9c8186612c08565b94506001821660008114613fb75760018114613fcd57614000565b60ff198316865281151560200286019350614000565b613fd685613986565b60005b83811015613ff857815481890152600182019150602081019050613fd9565b808801955050505b50505092915050565b600060808201905061401e6000830187613303565b61402b6020830186613303565b818103604083015261403d8185613f85565b905061404c6060830184613303565b95945050505050565b600081905092915050565b600061406b82612bfd565b6140758185614055565b9350614085818560208601612c19565b80840191505092915050565b600061409d8285614060565b91506140a98284614060565b91508190509392505050565b7f4f776e61626c653a206e6577206f776e657220697320746865207a65726f206160008201527f6464726573730000000000000000000000000000000000000000000000000000602082015250565b6000614111602683612c08565b915061411c826140b5565b604082019050919050565b6000602082019050818103600083015261414081614104565b9050919050565b7f4e6f7420746865206f776e6572206f6620746865206f7267616e697a6174696f60008201527f6e00000000000000000000000000000000000000000000000000000000000000602082015250565b60006141a3602183612c08565b91506141ae82614147565b604082019050919050565b600060208201905081810360008301526141d281614196565b9050919050565b7f43617465676f7279206e616d652063616e6e6f7420626520656d707479000000600082015250565b600061420f601d83612c08565b915061421a826141d9565b602082019050919050565b6000602082019050818103600083015261423e81614202565b9050919050565b600060608201905061425a6000830186613303565b6142676020830185613303565b81810360408301526142798184612c54565b9050949350505050565b7f4552433732313a207472616e736665722066726f6d20696e636f72726563742060008201527f6f776e6572000000000000000000000000000000000000000000000000000000602082015250565b60006142df602583612c08565b91506142ea82614283565b604082019050919050565b6000602082019050818103600083015261430e816142d2565b9050919050565b7f4552433732313a207472616e7366657220746f20746865207a65726f2061646460008201527f7265737300000000000000000000000000000000000000000000000000000000602082015250565b6000614371602483612c08565b915061437c82614315565b604082019050919050565b600060208201905081810360008301526143a081614364565b9050919050565b7f4f776e61626c653a2063616c6c6572206973206e6f7420746865206f776e6572600082015250565b60006143dd602083612c08565b91506143e8826143a7565b602082019050919050565b6000602082019050818103600083015261440c816143d0565b9050919050565b7f4552433732313a20617070726f766520746f2063616c6c657200000000000000600082015250565b6000614449601983612c08565b915061445482614413565b602082019050919050565b600060208201905081810360008301526144788161443c565b9050919050565b7f4552433732313a207472616e7366657220746f206e6f6e20455243373231526560008201527f63656976657220696d706c656d656e7465720000000000000000000000000000602082015250565b60006144db603283612c08565b91506144e68261447f565b604082019050919050565b6000602082019050818103600083015261450a816144ce565b9050919050565b7f4e487b7100000000000000000000000000000000000000000000000000000000600052601260045260246000fd5b600081519050919050565b600082825260208201905092915050565b600061456782614540565b614571818561454b565b9350614581818560208601612c19565b61458a81612c43565b840191505092915050565b60006080820190506145aa6000830187612d44565b6145b76020830186612d44565b6145c46040830185613303565b81810360608301526145d6818461455c565b905095945050505050565b6000815190506145f081612b6e565b92915050565b60006020828403121561460c5761460b612b38565b5b600061461a848285016145e1565b91505092915050565b7f4552433732313a206d696e7420746f20746865207a65726f2061646472657373600082015250565b6000614659602083612c08565b915061466482614623565b602082019050919050565b600060208201905081810360008301526146888161464c565b9050919050565b7f4552433732313a20746f6b656e20616c7265616479206d696e74656400000000600082015250565b60006146c5601c83612c08565b91506146d08261468f565b602082019050919050565b600060208201905081810360008301526146f4816146b8565b905091905056fea2646970667358221220abc1d8b7832b58e7e3d798de863f535c579f21268375c75db575b633e574866a64736f6c63430008110033",
  "linkReferences": {},
  "deployedLinkReferences": {}
}