{
  "_format": "hh-sol-artifact-1",
  "contractName": "OrganizationNFT",
  "sourceName": "contracts/contract.sol",
  "abi": [
    {
      "inputs": [],
      "stateMutability": "nonpayable",
      "type": "constructor"
    },
    {
      "anonymous": false,
      "inputs": [
        {
          "indexed": true,
          "internalType": "address",
          "name": "owner",
          "type": "address"
        },
        {
          "indexed": true,
          "internalType": "address",
          "name": "approved",
          "type": "address"
        },
        {
          "indexed": true,
          "internalType": "uint256",
          "name": "tokenId",
          "type": "uint256"
        }
      ],
      "name": "Approval",
      "type": "event"
    },
    {
      "anonymous": false,
      "inputs": [
        {
          "indexed": true,
          "internalType": "address",
          "name": "owner",
          "type": "address"
        },
        {
          "indexed": true,
          "internalType": "address",
          "name": "operator",
          "type": "address"
        },
        {
          "indexed": false,
          "internalType": "bool",
          "name": "approved",
          "type": "bool"
        }
      ],
      "name": "ApprovalForAll",
      "type": "event"
    },
    {
      "anonymous": false,
      "inputs": [
        {
          "indexed": false,
          "internalType": "uint256",
          "name": "organizationId",
          "type": "uint256"
        },
        {
          "indexed": false,
          "internalType": "uint256",
          "name": "categoryId",
          "type": "uint256"
        },
        {
          "indexed": false,
          "internalType": "string",
          "name": "categoryName",
          "type": "string"
        }
      ],
      "name": "CategoryCreated",
      "type": "event"
    },
    {
      "anonymous": false,
      "inputs": [
        {
          "indexed": false,
          "internalType": "uint256",
          "name": "organizationId",
          "type": "uint256"
        },
        {
          "indexed": false,
          "internalType": "uint256",
          "name": "categoryId",
          "type": "uint256"
        },
        {
          "indexed": false,
          "internalType": "string",
          "name": "categoryName",
          "type": "string"
        },
        {
          "indexed": false,
          "internalType": "uint256",
          "name": "amount",
          "type": "uint256"
        }
      ],
      "name": "FundsSent",
      "type": "event"
    },
    {
      "anonymous": false,
      "inputs": [
        {
          "indexed": true,
          "internalType": "address",
          "name": "organization",
          "type": "address"
        },
        {
          "indexed": true,
          "internalType": "address",
          "name": "recipient",
          "type": "address"
        },
        {
          "indexed": false,
          "internalType": "uint256",
          "name": "amount",
          "type": "uint256"
        }
      ],
      "name": "FundsSentToAccount",
      "type": "event"
    },
    {
      "anonymous": false,
      "inputs": [
        {
          "indexed": false,
          "internalType": "uint256",
          "name": "organizationId",
          "type": "uint256"
        },
        {
          "indexed": false,
          "internalType": "string",
          "name": "name",
          "type": "string"
        },
        {
          "indexed": false,
          "internalType": "string",
          "name": "description",
          "type": "string"
        },
        {
          "indexed": false,
          "internalType": "address",
          "name": "organizationAddress",
          "type": "address"
        }
      ],
      "name": "OrganizationRegistered",
      "type": "event"
    },
    {
      "anonymous": false,
      "inputs": [
        {
          "indexed": true,
          "internalType": "address",
          "name": "previousOwner",
          "type": "address"
        },
        {
          "indexed": true,
          "internalType": "address",
          "name": "newOwner",
          "type": "address"
        }
      ],
      "name": "OwnershipTransferred",
      "type": "event"
    },
    {
      "anonymous": false,
      "inputs": [
        {
          "indexed": true,
          "internalType": "address",
          "name": "from",
          "type": "address"
        },
        {
          "indexed": true,
          "internalType": "address",
          "name": "to",
          "type": "address"
        },
        {
          "indexed": true,
          "internalType": "uint256",
          "name": "tokenId",
          "type": "uint256"
        }
      ],
      "name": "Transfer",
      "type": "event"
    },
    {
      "inputs": [
        {
          "internalType": "address",
          "name": "to",
          "type": "address"
        },
        {
          "internalType": "uint256",
          "name": "tokenId",
          "type": "uint256"
        }
      ],
      "name": "approve",
      "outputs": [],
      "stateMutability": "nonpayable",
      "type": "function"
    },
    {
      "inputs": [
        {
          "internalType": "address",
          "name": "owner",
          "type": "address"
        }
      ],
      "name": "balanceOf",
      "outputs": [
        {
          "internalType": "uint256",
          "name": "",
          "type": "uint256"
        }
      ],
      "stateMutability": "view",
      "type": "function"
    },
    {
      "inputs": [
        {
          "internalType": "uint256",
          "name": "_organizationId",
          "type": "uint256"
        },
        {
          "internalType": "string",
          "name": "_categoryName",
          "type": "string"
        }
      ],
      "name": "createCategory",
      "outputs": [],
      "stateMutability": "nonpayable",
      "type": "function"
    },
    {
      "inputs": [],
      "name": "getAllOrganizations",
      "outputs": [
        {
          "internalType": "string[]",
          "name": "names",
          "type": "string[]"
        },
        {
          "internalType": "string[]",
          "name": "descriptions",
          "type": "string[]"
        },
        {
          "internalType": "address[]",
          "name": "addressesOfOrg",
          "type": "address[]"
        },
        {
          "internalType": "uint256[]",
          "name": "funds",
          "type": "uint256[]"
        }
      ],
      "stateMutability": "view",
      "type": "function"
    },
    {
      "inputs": [
        {
          "internalType": "uint256",
          "name": "tokenId",
          "type": "uint256"
        }
      ],
      "name": "getApproved",
      "outputs": [
        {
          "internalType": "address",
          "name": "",
          "type": "address"
        }
      ],
      "stateMutability": "view",
      "type": "function"
    },
    {
      "inputs": [
        {
          "internalType": "uint256",
          "name": "_organizationId",
          "type": "uint256"
        }
      ],
      "name": "getCategoryBalances",
      "outputs": [
        {
          "internalType": "uint256[]",
          "name": "categoryIds",
          "type": "uint256[]"
        },
        {
          "internalType": "string[]",
          "name": "categoryNames",
          "type": "string[]"
        },
        {
          "internalType": "uint256[]",
          "name": "categoryBalances",
          "type": "uint256[]"
        }
      ],
      "stateMutability": "view",
      "type": "function"
    },
    {
      "inputs": [
        {
          "internalType": "uint256",
          "name": "_organizationId",
          "type": "uint256"
        }
      ],
      "name": "getOrganizationDetails",
      "outputs": [
        {
          "internalType": "string",
          "name": "name",
          "type": "string"
        },
        {
          "internalType": "string",
          "name": "description",
          "type": "string"
        },
        {
          "internalType": "address",
          "name": "organizationAddress",
          "type": "address"
        },
        {
          "internalType": "uint256",
          "name": "funds",
          "type": "uint256"
        },
        {
          "internalType": "string[]",
          "name": "categoryNames",
          "type": "string[]"
        },
        {
          "internalType": "uint256[]",
          "name": "categorybalance",
          "type": "uint256[]"
        }
      ],
      "stateMutability": "view",
      "type": "function"
    },
    {
      "inputs": [
        {
          "internalType": "address",
          "name": "_walletAddress",
          "type": "address"
        }
      ],
      "name": "getOrganizationsByAddress",
      "outputs": [
        {
          "internalType": "string[]",
          "name": "names",
          "type": "string[]"
        },
        {
          "internalType": "string[]",
          "name": "descriptions",
          "type": "string[]"
        },
        {
          "internalType": "address[]",
          "name": "addressesOfOrg",
          "type": "address[]"
        },
        {
          "internalType": "uint256[]",
          "name": "funds",
          "type": "uint256[]"
        }
      ],
      "stateMutability": "view",
      "type": "function"
    },
    {
      "inputs": [
        {
          "internalType": "address",
          "name": "owner",
          "type": "address"
        },
        {
          "internalType": "address",
          "name": "operator",
          "type": "address"
        }
      ],
      "name": "isApprovedForAll",
      "outputs": [
        {
          "internalType": "bool",
          "name": "",
          "type": "bool"
        }
      ],
      "stateMutability": "view",
      "type": "function"
    },
    {
      "inputs": [],
      "name": "name",
      "outputs": [
        {
          "internalType": "string",
          "name": "",
          "type": "string"
        }
      ],
      "stateMutability": "view",
      "type": "function"
    },
    {
      "inputs": [],
      "name": "owner",
      "outputs": [
        {
          "internalType": "address",
          "name": "",
          "type": "address"
        }
      ],
      "stateMutability": "view",
      "type": "function"
    },
    {
      "inputs": [
        {
          "internalType": "uint256",
          "name": "tokenId",
          "type": "uint256"
        }
      ],
      "name": "ownerOf",
      "outputs": [
        {
          "internalType": "address",
          "name": "",
          "type": "address"
        }
      ],
      "stateMutability": "view",
      "type": "function"
    },
    {
      "inputs": [
        {
          "internalType": "string",
          "name": "_name",
          "type": "string"
        },
        {
          "internalType": "string",
          "name": "_description",
          "type": "string"
        },
        {
          "internalType": "address",
          "name": "_organizationAddress",
          "type": "address"
        }
      ],
      "name": "registerOrganization",
      "outputs": [],
      "stateMutability": "nonpayable",
      "type": "function"
    },
    {
      "inputs": [],
      "name": "renounceOwnership",
      "outputs": [],
      "stateMutability": "nonpayable",
      "type": "function"
    },
    {
      "inputs": [
        {
          "internalType": "address",
          "name": "from",
          "type": "address"
        },
        {
          "internalType": "address",
          "name": "to",
          "type": "address"
        },
        {
          "internalType": "uint256",
          "name": "tokenId",
          "type": "uint256"
        }
      ],
      "name": "safeTransferFrom",
      "outputs": [],
      "stateMutability": "nonpayable",
      "type": "function"
    },
    {
      "inputs": [
        {
          "internalType": "address",
          "name": "from",
          "type": "address"
        },
        {
          "internalType": "address",
          "name": "to",
          "type": "address"
        },
        {
          "internalType": "uint256",
          "name": "tokenId",
          "type": "uint256"
        },
        {
          "internalType": "bytes",
          "name": "data",
          "type": "bytes"
        }
      ],
      "name": "safeTransferFrom",
      "outputs": [],
      "stateMutability": "nonpayable",
      "type": "function"
    },
    {
      "inputs": [
        {
          "internalType": "uint256",
          "name": "_organizationId",
          "type": "uint256"
        },
        {
          "internalType": "uint256",
          "name": "_categoryId",
          "type": "uint256"
        }
      ],
      "name": "sendFunds",
      "outputs": [],
      "stateMutability": "payable",
      "type": "function"
    },
    {
      "inputs": [
        {
          "internalType": "address",
          "name": "operator",
          "type": "address"
        },
        {
          "internalType": "bool",
          "name": "approved",
          "type": "bool"
        }
      ],
      "name": "setApprovalForAll",
      "outputs": [],
      "stateMutability": "nonpayable",
      "type": "function"
    },
    {
      "inputs": [
        {
          "internalType": "bytes4",
          "name": "interfaceId",
          "type": "bytes4"
        }
      ],
      "name": "supportsInterface",
      "outputs": [
        {
          "internalType": "bool",
          "name": "",
          "type": "bool"
        }
      ],
      "stateMutability": "view",
      "type": "function"
    },
    {
      "inputs": [],
      "name": "symbol",
      "outputs": [
        {
          "internalType": "string",
          "name": "",
          "type": "string"
        }
      ],
      "stateMutability": "view",
      "type": "function"
    },
    {
      "inputs": [
        {
          "internalType": "uint256",
          "name": "tokenId",
          "type": "uint256"
        }
      ],
      "name": "tokenURI",
      "outputs": [
        {
          "internalType": "string",
          "name": "",
          "type": "string"
        }
      ],
      "stateMutability": "view",
      "type": "function"
    },
    {
      "inputs": [
        {
          "internalType": "address",
          "name": "from",
          "type": "address"
        },
        {
          "internalType": "address",
          "name": "to",
          "type": "address"
        },
        {
          "internalType": "uint256",
          "name": "tokenId",
          "type": "uint256"
        }
      ],
      "name": "transferFrom",
      "outputs": [],
      "stateMutability": "nonpayable",
      "type": "function"
    },
    {
      "inputs": [
        {
          "internalType": "address",
          "name": "newOwner",
          "type": "address"
        }
      ],
      "name": "transferOwnership",
      "outputs": [],
      "stateMutability": "nonpayable",
      "type": "function"
    }
  ],
  "bytecode": "0x60806040523480156200001157600080fd5b506040518060400160405280600f81526020017f4f7267616e697a6174696f6e4e465400000000000000000000000000000000008152506040518060400160405280600381526020017f4f5247000000000000000000000000000000000000000000000000000000000081525081600090816200008f919062000412565b508060019081620000a1919062000412565b505050620000c4620000b8620000ca60201b60201c565b620000d260201b60201c565b620004f9565b600033905090565b6000600660009054906101000a900473ffffffffffffffffffffffffffffffffffffffff16905081600660006101000a81548173ffffffffffffffffffffffffffffffffffffffff021916908373ffffffffffffffffffffffffffffffffffffffff1602179055508173ffffffffffffffffffffffffffffffffffffffff168173ffffffffffffffffffffffffffffffffffffffff167f8be0079c531659141344cd1fd0a4f28419497f9722a3daafe3b4186f6b6457e060405160405180910390a35050565b600081519050919050565b7f4e487b7100000000000000000000000000000000000000000000000000000000600052604160045260246000fd5b7f4e487b7100000000000000000000000000000000000000000000000000000000600052602260045260246000fd5b600060028204905060018216806200021a57607f821691505b60208210810362000230576200022f620001d2565b5b50919050565b60008190508160005260206000209050919050565b60006020601f8301049050919050565b600082821b905092915050565b6000600883026200029a7fffffffffffffffffffffffffffffffffffffffffffffffffffffffffffffffff826200025b565b620002a686836200025b565b95508019841693508086168417925050509392505050565b6000819050919050565b6000819050919050565b6000620002f3620002ed620002e784620002be565b620002c8565b620002be565b9050919050565b6000819050919050565b6200030f83620002d2565b620003276200031e82620002fa565b84845462000268565b825550505050565b600090565b6200033e6200032f565b6200034b81848462000304565b505050565b5b8181101562000373576200036760008262000334565b60018101905062000351565b5050565b601f821115620003c2576200038c8162000236565b62000397846200024b565b81016020851015620003a7578190505b620003bf620003b6856200024b565b83018262000350565b50505b505050565b600082821c905092915050565b6000620003e760001984600802620003c7565b1980831691505092915050565b6000620004028383620003d4565b9150826002028217905092915050565b6200041d8262000198565b67ffffffffffffffff811115620004395762000438620001a3565b5b62000445825462000201565b6200045282828562000377565b600060209050601f8311600181146200048a576000841562000475578287015190505b620004818582620003f4565b865550620004f1565b601f1984166200049a8662000236565b60005b82811015620004c4578489015182556001820191506020850194506020810190506200049d565b86831015620004e45784890151620004e0601f891682620003d4565b8355505b6001600288020188555050505b505050505050565b61495580620005096000396000f3fe6080604052600436106101405760003560e01c8063715018a6116100b6578063b88d4fde1161006f578063b88d4fde1461048d578063bebae9e7146104b6578063c87b56dd146104d2578063e985e9c51461050f578063f2fde38b1461054c578063f7868a521461057557610140565b8063715018a61461037657806379bb57b41461038d5780638da5cb5b146103cf57806395d89b41146103fa578063999dc08d14610425578063a22cb4651461046457610140565b806316b0b83a1161010857806316b0b83a1461024157806323b872dd1461026a57806342842e0e146102935780635adc8443146102bc5780636352211e146102fc57806370a082311461033957610140565b806301ffc9a71461014557806306fdde0314610182578063081812fc146101ad578063086ed938146101ea578063095ea7b314610218575b600080fd5b34801561015157600080fd5b5061016c60048036038101906101679190612d94565b61059e565b6040516101799190612ddc565b60405180910390f35b34801561018e57600080fd5b50610197610680565b6040516101a49190612e87565b60405180910390f35b3480156101b957600080fd5b506101d460048036038101906101cf9190612edf565b610712565b6040516101e19190612f4d565b60405180910390f35b3480156101f657600080fd5b506101ff610758565b60405161020f94939291906131f0565b60405180910390f35b34801561022457600080fd5b5061023f600480360381019061023a919061327d565b610aea565b005b34801561024d57600080fd5b50610268600480360381019061026391906133f2565b610c01565b005b34801561027657600080fd5b50610291600480360381019061028c919061347d565b610d81565b005b34801561029f57600080fd5b506102ba60048036038101906102b5919061347d565b610de1565b005b3480156102c857600080fd5b506102e360048036038101906102de91906134d0565b610e01565b6040516102f394939291906131f0565b60405180910390f35b34801561030857600080fd5b50610323600480360381019061031e9190612edf565b6110a2565b6040516103309190612f4d565b60405180910390f35b34801561034557600080fd5b50610360600480360381019061035b91906134d0565b611128565b60405161036d919061350c565b60405180910390f35b34801561038257600080fd5b5061038b6111df565b005b34801561039957600080fd5b506103b460048036038101906103af9190612edf565b6111f3565b6040516103c696959493929190613527565b60405180910390f35b3480156103db57600080fd5b506103e461154f565b6040516103f19190612f4d565b60405180910390f35b34801561040657600080fd5b5061040f611579565b60405161041c9190612e87565b60405180910390f35b34801561043157600080fd5b5061044c60048036038101906104479190612edf565b61160b565b60405161045b939291906135a4565b60405180910390f35b34801561047057600080fd5b5061048b6004803603810190610486919061361c565b61188c565b005b34801561049957600080fd5b506104b460048036038101906104af91906136fd565b6118a2565b005b6104d060048036038101906104cb9190613780565b611904565b005b3480156104de57600080fd5b506104f960048036038101906104f49190612edf565b611af0565b6040516105069190612e87565b60405180910390f35b34801561051b57600080fd5b50610536600480360381019061053191906137c0565b611b58565b6040516105439190612ddc565b60405180910390f35b34801561055857600080fd5b50610573600480360381019061056e91906134d0565b611bec565b005b34801561058157600080fd5b5061059c60048036038101906105979190613800565b611c6f565b005b60007f80ac58cd000000000000000000000000000000000000000000000000000000007bffffffffffffffffffffffffffffffffffffffffffffffffffffffff1916827bffffffffffffffffffffffffffffffffffffffffffffffffffffffff1916148061066957507f5b5e139f000000000000000000000000000000000000000000000000000000007bffffffffffffffffffffffffffffffffffffffffffffffffffffffff1916827bffffffffffffffffffffffffffffffffffffffffffffffffffffffff1916145b80610679575061067882611df2565b5b9050919050565b60606000805461068f9061388b565b80601f01602080910402602001604051908101604052809291908181526020018280546106bb9061388b565b80156107085780601f106106dd57610100808354040283529160200191610708565b820191906000526020600020905b8154815290600101906020018083116106eb57829003601f168201915b5050505050905090565b600061071d82611e5c565b6004600083815260200190815260200160002060009054906101000a900473ffffffffffffffffffffffffffffffffffffffff169050919050565b6060806060806107686007611ea7565b67ffffffffffffffff811115610781576107806132c7565b5b6040519080825280602002602001820160405280156107b457816020015b606081526020019060019003908161079f5790505b5093506107c16007611ea7565b67ffffffffffffffff8111156107da576107d96132c7565b5b60405190808252806020026020018201604052801561080d57816020015b60608152602001906001900390816107f85790505b50925061081a6007611ea7565b67ffffffffffffffff811115610833576108326132c7565b5b6040519080825280602002602001820160405280156108615781602001602082028036833780820191505090505b50915061086e6007611ea7565b67ffffffffffffffff811115610887576108866132c7565b5b6040519080825280602002602001820160405280156108b55781602001602082028036833780820191505090505b50905060005b6108c56007611ea7565b811015610ae35760006009600083815260200190815260200160002090508060000180546108f29061388b565b80601f016020809104026020016040519081016040528092919081815260200182805461091e9061388b565b801561096b5780601f106109405761010080835404028352916020019161096b565b820191906000526020600020905b81548152906001019060200180831161094e57829003601f168201915b5050505050868381518110610983576109826138bc565b5b602002602001018190525080600101805461099d9061388b565b80601f01602080910402602001604051908101604052809291908181526020018280546109c99061388b565b8015610a165780601f106109eb57610100808354040283529160200191610a16565b820191906000526020600020905b8154815290600101906020018083116109f957829003601f168201915b5050505050858381518110610a2e57610a2d6138bc565b5b60200260200101819052508060020160009054906101000a900473ffffffffffffffffffffffffffffffffffffffff16848381518110610a7157610a706138bc565b5b602002602001019073ffffffffffffffffffffffffffffffffffffffff16908173ffffffffffffffffffffffffffffffffffffffff16815250508060030154838381518110610ac357610ac26138bc565b5b602002602001018181525050508080610adb9061391a565b9150506108bb565b5090919293565b6000610af5826110a2565b90508073ffffffffffffffffffffffffffffffffffffffff168373ffffffffffffffffffffffffffffffffffffffff1603610b65576040517f08c379a0000000000000000000000000000000000000000000000000000000008152600401610b5c906139d4565b60405180910390fd5b8073ffffffffffffffffffffffffffffffffffffffff16610b84611eb5565b73ffffffffffffffffffffffffffffffffffffffff161480610bb35750610bb281610bad611eb5565b611b58565b5b610bf2576040517f08c379a0000000000000000000000000000000000000000000000000000000008152600401610be990613a66565b60405180910390fd5b610bfc8383611ebd565b505050565b6000835111610c45576040517f08c379a0000000000000000000000000000000000000000000000000000000008152600401610c3c90613af8565b60405180910390fd5b6000825111610c89576040517f08c379a0000000000000000000000000000000000000000000000000000000008152600401610c8090613b8a565b60405180910390fd5b6000610c956007611ea7565b9050610ca13382611f76565b600060096000838152602001908152602001600020905084816000019081610cc99190613d56565b5083816001019081610cdb9190613d56565b50828160020160006101000a81548173ffffffffffffffffffffffffffffffffffffffff021916908373ffffffffffffffffffffffffffffffffffffffff16021790555060008160030181905550600081600501819055507f1b59cb07aaad770db0305f5e4d27126089195f397c006e05f80d1deaa7ba5ce882868686604051610d689493929190613e28565b60405180910390a1610d7a6007611f94565b5050505050565b610d92610d8c611eb5565b82611faa565b610dd1576040517f08c379a0000000000000000000000000000000000000000000000000000000008152600401610dc890613eed565b60405180910390fd5b610ddc83838361203f565b505050565b610dfc838383604051806020016040528060008152506118a2565b505050565b6060806060806000805b610e156007611ea7565b8110156110995760006009600083815260200190815260200160002090508773ffffffffffffffffffffffffffffffffffffffff168160020160009054906101000a900473ffffffffffffffffffffffffffffffffffffffff1673ffffffffffffffffffffffffffffffffffffffff160361108557806000018054610e999061388b565b80601f0160208091040260200160405190810160405280929190818152602001828054610ec59061388b565b8015610f125780601f10610ee757610100808354040283529160200191610f12565b820191906000526020600020905b815481529060010190602001808311610ef557829003601f168201915b5050505050878481518110610f2a57610f296138bc565b5b6020026020010181905250806001018054610f449061388b565b80601f0160208091040260200160405190810160405280929190818152602001828054610f709061388b565b8015610fbd5780601f10610f9257610100808354040283529160200191610fbd565b820191906000526020600020905b815481529060010190602001808311610fa057829003601f168201915b5050505050868481518110610fd557610fd46138bc565b5b60200260200101819052508060020160009054906101000a900473ffffffffffffffffffffffffffffffffffffffff16858481518110611018576110176138bc565b5b602002602001019073ffffffffffffffffffffffffffffffffffffffff16908173ffffffffffffffffffffffffffffffffffffffff1681525050806003015484848151811061106a576110696138bc565b5b60200260200101818152505082806110819061391a565b9350505b5080806110919061391a565b915050610e0b565b50509193509193565b6000806110ae83612338565b9050600073ffffffffffffffffffffffffffffffffffffffff168173ffffffffffffffffffffffffffffffffffffffff160361111f576040517f08c379a000000000000000000000000000000000000000000000000000000000815260040161111690613f59565b60405180910390fd5b80915050919050565b60008073ffffffffffffffffffffffffffffffffffffffff168273ffffffffffffffffffffffffffffffffffffffff1603611198576040517f08c379a000000000000000000000000000000000000000000000000000000000815260040161118f90613feb565b60405180910390fd5b600360008373ffffffffffffffffffffffffffffffffffffffff1673ffffffffffffffffffffffffffffffffffffffff168152602001908152602001600020549050919050565b6111e7612375565b6111f160006123f3565b565b60608060008060608060006009600089815260200190815260200160002090506000816005015490508067ffffffffffffffff811115611236576112356132c7565b5b60405190808252806020026020018201604052801561126957816020015b60608152602001906001900390816112545790505b50935060005b8181101561134957826004016000828152602001908152602001600020600001805461129a9061388b565b80601f01602080910402602001604051908101604052809291908181526020018280546112c69061388b565b80156113135780601f106112e857610100808354040283529160200191611313565b820191906000526020600020905b8154815290600101906020018083116112f657829003601f168201915b505050505085828151811061132b5761132a6138bc565b5b602002602001018190525080806113419061391a565b91505061126f565b508067ffffffffffffffff811115611364576113636132c7565b5b6040519080825280602002602001820160405280156113925781602001602082028036833780820191505090505b50925060005b818110156113eb57826004016000828152602001908152602001600020600101548482815181106113cc576113cb6138bc565b5b60200260200101818152505080806113e39061391a565b915050611398565b5081600001826001018360020160009054906101000a900473ffffffffffffffffffffffffffffffffffffffff168460030154878785805461142c9061388b565b80601f01602080910402602001604051908101604052809291908181526020018280546114589061388b565b80156114a55780601f1061147a576101008083540402835291602001916114a5565b820191906000526020600020905b81548152906001019060200180831161148857829003601f168201915b505050505095508480546114b89061388b565b80601f01602080910402602001604051908101604052809291908181526020018280546114e49061388b565b80156115315780601f1061150657610100808354040283529160200191611531565b820191906000526020600020905b81548152906001019060200180831161151457829003601f168201915b50505050509450975097509750975097509750505091939550919395565b6000600660009054906101000a900473ffffffffffffffffffffffffffffffffffffffff16905090565b6060600180546115889061388b565b80601f01602080910402602001604051908101604052809291908181526020018280546115b49061388b565b80156116015780601f106115d657610100808354040283529160200191611601565b820191906000526020600020905b8154815290600101906020018083116115e457829003601f168201915b5050505050905090565b6060806060600060096000868152602001908152602001600020905060006116336007611ea7565b90508067ffffffffffffffff81111561164f5761164e6132c7565b5b60405190808252806020026020018201604052801561167d5781602001602082028036833780820191505090505b5094508067ffffffffffffffff81111561169a576116996132c7565b5b6040519080825280602002602001820160405280156116cd57816020015b60608152602001906001900390816116b85790505b5093508067ffffffffffffffff8111156116ea576116e96132c7565b5b6040519080825280602002602001820160405280156117185781602001602082028036833780820191505090505b5092506000805b8281101561188157600084600401600083815260200190815260200160002060010154111561186e578087838151811061175c5761175b6138bc565b5b602002602001018181525050836004016000828152602001908152602001600020600001805461178b9061388b565b80601f01602080910402602001604051908101604052809291908181526020018280546117b79061388b565b80156118045780601f106117d957610100808354040283529160200191611804565b820191906000526020600020905b8154815290600101906020018083116117e757829003601f168201915b505050505086838151811061181c5761181b6138bc565b5b602002602001018190525083600401600082815260200190815260200160002060010154858381518110611853576118526138bc565b5b602002602001018181525050818061186a9061391a565b9250505b80806118799061391a565b91505061171f565b505050509193909250565b61189e611897611eb5565b83836124b9565b5050565b6118b36118ad611eb5565b83611faa565b6118f2576040517f08c379a00000000000000000000000000000000000000000000000000000000081526004016118e990613eed565b60405180910390fd5b6118fe84848484612625565b50505050565b6000600960008481526020019081526020016000209050600073ffffffffffffffffffffffffffffffffffffffff168160020160009054906101000a900473ffffffffffffffffffffffffffffffffffffffff1673ffffffffffffffffffffffffffffffffffffffff16036119ae576040517f08c379a00000000000000000000000000000000000000000000000000000000081526004016119a590614057565b60405180910390fd5b6000816004016000848152602001908152602001600020600101541015611a0a576040517f08c379a0000000000000000000000000000000000000000000000000000000008152600401611a01906140c3565b60405180910390fd5b60003411611a4d576040517f08c379a0000000000000000000000000000000000000000000000000000000008152600401611a4490614155565b60405180910390fd5b348160040160008481526020019081526020016000206001016000828254611a759190614175565b9250508190555034816003016000828254611a909190614175565b925050819055507f3ac15109a7fb8838358b1ff2e8a09a5ad4318ec4c42a5fb24cc1bcb786cf1049838383600401600086815260200190815260200160002060000134604051611ae3949392919061422d565b60405180910390a1505050565b6060611afb82611e5c565b6000611b05612681565b90506000815111611b255760405180602001604052806000815250611b50565b80611b2f84612698565b604051602001611b409291906142b5565b6040516020818303038152906040525b915050919050565b6000600560008473ffffffffffffffffffffffffffffffffffffffff1673ffffffffffffffffffffffffffffffffffffffff16815260200190815260200160002060008373ffffffffffffffffffffffffffffffffffffffff1673ffffffffffffffffffffffffffffffffffffffff16815260200190815260200160002060009054906101000a900460ff16905092915050565b611bf4612375565b600073ffffffffffffffffffffffffffffffffffffffff168173ffffffffffffffffffffffffffffffffffffffff1603611c63576040517f08c379a0000000000000000000000000000000000000000000000000000000008152600401611c5a9061434b565b60405180910390fd5b611c6c816123f3565b50565b813373ffffffffffffffffffffffffffffffffffffffff16611c90826110a2565b73ffffffffffffffffffffffffffffffffffffffff1614611ce6576040517f08c379a0000000000000000000000000000000000000000000000000000000008152600401611cdd906143dd565b60405180910390fd5b60006009600085815260200190815260200160002090506000835111611d41576040517f08c379a0000000000000000000000000000000000000000000000000000000008152600401611d3890614449565b60405180910390fd5b60405180604001604052808481526020016000815250816004016000836005015481526020019081526020016000206000820151816000019081611d859190613d56565b50602082015181600101559050507f2a94cd6b8e4219d087c43453e983d276c11f9ba16e547f01adb19edb60ae3c7d84826005015485604051611dca93929190614469565b60405180910390a1806005016000815480929190611de79061391a565b919050555050505050565b60007f01ffc9a7000000000000000000000000000000000000000000000000000000007bffffffffffffffffffffffffffffffffffffffffffffffffffffffff1916827bffffffffffffffffffffffffffffffffffffffffffffffffffffffff1916149050919050565b611e6581612766565b611ea4576040517f08c379a0000000000000000000000000000000000000000000000000000000008152600401611e9b90613f59565b60405180910390fd5b50565b600081600001549050919050565b600033905090565b816004600083815260200190815260200160002060006101000a81548173ffffffffffffffffffffffffffffffffffffffff021916908373ffffffffffffffffffffffffffffffffffffffff160217905550808273ffffffffffffffffffffffffffffffffffffffff16611f30836110a2565b73ffffffffffffffffffffffffffffffffffffffff167f8c5be1e5ebec7d5bd14f71427d1e84f3dd0314c0f7b2291e5b200ac8c7c3b92560405160405180910390a45050565b611f908282604051806020016040528060008152506127a7565b5050565b6001816000016000828254019250508190555050565b600080611fb6836110a2565b90508073ffffffffffffffffffffffffffffffffffffffff168473ffffffffffffffffffffffffffffffffffffffff161480611ff85750611ff78185611b58565b5b8061203657508373ffffffffffffffffffffffffffffffffffffffff1661201e84610712565b73ffffffffffffffffffffffffffffffffffffffff16145b91505092915050565b8273ffffffffffffffffffffffffffffffffffffffff1661205f826110a2565b73ffffffffffffffffffffffffffffffffffffffff16146120b5576040517f08c379a00000000000000000000000000000000000000000000000000000000081526004016120ac90614519565b60405180910390fd5b600073ffffffffffffffffffffffffffffffffffffffff168273ffffffffffffffffffffffffffffffffffffffff1603612124576040517f08c379a000000000000000000000000000000000000000000000000000000000815260040161211b906145ab565b60405180910390fd5b6121318383836001612802565b8273ffffffffffffffffffffffffffffffffffffffff16612151826110a2565b73ffffffffffffffffffffffffffffffffffffffff16146121a7576040517f08c379a000000000000000000000000000000000000000000000000000000000815260040161219e90614519565b60405180910390fd5b6004600082815260200190815260200160002060006101000a81549073ffffffffffffffffffffffffffffffffffffffff02191690556001600360008573ffffffffffffffffffffffffffffffffffffffff1673ffffffffffffffffffffffffffffffffffffffff168152602001908152602001600020600082825403925050819055506001600360008473ffffffffffffffffffffffffffffffffffffffff1673ffffffffffffffffffffffffffffffffffffffff16815260200190815260200160002060008282540192505081905550816002600083815260200190815260200160002060006101000a81548173ffffffffffffffffffffffffffffffffffffffff021916908373ffffffffffffffffffffffffffffffffffffffff160217905550808273ffffffffffffffffffffffffffffffffffffffff168473ffffffffffffffffffffffffffffffffffffffff167fddf252ad1be2c89b69c2b068fc378daa952ba7f163c4a11628f55a4df523b3ef60405160405180910390a46123338383836001612808565b505050565b60006002600083815260200190815260200160002060009054906101000a900473ffffffffffffffffffffffffffffffffffffffff169050919050565b61237d611eb5565b73ffffffffffffffffffffffffffffffffffffffff1661239b61154f565b73ffffffffffffffffffffffffffffffffffffffff16146123f1576040517f08c379a00000000000000000000000000000000000000000000000000000000081526004016123e890614617565b60405180910390fd5b565b6000600660009054906101000a900473ffffffffffffffffffffffffffffffffffffffff16905081600660006101000a81548173ffffffffffffffffffffffffffffffffffffffff021916908373ffffffffffffffffffffffffffffffffffffffff1602179055508173ffffffffffffffffffffffffffffffffffffffff168173ffffffffffffffffffffffffffffffffffffffff167f8be0079c531659141344cd1fd0a4f28419497f9722a3daafe3b4186f6b6457e060405160405180910390a35050565b8173ffffffffffffffffffffffffffffffffffffffff168373ffffffffffffffffffffffffffffffffffffffff1603612527576040517f08c379a000000000000000000000000000000000000000000000000000000000815260040161251e90614683565b60405180910390fd5b80600560008573ffffffffffffffffffffffffffffffffffffffff1673ffffffffffffffffffffffffffffffffffffffff16815260200190815260200160002060008473ffffffffffffffffffffffffffffffffffffffff1673ffffffffffffffffffffffffffffffffffffffff16815260200190815260200160002060006101000a81548160ff0219169083151502179055508173ffffffffffffffffffffffffffffffffffffffff168373ffffffffffffffffffffffffffffffffffffffff167f17307eab39ab6107e8899845ad3d59bd9653f200f220920489ca2b5937696c31836040516126189190612ddc565b60405180910390a3505050565b61263084848461203f565b61263c8484848461280e565b61267b576040517f08c379a000000000000000000000000000000000000000000000000000000000815260040161267290614715565b60405180910390fd5b50505050565b606060405180602001604052806000815250905090565b6060600060016126a784612995565b01905060008167ffffffffffffffff8111156126c6576126c56132c7565b5b6040519080825280601f01601f1916602001820160405280156126f85781602001600182028036833780820191505090505b509050600082602001820190505b60011561275b578080600190039150507f3031323334353637383961626364656600000000000000000000000000000000600a86061a8153600a858161274f5761274e614735565b5b04945060008503612706575b819350505050919050565b60008073ffffffffffffffffffffffffffffffffffffffff1661278883612338565b73ffffffffffffffffffffffffffffffffffffffff1614159050919050565b6127b18383612ae8565b6127be600084848461280e565b6127fd576040517f08c379a00000000000000000000000000000000000000000000000000000000081526004016127f490614715565b60405180910390fd5b505050565b50505050565b50505050565b600061282f8473ffffffffffffffffffffffffffffffffffffffff16612d05565b15612988578373ffffffffffffffffffffffffffffffffffffffff1663150b7a02612858611eb5565b8786866040518563ffffffff1660e01b815260040161287a94939291906147b9565b6020604051808303816000875af19250505080156128b657506040513d601f19601f820116820180604052508101906128b3919061481a565b60015b612938573d80600081146128e6576040519150601f19603f3d011682016040523d82523d6000602084013e6128eb565b606091505b506000815103612930576040517f08c379a000000000000000000000000000000000000000000000000000000000815260040161292790614715565b60405180910390fd5b805181602001fd5b63150b7a0260e01b7bffffffffffffffffffffffffffffffffffffffffffffffffffffffff1916817bffffffffffffffffffffffffffffffffffffffffffffffffffffffff19161491505061298d565b600190505b949350505050565b600080600090507a184f03e93ff9f4daa797ed6e38ed64bf6a1f01000000000000000083106129f3577a184f03e93ff9f4daa797ed6e38ed64bf6a1f01000000000000000083816129e9576129e8614735565b5b0492506040810190505b6d04ee2d6d415b85acef81000000008310612a30576d04ee2d6d415b85acef81000000008381612a2657612a25614735565b5b0492506020810190505b662386f26fc100008310612a5f57662386f26fc100008381612a5557612a54614735565b5b0492506010810190505b6305f5e1008310612a88576305f5e1008381612a7e57612a7d614735565b5b0492506008810190505b6127108310612aad576127108381612aa357612aa2614735565b5b0492506004810190505b60648310612ad05760648381612ac657612ac5614735565b5b0492506002810190505b600a8310612adf576001810190505b80915050919050565b600073ffffffffffffffffffffffffffffffffffffffff168273ffffffffffffffffffffffffffffffffffffffff1603612b57576040517f08c379a0000000000000000000000000000000000000000000000000000000008152600401612b4e90614893565b60405180910390fd5b612b6081612766565b15612ba0576040517f08c379a0000000000000000000000000000000000000000000000000000000008152600401612b97906148ff565b60405180910390fd5b612bae600083836001612802565b612bb781612766565b15612bf7576040517f08c379a0000000000000000000000000000000000000000000000000000000008152600401612bee906148ff565b60405180910390fd5b6001600360008473ffffffffffffffffffffffffffffffffffffffff1673ffffffffffffffffffffffffffffffffffffffff16815260200190815260200160002060008282540192505081905550816002600083815260200190815260200160002060006101000a81548173ffffffffffffffffffffffffffffffffffffffff021916908373ffffffffffffffffffffffffffffffffffffffff160217905550808273ffffffffffffffffffffffffffffffffffffffff16600073ffffffffffffffffffffffffffffffffffffffff167fddf252ad1be2c89b69c2b068fc378daa952ba7f163c4a11628f55a4df523b3ef60405160405180910390a4612d01600083836001612808565b5050565b6000808273ffffffffffffffffffffffffffffffffffffffff163b119050919050565b6000604051905090565b600080fd5b600080fd5b60007fffffffff0000000000000000000000000000000000000000000000000000000082169050919050565b612d7181612d3c565b8114612d7c57600080fd5b50565b600081359050612d8e81612d68565b92915050565b600060208284031215612daa57612da9612d32565b5b6000612db884828501612d7f565b91505092915050565b60008115159050919050565b612dd681612dc1565b82525050565b6000602082019050612df16000830184612dcd565b92915050565b600081519050919050565b600082825260208201905092915050565b60005b83811015612e31578082015181840152602081019050612e16565b60008484015250505050565b6000601f19601f8301169050919050565b6000612e5982612df7565b612e638185612e02565b9350612e73818560208601612e13565b612e7c81612e3d565b840191505092915050565b60006020820190508181036000830152612ea18184612e4e565b905092915050565b6000819050919050565b612ebc81612ea9565b8114612ec757600080fd5b50565b600081359050612ed981612eb3565b92915050565b600060208284031215612ef557612ef4612d32565b5b6000612f0384828501612eca565b91505092915050565b600073ffffffffffffffffffffffffffffffffffffffff82169050919050565b6000612f3782612f0c565b9050919050565b612f4781612f2c565b82525050565b6000602082019050612f626000830184612f3e565b92915050565b600081519050919050565b600082825260208201905092915050565b6000819050602082019050919050565b600082825260208201905092915050565b6000612fb082612df7565b612fba8185612f94565b9350612fca818560208601612e13565b612fd381612e3d565b840191505092915050565b6000612fea8383612fa5565b905092915050565b6000602082019050919050565b600061300a82612f68565b6130148185612f73565b93508360208202850161302685612f84565b8060005b8581101561306257848403895281516130438582612fde565b945061304e83612ff2565b925060208a0199505060018101905061302a565b50829750879550505050505092915050565b600081519050919050565b600082825260208201905092915050565b6000819050602082019050919050565b6130a981612f2c565b82525050565b60006130bb83836130a0565b60208301905092915050565b6000602082019050919050565b60006130df82613074565b6130e9818561307f565b93506130f483613090565b8060005b8381101561312557815161310c88826130af565b9750613117836130c7565b9250506001810190506130f8565b5085935050505092915050565b600081519050919050565b600082825260208201905092915050565b6000819050602082019050919050565b61316781612ea9565b82525050565b6000613179838361315e565b60208301905092915050565b6000602082019050919050565b600061319d82613132565b6131a7818561313d565b93506131b28361314e565b8060005b838110156131e35781516131ca888261316d565b97506131d583613185565b9250506001810190506131b6565b5085935050505092915050565b6000608082019050818103600083015261320a8187612fff565b9050818103602083015261321e8186612fff565b9050818103604083015261323281856130d4565b905081810360608301526132468184613192565b905095945050505050565b61325a81612f2c565b811461326557600080fd5b50565b60008135905061327781613251565b92915050565b6000806040838503121561329457613293612d32565b5b60006132a285828601613268565b92505060206132b385828601612eca565b9150509250929050565b600080fd5b600080fd5b7f4e487b7100000000000000000000000000000000000000000000000000000000600052604160045260246000fd5b6132ff82612e3d565b810181811067ffffffffffffffff8211171561331e5761331d6132c7565b5b80604052505050565b6000613331612d28565b905061333d82826132f6565b919050565b600067ffffffffffffffff82111561335d5761335c6132c7565b5b61336682612e3d565b9050602081019050919050565b82818337600083830152505050565b600061339561339084613342565b613327565b9050828152602081018484840111156133b1576133b06132c2565b5b6133bc848285613373565b509392505050565b600082601f8301126133d9576133d86132bd565b5b81356133e9848260208601613382565b91505092915050565b60008060006060848603121561340b5761340a612d32565b5b600084013567ffffffffffffffff81111561342957613428612d37565b5b613435868287016133c4565b935050602084013567ffffffffffffffff81111561345657613455612d37565b5b613462868287016133c4565b925050604061347386828701613268565b9150509250925092565b60008060006060848603121561349657613495612d32565b5b60006134a486828701613268565b93505060206134b586828701613268565b92505060406134c686828701612eca565b9150509250925092565b6000602082840312156134e6576134e5612d32565b5b60006134f484828501613268565b91505092915050565b61350681612ea9565b82525050565b600060208201905061352160008301846134fd565b92915050565b600060c08201905081810360008301526135418189612e4e565b905081810360208301526135558188612e4e565b90506135646040830187612f3e565b61357160608301866134fd565b81810360808301526135838185612fff565b905081810360a08301526135978184613192565b9050979650505050505050565b600060608201905081810360008301526135be8186613192565b905081810360208301526135d28185612fff565b905081810360408301526135e68184613192565b9050949350505050565b6135f981612dc1565b811461360457600080fd5b50565b600081359050613616816135f0565b92915050565b6000806040838503121561363357613632612d32565b5b600061364185828601613268565b925050602061365285828601613607565b9150509250929050565b600067ffffffffffffffff821115613677576136766132c7565b5b61368082612e3d565b9050602081019050919050565b60006136a061369b8461365c565b613327565b9050828152602081018484840111156136bc576136bb6132c2565b5b6136c7848285613373565b509392505050565b600082601f8301126136e4576136e36132bd565b5b81356136f484826020860161368d565b91505092915050565b6000806000806080858703121561371757613716612d32565b5b600061372587828801613268565b945050602061373687828801613268565b935050604061374787828801612eca565b925050606085013567ffffffffffffffff81111561376857613767612d37565b5b613774878288016136cf565b91505092959194509250565b6000806040838503121561379757613796612d32565b5b60006137a585828601612eca565b92505060206137b685828601612eca565b9150509250929050565b600080604083850312156137d7576137d6612d32565b5b60006137e585828601613268565b92505060206137f685828601613268565b9150509250929050565b6000806040838503121561381757613816612d32565b5b600061382585828601612eca565b925050602083013567ffffffffffffffff81111561384657613845612d37565b5b613852858286016133c4565b9150509250929050565b7f4e487b7100000000000000000000000000000000000000000000000000000000600052602260045260246000fd5b600060028204905060018216806138a357607f821691505b6020821081036138b6576138b561385c565b5b50919050565b7f4e487b7100000000000000000000000000000000000000000000000000000000600052603260045260246000fd5b7f4e487b7100000000000000000000000000000000000000000000000000000000600052601160045260246000fd5b600061392582612ea9565b91507fffffffffffffffffffffffffffffffffffffffffffffffffffffffffffffffff8203613957576139566138eb565b5b600182019050919050565b7f4552433732313a20617070726f76616c20746f2063757272656e74206f776e6560008201527f7200000000000000000000000000000000000000000000000000000000000000602082015250565b60006139be602183612e02565b91506139c982613962565b604082019050919050565b600060208201905081810360008301526139ed816139b1565b9050919050565b7f4552433732313a20617070726f76652063616c6c6572206973206e6f7420746f60008201527f6b656e206f776e6572206f7220617070726f76656420666f7220616c6c000000602082015250565b6000613a50603d83612e02565b9150613a5b826139f4565b604082019050919050565b60006020820190508181036000830152613a7f81613a43565b9050919050565b7f4f7267616e697a6174696f6e206e616d652063616e6e6f7420626520656d707460008201527f7900000000000000000000000000000000000000000000000000000000000000602082015250565b6000613ae2602183612e02565b9150613aed82613a86565b604082019050919050565b60006020820190508181036000830152613b1181613ad5565b9050919050565b7f4f7267616e697a6174696f6e206465736372697074696f6e2063616e6e6f742060008201527f626520656d707479000000000000000000000000000000000000000000000000602082015250565b6000613b74602883612e02565b9150613b7f82613b18565b604082019050919050565b60006020820190508181036000830152613ba381613b67565b9050919050565b60008190508160005260206000209050919050565b60006020601f8301049050919050565b600082821b905092915050565b600060088302613c0c7fffffffffffffffffffffffffffffffffffffffffffffffffffffffffffffffff82613bcf565b613c168683613bcf565b95508019841693508086168417925050509392505050565b6000819050919050565b6000613c53613c4e613c4984612ea9565b613c2e565b612ea9565b9050919050565b6000819050919050565b613c6d83613c38565b613c81613c7982613c5a565b848454613bdc565b825550505050565b600090565b613c96613c89565b613ca1818484613c64565b505050565b5b81811015613cc557613cba600082613c8e565b600181019050613ca7565b5050565b601f821115613d0a57613cdb81613baa565b613ce484613bbf565b81016020851015613cf3578190505b613d07613cff85613bbf565b830182613ca6565b50505b505050565b600082821c905092915050565b6000613d2d60001984600802613d0f565b1980831691505092915050565b6000613d468383613d1c565b9150826002028217905092915050565b613d5f82612df7565b67ffffffffffffffff811115613d7857613d776132c7565b5b613d82825461388b565b613d8d828285613cc9565b600060209050601f831160018114613dc05760008415613dae578287015190505b613db88582613d3a565b865550613e20565b601f198416613dce86613baa565b60005b82811015613df657848901518255600182019150602085019450602081019050613dd1565b86831015613e135784890151613e0f601f891682613d1c565b8355505b6001600288020188555050505b505050505050565b6000608082019050613e3d60008301876134fd565b8181036020830152613e4f8186612e4e565b90508181036040830152613e638185612e4e565b9050613e726060830184612f3e565b95945050505050565b7f4552433732313a2063616c6c6572206973206e6f7420746f6b656e206f776e6560008201527f72206f7220617070726f76656400000000000000000000000000000000000000602082015250565b6000613ed7602d83612e02565b9150613ee282613e7b565b604082019050919050565b60006020820190508181036000830152613f0681613eca565b9050919050565b7f4552433732313a20696e76616c696420746f6b656e2049440000000000000000600082015250565b6000613f43601883612e02565b9150613f4e82613f0d565b602082019050919050565b60006020820190508181036000830152613f7281613f36565b9050919050565b7f4552433732313a2061646472657373207a65726f206973206e6f74206120766160008201527f6c6964206f776e65720000000000000000000000000000000000000000000000602082015250565b6000613fd5602983612e02565b9150613fe082613f79565b604082019050919050565b6000602082019050818103600083015261400481613fc8565b9050919050565b7f4f7267616e697a6174696f6e20646f6573206e6f742065786973740000000000600082015250565b6000614041601b83612e02565b915061404c8261400b565b602082019050919050565b6000602082019050818103600083015261407081614034565b9050919050565b7f43617465676f727920646f6573206e6f74206578697374000000000000000000600082015250565b60006140ad601783612e02565b91506140b882614077565b602082019050919050565b600060208201905081810360008301526140dc816140a0565b9050919050565b7f53656e742066756e6473206d7573742062652067726561746572207468616e2060008201527f3000000000000000000000000000000000000000000000000000000000000000602082015250565b600061413f602183612e02565b915061414a826140e3565b604082019050919050565b6000602082019050818103600083015261416e81614132565b9050919050565b600061418082612ea9565b915061418b83612ea9565b92508282019050808211156141a3576141a26138eb565b5b92915050565b600081546141b68161388b565b6141c08186612e02565b945060018216600081146141db57600181146141f157614224565b60ff198316865281151560200286019350614224565b6141fa85613baa565b60005b8381101561421c578154818901526001820191506020810190506141fd565b808801955050505b50505092915050565b600060808201905061424260008301876134fd565b61424f60208301866134fd565b818103604083015261426181856141a9565b905061427060608301846134fd565b95945050505050565b600081905092915050565b600061428f82612df7565b6142998185614279565b93506142a9818560208601612e13565b80840191505092915050565b60006142c18285614284565b91506142cd8284614284565b91508190509392505050565b7f4f776e61626c653a206e6577206f776e657220697320746865207a65726f206160008201527f6464726573730000000000000000000000000000000000000000000000000000602082015250565b6000614335602683612e02565b9150614340826142d9565b604082019050919050565b6000602082019050818103600083015261436481614328565b9050919050565b7f4e6f7420746865206f776e6572206f6620746865206f7267616e697a6174696f60008201527f6e00000000000000000000000000000000000000000000000000000000000000602082015250565b60006143c7602183612e02565b91506143d28261436b565b604082019050919050565b600060208201905081810360008301526143f6816143ba565b9050919050565b7f43617465676f7279206e616d652063616e6e6f7420626520656d707479000000600082015250565b6000614433601d83612e02565b915061443e826143fd565b602082019050919050565b6000602082019050818103600083015261446281614426565b9050919050565b600060608201905061447e60008301866134fd565b61448b60208301856134fd565b818103604083015261449d8184612e4e565b9050949350505050565b7f4552433732313a207472616e736665722066726f6d20696e636f72726563742060008201527f6f776e6572000000000000000000000000000000000000000000000000000000602082015250565b6000614503602583612e02565b915061450e826144a7565b604082019050919050565b60006020820190508181036000830152614532816144f6565b9050919050565b7f4552433732313a207472616e7366657220746f20746865207a65726f2061646460008201527f7265737300000000000000000000000000000000000000000000000000000000602082015250565b6000614595602483612e02565b91506145a082614539565b604082019050919050565b600060208201905081810360008301526145c481614588565b9050919050565b7f4f776e61626c653a2063616c6c6572206973206e6f7420746865206f776e6572600082015250565b6000614601602083612e02565b915061460c826145cb565b602082019050919050565b60006020820190508181036000830152614630816145f4565b9050919050565b7f4552433732313a20617070726f766520746f2063616c6c657200000000000000600082015250565b600061466d601983612e02565b915061467882614637565b602082019050919050565b6000602082019050818103600083015261469c81614660565b9050919050565b7f4552433732313a207472616e7366657220746f206e6f6e20455243373231526560008201527f63656976657220696d706c656d656e7465720000000000000000000000000000602082015250565b60006146ff603283612e02565b915061470a826146a3565b604082019050919050565b6000602082019050818103600083015261472e816146f2565b9050919050565b7f4e487b7100000000000000000000000000000000000000000000000000000000600052601260045260246000fd5b600081519050919050565b600082825260208201905092915050565b600061478b82614764565b614795818561476f565b93506147a5818560208601612e13565b6147ae81612e3d565b840191505092915050565b60006080820190506147ce6000830187612f3e565b6147db6020830186612f3e565b6147e860408301856134fd565b81810360608301526147fa8184614780565b905095945050505050565b60008151905061481481612d68565b92915050565b6000602082840312156148305761482f612d32565b5b600061483e84828501614805565b91505092915050565b7f4552433732313a206d696e7420746f20746865207a65726f2061646472657373600082015250565b600061487d602083612e02565b915061488882614847565b602082019050919050565b600060208201905081810360008301526148ac81614870565b9050919050565b7f4552433732313a20746f6b656e20616c7265616479206d696e74656400000000600082015250565b60006148e9601c83612e02565b91506148f4826148b3565b602082019050919050565b60006020820190508181036000830152614918816148dc565b905091905056fea2646970667358221220ace3c163841c8f8406f292a609476b9d710b8dde4622344a8b6e86a104471a9364736f6c63430008110033",
  "linkReferences": {},
  "deployedLinkReferences": {}
}